:1000000000000120E1020000090300000B030000D2
:100010000D0300000F0300001103000000000000AA
:1000200000000000000000000000000013030000BA
:100030001503000000000000170300001903000072
:100040001B0300001B030000CD1A00002D1B000045
:100050001B0300001B0300001B0300001B03000028
:100060001B0300001B0300001B0300001B03000018
:100070001B0300001B0300001B0300001B03000008
:100080001B0300001B0300001B0300001B030000F8
:100090001B0300001B0300001B0300001B030000E8
:1000A0001B0300001B0300001B0300001B030000D8
:1000B0001B0300001B030000000000000000000004
:1000C0001B0300001B0300001B0300001B030000B8
:1000D0001B0300001B0300001B03000000000000C6
:1000E0000000000000000000000000000000000010
:1000F0000000000000000000000000000000000000
:1001000000000000000000000000000000000000EF
:1001100000000000000000000000000000000000DF
:1001200000000000000000000000000000000000CF
:1001300000000000000000000000000000000000BF
:1001400000000000000000000000000000000000AF
:10015000000000000000000000000000000000009F
:10016000000000000000000000000000000000008F
:10017000000000000000000000000000000000007F
:10018000000000000000000000000000000000006F
:10019000000000000000000000000000000000005F
:1001A000000000000000000000000000000000004F
:1001B000000000000000000000000000000000003F
:1001C000000000000000000000000000000000002F
:1001D000000000000000000000000000000000001F
:1001E000000000000000000000000000000000000F
:1001F00000000000000000000000000000000000FF
:1002000010B5054C237833B9044B13B10448AFF350
:1002100000800123237010BD0802002000000000B0
:10022000B85A00000C4B43B10C480D4910B5AFF360
:1002300000800C48036823B910BD0A48036833B92D
:100240007047094B002BF7D0BDE810401847064B0C
:10025000002BF5D0184700BF00000000B85A00007E
:100260000C0200200402002000000000154B002BAF
:1002700008BF134B9D46A3F5803A00218B460F46DD
:100280001348144A121A03F0D2FB0F4B002B00D074
:1002900098470E4B002B00D0984700200021040007
:1002A0000D000D48002802D00C48AFF3008003F089
:1002B0006FFB2000290002F0A1FB03F055FB00BFFB
:1002C0000000080000000120000000000000000005
:1002D000080200207C0B002000000000000000004D
:1002E0000649074A074B9B1A03DD043BC858D05008
:1002F000FBDC02F0AFFCFFF7B9FF0000205B000061
:100300000000002008020020FEE7FEE7FEE7FEE70F
:10031000FEE7FEE7FEE7FEE7FEE7FEE7704700BF09
:1003200000B583B0044B0093044A402300F036F834
:1003300003B05DF804FB00BF410300002802002069
:1003400002B32DE9F843114B114E8846144643F091
:10035000010903270025224608EB0501002002F0D1
:1003600085FB03461D444FF47A40E41A23B93378E1
:1003700033B1C847013F06D001233370002CEAD1C6
:10038000BDE8F88370473770BDE8F8834056000039
:1003900024020020704700BF02F02CBCF0B595B0DD
:1003A000002415460F4608461E4601F07BFA3846E3
:1003B00023460822089505A91A9D09960D950A94C9
:1003C0008DF82C400C9401F0C9FA9DF81430079870
:1003D00006998DF8114003F00302012A029003915F
:1003E00028D0022A04D0384601F060FA15B0F0BDDA
:1003F000BDF81650C3F3C2038DF81030C5F389154C
:100400000826082D2C4628BF0824334622460EA96C
:10041000384601F0A3FA2D1B214608AB02AA0EA80C
:10042000264400F023FD002DEBD1384601F03EFAC2
:1004300015B0F0BDBDF81460059DC6F38316C3F377
:10044000C204B2000EA9384608238DF81040C5F347
:10045000952501F083FA08AB0093324628460EA991
:1004600002AB00F05DFCBEE7014B01221A70704741
:10047000AC020020704700BF00B583B0044B00936E
:10048000044A4023FFF78AFF03B05DF804FB00BF76
:10049000990400006C02002038B50E480E4D037818
:1004A0000E4CEB5C00252570D2B253B90C3002F033
:1004B00005F858B90A4B1B7813B12378002BFCD0F0
:1004C00038BD043002F04CFA0028F3D000F07CFD77
:1004D000F0E700BF00000020000B0020AC0200206D
:1004E0006802002070B51348134A0378D35C88B0C3
:1004F000DBB90C3001F07CFF104D0FCD6C460FC402
:1005000095E80F0008AD062645F8206D84E80F0039
:1005100029460022074801F099FA08B100F054FD7D
:10052000074B00221A7008B070BD043002F0B0F919
:10053000E2E700BF00000020000B0020545600003E
:100540006802002070B50D4D0FCD88B06C460FC409
:1005500095E80F0008AD062645F8206D84E80F00E9
:100560002946074A074801F071FA08B100F02CFD4E
:10057000054B01221A7008B070BD00BF5456000030
:1005800069040000000000206802002038B50A4D10
:10059000FFF702FF0421284600F07AFB074B0124F5
:1005A0005C71FFF7CFFF05F11000042100F070FB34
:1005B000034B5C7138BD00BFE45A000014000020FA
:1005C0001C000020F0B5334D85B005F5836000F0C8
:1005D0007DFD05F2144000F079FD6B68AE6803EA1A
:1005E0000600C11C05EB810215F8214014F004043B
:1005F0000ED0117801F0030101293BD0022903F14B
:10060000020700F1030126D005EB8102002CF0D196
:1006100005EB80005A1CC1680191324005EB820253
:1006200001F00301D2680292012903F1020429D0EA
:10063000022925D1BDF80630BDF80A60C3F389133D
:10064000033304EB9304144800F04EFD00B16C60DA
:10065000304605B0F0BD538807EB931306EA03005C
:10066000C11C05EB810215F8214004F00404002CA4
:10067000BFD1CDE711880233C1F383110B44EDE7FD
:100680000026E0E7BDF80430BDF80A60C3F3831329
:100690001C44D8E780030020940700200B4B0C4833
:1006A00010B50022FF21C3F8182499601A605A601F
:1006B000C3F8142483F8202401F0AAF8044610B9E2
:1006C000044801F081F9204610BD00BF80030020DE
:1006D000045B0000A456000021B9114B03EBC000DD
:1006E0000068704730B40F4A0D4C121BD2080CD072
:1006F0000D4D2B88834210D0002303E035F82310E2
:10070000814205D001339A42F8D1002030BC7047B5
:1007100004EBC300006830BC70472046FAE700BF16
:10072000BC5A0000E45A000008020020094B0139BD
:1007300003EBC00003290BD8DFE801F00208060430
:100740000220704740797047007970470420704755
:1007500000207047BC5A00002DE9F047914C94E806
:100760000C009A4284B000F0B6800023C4F818341C
:10077000BFF34F8F6368A56803EA0501CA1C04EB49
:10078000820614F8222050071AD52768327802F022
:100790000302012A43D0022A03F1020202D1738824
:1007A00002EB931305EA0301D4F81804CA1C04EB06
:1007B000820628B99F4238D914F822205207E5D47E
:1007C00004EB81015A1CC96801912A4004EB8202A2
:1007D00001F00301D2680292022903F1020828D035
:1007E00001297CD0D4F810543DB12B6828469B6871
:1007F0009847EB681D68002DF7D16B486B4B6C492F
:10080000C01AC008000440F0020000F0D7F8606889
:100810002368C01A18BF012004B0BDE8F0873288F1
:100820000233C2F383121344BCE7676004B0BDE82F
:10083000F087BDF806305F48C3F389194F46502F43
:10084000A8BF502767F38F1307F10801ADF80630F2
:1008500000F0E0FF06460028C4D025EA080A0AF1A5
:10086000010A01F01FF84FEA8A0A0023082201A9B1
:10087000304601F03DF857456ED9BAF1000F7AD1F4
:100880003A4608234C49304601F032F809F1030793
:1008900008EB9707D4F81834002B68D1D4F810541B
:1008A0005DB1EB685A79314628461AB12B681B684E
:1008B0009847EB681D68002DF3D1304600F0F6FF35
:1008C000002000F0C9FBD4F8183403B96760002099
:1008D00000F0CAFB9BE7002004B0BDE8F087BDF83C
:1008E00004303448C3F38312062A28BF0622911C21
:1008F00062F389138900ADF8043000F08BFF0646DF
:1009000000283FF46FAF00F0CDFF0023082201A9BB
:10091000304600F0EDFFBDF8043013F4707F3FD097
:100920004FF0000A4FF0080905EA080103314B4671
:1009300004EB81010422304600F0DAFFBDF80430F8
:100940000AF1010AC3F3831308F10107534509F1C2
:100950000409B846E8D89DE705EA0801033104EB2D
:1009600081013A460823304600F0C2FF8EE7304648
:1009700000F09CFF4BE705EA08010331A7EB0A05ED
:1009800004EB810152463046EDB2082300F0B0FF7F
:100990002A460AF108030849304600F0A9FF75E726
:1009A000474677E780030020DC5A0000BC5A00006D
:1009B000B0560000045B00008C0300202DE9F843D2
:1009C000DFF8D890074600208846D9F8085000F094
:1009D00043FBD9F80820D9F80430D9F80060134453
:1009E00001339B1B012B55D809F21C4401212046E1
:1009F00000F050FBFFF7E6FD0146204600F04AFB01
:100A000099E80A00D9F80820134401335B1A012B36
:100A1000ECD901240A40033244F004036FF3891334
:100A200049F8223002310020C9F8001000F01CFB08
:100A30000021194800F022FB80F3100033192B40ED
:100A400009EB830300043540033540EA1740D860C2
:100A500019F8253067F3C50309F8253039F8253032
:100A60006FF3891329F8253059F8252068F39F2260
:100A7000134664F301036FF3820349F8252009F854
:100A8000253099F820341BB1FFF766FE0028FBD112
:100A9000BDE8F8833146BCE79C07002080030020B6
:100AA0002DE9F047354C8046002092468946A568DE
:100AB00000F0D2FAA2686368276813440133DB1B95
:100AC000022B59D804F21C460121304600F0E2FA0C
:100AD000FFF778FD0146304600F0DCFA94E80A00A2
:100AE000A268134401335B1A022BEDD901260A4098
:100AF000033246F0040366F3891344F822300331CD
:100B00000020216000F0B0FABB1C2B4004EB8303F3
:100B100000211B48C3F80CA000F0B0FA80F31000CD
:100B2000BB192B4004EB830300043D40033540EA2E
:100B30001840D86014F8253068F3C50304F8253050
:100B400034F8253066F3891324F8253054F825202D
:100B500069F39F22134666F301036FF3820344F89F
:100B6000252004F8253094F820341BB1FFF7F4FD5C
:100B70000028FBD1BDE8F0873946B7E780030020A5
:100B80009C0700202DE9F04F3F4C83B080460020A9
:100B900089460193A668934600F05EFAA1686368EF
:100BA00027680B440133DB1B042B6BD804F21C4574
:100BB0000121284600F06EFAFFF704FD01462846A1
:100BC00000F068FA94E80C00A1680B4401339B1A0A
:100BD000042BEDD9012511404FF0030A033145F0F4
:100BE000040305326AF38913002044F8213022609F
:100BF00000F03AFAB81C07EB0A0E30400EEA060E77
:100C00003A1D324004EB800004EB8E0E04EB8202AE
:100C1000019BC0F80CB00021CEF80C301B480C9B97
:100C2000D36000F02BFA80F310007A19324004EB05
:100C3000820200043E40564440EA1840D06014F856
:100C4000262068F3C50204F8262034F826206AF32B
:100C5000891224F8262054F8262069F39F2213468F
:100C600065F301036FF3820344F8262004F826306D
:100C700094F820341BB1FFF76FFD0028FBD103B0BF
:100C8000BDE8F08F3A46A5E7800300209C070020CE
:100C900030B4174DD5F8104400215CB1E3681A79DF
:100CA0008A4204D116E0DB681A798A4212D01B68A6
:100CB000002BF8D1C3681971D5F8103493B1DA68F4
:100CC000C36812681A60D5F81034DB6818600846EB
:100CD00030BC704701310A29DFD14FF0FF3108469F
:100CE00030BC7047C5F81004C2681360EFE700BF5E
:100CF0008003002038B5094BD3F81044012583F850
:100D000020544CB1E3685D71236820465B689847C6
:100D1000E3681C68002CF5D138BD00BF80030020BB
:100D20002DE9F04784B01D460C9C002394F80C80FC
:100D30002373EB8881460E461746002B3BD1297A58
:100D400005290FD06B7A002B3DD1404BA88853F872
:100D500021A00021FFF7C0FC524603463C49204633
:100D600000F034FA062F0FD8DFE807F0484D535A49
:100D700004633900F168B06896E80C0001910090B6
:100D80004946204600F022FA2B7A052B05D06B7AD3
:100D90005BB93049204600F019FA204600F00AFA03
:100DA00084F80C8004B0BDE8F0872B4A2B4920461C
:100DB00000F00CFAEDE7284A00922949294A20461A
:100DC00000F004FABBE7A888FFF7B0FC264B2349E4
:100DD00053F82020204600F0F9F9297AB5E7706928
:100DE000316996E80C000390B068F76802918DE8CD
:100DF00081004946204600F0E9F9C5E7494620460A
:100E000000F0E4F9C0E732684946204600F0DEF918
:100E1000BAE7494696E80C00204600F0D7F9B3E758
:100E2000B16896E80C0020460091494600F0CEF9E2
:100E3000AAE7B068F768316996E80C0002918DE87E
:100E400081004946204600F0C1F99DE73C5700006B
:100E50002C5700003857000020570000285700008A
:100E60000857000000570000C8560000082900D9A4
:100E700070472DE9F04F1D46904600232A7B2B73C7
:100E800085B0B8F80630039207460E46002B6BD1AA
:100E900098F80810052911D098F80930002B6BD16B
:100EA0003C4BB8F8040053F821400021FFF714FC34
:100EB000224603463849284600F088F9DFF8F8B0A2
:100EC000DFF8F8900024A642494628463ED93A5D0C
:100ED000013400F07BF9082CF5D13049DFF8E090BF
:100EE000DFF8E0B0284600F071F9002411E017F8AF
:100EF00004A002F071FD50445946437813F0970F57
:100F000014BF52462E222846013400F05FF9082C07
:100F100008D0A64249462846E9D8013400F056F9DF
:100F2000082CF6D198F80830052B02D098F8093033
:100F3000A3B91B49284600F049F9284600F03AF9C0
:100F40009DF80C302B7305B0BDE8F08F0134594685
:100F5000284600F03BF9082CB5D1BEE7114A1249EA
:100F6000284600F033F9E4E70E4A00920F49104A90
:100F7000284600F02BF98BE7B8F80400FFF7D6FB02
:100F80000C4B094953F82020284600F01FF998F827
:100F9000081085E73C5700002C570000F856000069
:100FA000385700002057000028570000085700005D
:100FB00000570000C8560000F4560000EC56000030
:100FC00034570000FC56000000B585B000230390A4
:100FD000194601AA44F201000193029300F004F8BB
:100FE00005B05DF804FB00BF10B572B6FFF782FED6
:100FF000FFF7B2FB0028FBD1104B114C1149E41A4A
:10100000E408240444F00100FFF7D8FC0E4B1B68F1
:10101000DB0700D500BE44F002000C49FFF7CEFC10
:10102000BFF34F8F0A490B4BCA6802F4E0621343C7
:10103000CB60BFF34F8F00BFFDE700BFBC5A00007D
:10104000DC5A0000A8570000F0ED00E0B4570000A3
:1010500000ED00E00400FA0572B6024A136801339D
:10106000136070473C080020034A1368013B13607B
:1010700003B962B6704700BF3C08002000B550E8D5
:10108000002F0B4640E8003E9EF0000FF7D11046BF
:101090005DF804FB00B550E8003F03EB010240E8B7
:1010A000002E9EF0000FF6D110465DF804FB00BF45
:1010B00000B550E8003FA3EB010240E8002E9EF08F
:1010C000000FF6D110465DF804FB00BF00B5012308
:1010D00050E8002F42EA030E40E800E191F0000FD3
:1010E000F6D170465DF804FB00B5002350E800EF30
:1010F0000EEA030240E8002191F0000FF6D170469D
:101100005DF804FBB8B130B4416882680468521AD3
:10111000D2B2531E2160DBB242B101680A685C1E84
:10112000551C0D601370E3B2FF2BF6D1036800204D
:10113000187130BC70470E20704700BF70B5044670
:101140000020FFF789FF236861681A688A4215D971
:10115000511E19602168A3680D680879268A12F863
:10116000012CE4685B1BDBB2984206FB024400D210
:101170000B710020FFF778FF204670BD002400208F
:10118000FFF772FF204670BD38B5054600200C46BB
:10119000FFF762FF2A681368591C1160E9682A8A00
:1011A000641AB4FBF2F41C700020BDE83840FFF76D
:1011B0005BBF00BF826802B9704710B5044643693F
:1011C0000168006998470023A36010BD0EB400B504
:1011D00082B0039929B102AA04AB42F8043D00F0A1
:1011E00095F802B05DF804EB03B070472DE9F84FB5
:1011F0001746B942884606461D46DDF828B00B9AC8
:101200007DD30B464FF00109B3FBF7F39F4209F181
:101210000109F9D9A94538BFA94612F0010A02D13E
:10122000BBF1000F49D1B268012402E0013D07FB88
:1012300004F4012DFAD8B8FBF4F18F42F7D9324DFE
:1012400005E0B4FBF7F4A4B1B8FBF4F1B268685C54
:10125000531CB36033689854B26873689A4204FBB5
:101260001188EED33046FFF7A5FFB4FBF7F4002C4E
:10127000EAD1BAF1000F16D0BBF1000F33D0CB4545
:1012800088BF20243ED9B3683268591CB160D45459
:10129000B26873689A420BF1FF3B06D2BBF1000FB4
:1012A00009D0D945EFD1BDE8F88F3046FFF782FF6E
:1012B000BBF1000FF5D1BDE8F88F93071AD42024B5
:1012C000CB45B0D9B2683368511CB1609C54B26848
:1012D00073689A420BF1FF3B07D2BBF1000FA3D01A
:1012E000CB45F0D1A0E7BDE8F88F3046FFF762FFAD
:1012F000B268F2E7002D0CBF30242024E0E74FF065
:10130000010987E7BDE8F88FC4570000002900F005
:101310006F822DE9F04F064685B093460C460B7858
:101320000DE0B2683168501CB0608B54B2687368CD
:101330009A4280F0D3802378002B00F0BA800134E9
:10134000002B00F0B680252BEBD14FF00008234690
:1013500014F8012B2D2A00F0BB80302A00F0BB804E
:101360002B2A00F0AD802A2A00F0BC80A2F13005C3
:10137000E9B2092998BF013302D9A9E1A1F13005E9
:101380001C4613F8012BA2F1300005EB850109285A
:1013900002EB4101F2D92E2A00F0B080002701E0D3
:1013A00014F8012F02F0FB03682BF9D0253A532AD9
:1013B0007AD8DFE812F07A017900790079007900B3
:1013C0007900790079007900790079007900790055
:1013D0007900790079007900790079007900790045
:1013E0007900790079007900790079007900790035
:1013F0007900790079007900790079007900790025
:101400007900790079007900790079007900790014
:101410007900790079007900790079006A01790012
:1014200079007900790079007900790079007900F4
:1014300079005501FC007900790079007900FC0001
:1014400079007900790079007900790054007900F9
:101450007900CA007900BA00790079006A01DBF8E6
:101460000020131DCBF80030B368156831685A1C92
:10147000B2604FF03002CA54B3687268934280F091
:10148000A0813268581C7821B060D154B26873686A
:101490009A4280F09281002208230192294600930B
:1014A00010223046FFF7A2FE01342378002B7FF490
:1014B00046AF337B002B40F0058105B0BDE8F08FCF
:1014C000234614F8012B2D2A48F004087FF445AF79
:1014D00048F001083BE748F0020838E73046FFF7DC
:1014E00069FE28E7DBF80020111DCBF80010156815
:1014F0005A782E2A03F101047FF450AF6278A2F1EA
:101500003003092B04F101044FF000073FF64AAF06
:1015100007EB870702EB470714F8012FA2F130030E
:10152000092BA7F13007F3D93CE7DBF800301A1D8F
:10153000CBF800201968CDF804803B4600950A22BC
:101540003046FFF753FE0134AFE7DBF800301A1DD9
:10155000CBF8002018F0010FD3F8009040F0BB80CA
:10156000B9F1000F00F04781484602F070FA0746D3
:10157000BD4240F2F180002D00F0EE804FF02008D7
:1015800005E0BD4200F0E880002D00F0E580B36882
:101590003268591CB16002F80380B26873689A42DD
:1015A00005F1FF35EDD33046FFF704FEE9E7DBF840
:1015B00000301A1DCBF80020D3F8009089EAE973B7
:1015C000A3EBE973092B4FF0010A09DD8F4A82FB77
:1015D0000312DB17C3EBA203092B0AF1010AF5DCA6
:1015E000BA4538BFBA462DB3B9F1000F02DB18F087
:1015F000040F00D0013D18F0020F40F0F58018F004
:10160000010F17D1002D00F0FE80AA4538BF202120
:1016100010D2B2683368501CB0609954B2687368D5
:101620009A4205F1FF3580F0E880002D00F0EB8054
:10163000AA45EED1B9F1000FC0F2C88018F0040F2E
:101640007BD108F00303022B00F09A808DE8200183
:101650003B4649460A223046FFF7C8FD013424E7DD
:10166000DBF80020131DCBF80030B3683168127826
:10167000581CB060CA54B26873689A42FFF414AF41
:101680003046FFF797FD01340FE7DBF800301A1DF5
:10169000CBF800201968CDF804803B460095102255
:1016A0003046FFF7A3FD0134FFE6B3683268591CEA
:1016B000B1604FF02501D154B26873689A42DFD20D
:1016C0000134F2E6304605B0BDE8F04FFFF772BDD9
:1016D0001C4600255FE64F46A7EB090817F8013BBB
:1016E0008BB1B2683168501CB0608B54B2687368BB
:1016F0009A42F1D33046FFF75DFDA7EB090817F8D2
:10170000013B002BEDD145457FF6CEAE202705E00D
:1017100045453FF4C9AE002D3FF4C6AEB36832680C
:10172000591CB160D754B26873689A4205F1FF350D
:10173000EED33046FFF73EFDEAE7B2683368501C4F
:101740002B21B0609954B26873689A42FFF479AF64
:101750003046FFF72FFD74E709F1FF3919F8013F13
:10176000002B3FF4A1AEB2683168501CB0608B54BE
:10177000B26873689A42F1D33046FFF71BFDEDE77C
:10178000002F7FF463AF002D33D0AA45BFF45EAFC6
:10179000B2683368511CB1604FF030019954B2689F
:1017A00073689A4205F1FF3503D215B3AA45EFD10C
:1017B0004CE73046FFF7FEFCF7E73046FFF7FAFC50
:1017C00069E63046FFF7F6FCB3685AE6B26833685C
:1017D000501C2D21B0609954B26873689A42C9F1C7
:1017E0000009FFF42EAFB3E7002F3FF423AF06E765
:1017F000704700252AE74F46BAE630460391FFF7C7
:10180000D9FC039911E7002514E700BF67666666F7
:10181000FFF778BC2DE9F041B0F81080CF1CA8F19B
:10182000040847440646B7FBF8F7FFF787FC80B388
:10183000FFB200250123013F0446A0F806800660A0
:101840000571437128D0804609E06379AF4203F106
:1018500001036371C8F80000066080461CD0304662
:10186000FFF76CFC01350028EFD16679721E16D0A7
:101870002346013082421B68FBD81F684EB12146C7
:1018800000250C6801353846FFF77EFCAE42214644
:10189000F7D10020BDE8F0812046BDE8F08127683F
:1018A000EDE700BF04300121FFF7F4BBF8B50121DB
:1018B00004460430FFF7FCFBC0B200B1F8BD667906
:1018C000721E12D02346013082421B68FBD81F686B
:1018D000002EF3D0214600240D6801343846FFF76E
:1018E00053FCA6422946F7D1F8BD2768F2E700BFAE
:1018F0002DE9F843C78890F805E0154607FB0EFE72
:10190000EC18AEF1040E1A1DA6458846B2FBF7F698
:1019100038BFAEEB030507FB1621044616B1013EA6
:101920002468FCD17E1AAE4228BF2E469DB14FF0EE
:101930000009081DAD1B08EB09012044324602F0E6
:101940006BF8AF42B14424683E464FF0000128BF17
:101950002E46002DEDD1BDE8F88300BF2DE9F843F8
:10196000C78890F805E0154607FB0EFEEC18AEF1AF
:10197000040E1A1DA6458846B2FBF7F638BFAEEB3B
:10198000030507FB1621044616B1013E2468FCD16D
:101990007E1AAE4228BF2E469DB14FF00009043199
:1019A0002144AD1B324608EB090002F035F8AF4286
:1019B000B14424683E464FF0000128BF2E46002D5A
:1019C000EDD1BDE8F88300BF826800239360826890
:1019D0001361826853618268D36082685360826851
:1019E0001360704770B50A4A0A4B06784568047A56
:1019F000C06853F8213052F8211084B003908DF85C
:101A0000006001958DF808406846984704B070BDA5
:101A1000400800204408002070B50A4A0A4B0678A6
:101A200045688468C06853F8213052F8211084B0AA
:101A300003908DF8006001958DF80840684698473E
:101A400004B070BD4008002044080020F0B51A4BD7
:101A500006781A4D0C6991F81DC045F826400746D6
:101A6000174803F806C040F826200C4696460FCCCF
:101A700089B06D460FC594E80F0085E80F00049605
:101A8000BCF1000F0BD0BEF1000F0E4A694607F102
:101A9000040008BF002200F00FFE09B0F0BDBEF147
:101AA000000F094A694607F10C0008BF002200F048
:101AB000D3FB09B0F0BD00BF000B002040080020A0
:101AC00044080020E5190000191A0000014B1B68AA
:101AD000184700BF4808002038B50C4B984201D089
:101AE000002038BD00200D46FFF7B6FA084B1C79E0
:101AF00024B10020FFF7B8FA112038BD012220469A
:101B00001D601A71FFF7B0FA204638BD0020004072
:101B100048080020034B984203D1034B00221A606F
:101B20001A7170470020004048080020F0B55B4B58
:101B3000D3F824218DB0BAB10022C3F82421D3F800
:101B400024210592059AD3F804216AB9544A022146
:101B50009068C3F8080391609268C3F804230122D7
:101B60001A625A610DB0F0BD4C4C4D4DD4F80431A1
:101B7000002B2FD00023C4F8043105F10C070FCF40
:101B800007AED4F804E13F68CDF810E00FC695F831
:101B90002E30049A3760002B36D02B7B012B79D066
:101BA000D4F84C250892022B71D03C4BD3F84C252D
:101BB0003A4B09920022C3F86021D3F860110291D8
:101BC0000299C3F85C21D3F85C310393039B95F829
:101BD000302028E0C4F84831D4F848212B7B01920A
:101BE000019A002B3AD105F10C070FCF07AE0FC6B3
:101BF00095F830203B683360EAB92A4BC4F80022DC
:101C0000AA60C4F8083316E0C4F86031D4F8602143
:101C10000292029AC4F85C31D4F85C3195F8302015
:101C20000393039B3AB91D4B1E480021C3F80012D1
:101C3000A960C3F808031949D1F8C434C1F8C43401
:101C400099071DD501238DF818300AB985F82F2082
:101C50002B68696806A898470DB0F0BD4FF4007175
:101C600040F202220F4BC4F80012AA60C4F80833F5
:101C7000AB68C4F804330123A36023620DB0F0BD48
:101C800013F0040318BF02238DF81830DDE7D4F8F1
:101C90003C258DE7D4F83C35089386E700300040BA
:101CA0005008002002029C012DE9F84F0779DFF867
:101CB000FC80342404FB07F408EB040595F82D6040
:101CC00016B10820BDE8F88F8A468346354900687A
:101CD00099461646FFF700FF10B11120BDE8F88FB6
:101CE00048F80460A860C5F8049085F82F0085F8CE
:101CF00030009AF80D3085F83230DAF800304FF0C5
:101D0000A04203F5E07340F20C6142F82310DAF8C8
:101D1000043003F5E07342F82310DBF80030DAF802
:101D20000020DAF80410C3F80825C3F80C15DAF817
:101D30000820C3F8242526B3DBF800109AF80C30ED
:101D4000090B4AB2002A24DB02F1604202F561422B
:101D50005B01DBB282F80033DBF80020120B42F3A8
:101D6000C40323F0604323F0030303F1604303F54E
:101D7000614302F01F02012101FA02F2C3F880213F
:101D80001A60342303FB0783012283F82D20BDE86A
:101D9000F88F054A01F00F015B010A44DBB21376AC
:101DA000DAE700BF2D1B0000FCEC00E0500800202B
:101DB000037906490268342000FB03130220062140
:101DC00083F82D00C2F80015704700BF50080020AE
:101DD0000379034A342101FB032393F82F00704752
:101DE00050080020CB6803F06043B3F1005F01D0DE
:101DF000102070472DE9F047DFF894E290F8048056
:101E00000668A14BC6F80833342707FB08E788B0FB
:101E100097F82F3003F0FF0A33B1BB68C6F80433DC
:101E2000112008B0BDE8F08712F0140F0CBF012399
:101E3000002387F82F30894615460C46B9E80F0075
:101E400007F10C0CACE80F00C5F30013D9F8002023
:101E5000CCF8002087F830306378C6F88835C6F8AB
:101E600004A1D6F804310593059BC6F824A1D6F841
:101E700024310693069B15F0010318BF0123C6F811
:101E8000503515F0020318BF0123C6F840352378FA
:101E9000032B00F2F480DFE803F049690D022369A7
:101EA00003F06043B3F1005F00F0AF80102008B092
:101EB000BDE8F0876368E268C6F84425C6F848358F
:101EC000236903F06042B2F1005FEFD1342202FBDC
:101ED00008E2A068C6F8343540F202214FF484537A
:101EE000C6F83805C6F800320020916008234FF488
:101EF00082712A0704D42278032A1CBF0122F250DF
:101F0000342303FB08F30EEB03025EF80330002BCF
:101F100043D06B0744BF4FF400739360342303FB3B
:101F200008EEDEF80830C6F804337AE76368E26842
:101F3000C6F84425A906C6F848354FF0340303FB1C
:101F400008E34DD54FF48072C6F800224F499960DE
:101F50000022C6F84821D6F848310093009B4FF480
:101F6000A4710123336200200823C2E7E36861689B
:101F7000C6F8343534224FF4805302FB08E2C6F829
:101F8000381540F20220C6F800320121002390608B
:101F9000316218464FF48271ABE70124314402E00C
:101FA000D6F8242132BB0B68002BF9D0342303FB75
:101FB00008EED6F8C434C6F8C43400228EF82F20B8
:101FC000002B3FF42EAF13F0020F48F2012048F22D
:101FD000022208BF032013F0040F18BF104620E7A9
:101FE0004FF4007140F20222C6F800129A604FF4DA
:101FF0008271B6E7C6F82431D6F824310793079BDF
:1020000034624FF482717461C8E74FF48073C6F88C
:102010000032E3686268C6F844350023C6F84825F4
:10202000C6F85031D6F850210292029AC6F86031B3
:10203000D6F860210392039AC6F84831D6F84831A1
:1020400004930123049A3362B360D6F85031002B15
:10205000FBD00020C6F85001D6F85021019234235D
:102060002269A168019FC6F8442503FB08E3074ADB
:10207000C6F848159A604FF48271082339E708239F
:102080004FF48271072034E702029C010002040031
:102090005008002030B56E4AD2F8043399058BB051
:1020A0005BD5D2F82431002B57D00023C2F824315D
:1020B000D2F8243103934FF40171664B0398C2F8B0
:1020C000081393F8291009B90121516060490222CF
:1020D0008DF81820D1F88024C1F880249869D96837
:1020E00009920022089007919A6193E81200DA6140
:1020F00006A8A047564AD2F81C31C3B1554B186AFE
:102100005969884265D293F8280000F0FF0400283E
:102110005FD1C2F81C41D2F81C11029102999C684F
:10212000186A196A205C01311962C2F81C05484A14
:10213000D2F844317BB10021464BC2F84411D2F8A9
:10214000440193F829100090009809B10121116011
:102150009A69002A52D10BB030BD3D4AD2F80433FF
:102160005B07C7D5D2F80831002BC3D0394B99692A
:10217000002952D00021C2F80811D2F808110491A8
:102180000499D868596AD2F8182542545A6A99694C
:1021900001325A625A6A8A42ACD1DA69002A45D1C0
:1021A00093F8292012B92A4A01215160284A4FF494
:1021B0000171C2F80813596ADA68089100240120F5
:1021C00007928DF8180093E806009C6106A89047D6
:1021D00090E71F4A0020C2F81C01D2F81C2101928E
:1021E000019A0029A3D09A688DF8180008915861C7
:1021F000079206A893E80600904798E70022586ADD
:10220000D9689A610122089007918DF8182006A8D4
:1022100093E8060090470BB030BDC2F80811D2F821
:10222000080105900598D2F81825B3E7DD685C6AC7
:1022300018699A6101210022D860DA615A628DF82A
:1022400018100795089493E8060006A8904751E7F0
:1022500000200040840800202DE9F041604E0579FF
:102260002C2303FB056382B093F82A301BB10820AE
:1022700002B0BDE8F0810F4604465A490068904616
:10228000FFF72AFC18B1112002B0BDE8F0813A68CE
:10229000511C0BD04FF0A04101239340C1F80835E9
:1022A0003B6803F5E073032241F823207B685A1C46
:1022B00006D003F5E0734FF0A042002142F823104E
:1022C0002368BA69C3F82425397D7B7D22680B43D6
:1022D000C2F86C3597E806002368C3F81425C3F8E4
:1022E0000C153B7D012B51D02C2303FB05F3F21879
:1022F000C2F804803A69F250B8F1000F35D0236873
:102300003A7F394F0021C3F81C11D3F81C310093D8
:102310002368DDF800E0C3F84411D3F844112368C2
:1023200001910199C3F804732168090B4BB2002B8A
:102330004EDB03F1604303F561435201D2B283F8EF
:1023400000232268120B42F3C40323F0604323F0FE
:10235000030303F1604303F5614302F01F0201210F
:1023600001FA02F2C3F880211A602C23246803FBCF
:102370000563002204250121C4F8005583F82A10C2
:102380009A61DA6183F829205A6171E7BB68591CA8
:1023900006D003F5E0734FF0A042002142F823106D
:1023A000FB685A1C0DD001224FF0A04102FA03F342
:1023B000C1F80835FB6803F5E073032241F82320D8
:1023C000FB682268B968C2F80835C2F810158BE7B7
:1023D000064B01F00F0152010B44D2B21A76B0E75E
:1023E000840800209520000080000200FCEC00E042
:1023F000F8B52F4D047902682C2303FB0453002108
:102400005B68C2F8001583B103682A4AC3F8082341
:102410000368294E1B0B5AB25209203203F01F03E6
:10242000012101FA03F346F8223003684FF0FF322E
:10243000D3F80CE5D3F81475D3F80815D3F8106564
:10244000C3F81425C3F80C2503689645C3F808257E
:10245000C3F8102506D00EF5E07E4FF0A04302220F
:1024600043F82E207B1C06D007F5E0774FF0A04301
:10247000022243F82720721C06D006F5E0764FF0C2
:10248000A043022243F826204B1C06D001F5E07140
:102490004FF0A043022243F821200068FFF73AFBE7
:1024A0002C2303FB0454002384F82A306360F8BD16
:1024B000840800208402020000E100E0F0B5304E04
:1024C00005792C2303FB056385B05C6914B11120E9
:1024D00005B0F0BD1C62996083F828405A6102681B
:1024E000C2F81C41D2F81C11026802910121029F1E
:1024F00091600268D3F808E0C2F81C41D2F81C11C0
:1025000001910199D3F820C0196A5F681EF80CC0C8
:1025100001311962C2F81CC517B1204605B0F0BDE3
:102520001A6A5C690168944203D819E093F828207C
:10253000F2B9D1F81C21002AF8D0C1F81C71D1F8E9
:102540001C210392039AD3F820C01A6A1EF80CC00B
:1025500001321A62C1F81CC51A6AA242E9D30168A5
:10256000D1F81C31002BFBD00123CB60002000E010
:102570000F202C2303FB056300225A61A8E700BF4C
:102580008408002070B54A4BD3F8242188B0002A73
:1025900055D1D3F81011F1B9454BD3F8442152B1BC
:1025A0000020444AC3F84401D3F84441916901949E
:1025B000019C002960D13E4BD3F820214AB1002173
:1025C0003C4AC3F82011D3F8204150690094009C84
:1025D00030BB08B070BDC3F81021D3F810113548D6
:1025E000039103998169D3F83C458C42D4D1C569E4
:1025F000002D50D0D3F80012C668856121F020016B
:10260000C3F800120369C26101220168C3608DF83A
:102610001840436805968DF8102004A89847BBE73A
:10262000D3F84C0593688DF818008DF8101051619F
:10263000059304A892E80A00984708B070BD0021ED
:10264000C3F82411D3F82421029202228DF810201D
:10265000029AD3F88004174AC3F880040790D3F88D
:102660003C05D3688DF818009161D161059311681C
:10267000536804A898478FE7D3F83C458DF8184075
:10268000D368906101240593116853688DF8104058
:1026900004A898478FE7C368016885610122059304
:1026A0008DF8184043688DF8102004A8984773E708
:1026B00000200040B00800202DE9F0430479704E5E
:1026C000E7003B1906EB830385B093F820301BB17C
:1026D000082005B0BDE8F0838946054669490068D1
:1026E0009046FFF7F9F918B1112005B0BDE8F08365
:1026F000D9F80020511C0CD04FF0A0410123934089
:10270000C1F80835D9F8003003F5E073032241F829
:102710002320D9F804305A1C06D003F5E0734FF09B
:10272000A042002142F823102B68D9F81820C3F8E2
:10273000242599F8141099F815202B680A43C3F83A
:102740006C252A68D9F80030D9F80410C2F80C3585
:10275000C2F8141599F81430012B61D03A1992007F
:10276000B318C3F80480D9F81030B350B8F1000F93
:1027700047D0296899F81C20DFF810E10023C1F840
:102780001031D1F8101100912968DDF800C0C1F8AE
:102790002031D1F8201101912968DDF804C0C1F879
:1027A0002431D1F8241102912968DDF808C0C1F85C
:1027B0004431D1F844112B6803910399C3F804E321
:1027C0002968090B4BB2002B51DB03F1604303F581
:1027D00061435201D2B283F800232A68120B42F3FC
:1027E000C40323F0604323F0030303F1604303F5C4
:1027F000614302F01F02012101FA02F2C3F88021B5
:102800001A603C442A6806EB840400230125082151
:1028100084F82050C2F80015A361E361636158E7B2
:10282000D9F80830591C06D003F5E0734FF0A042E8
:10283000002142F82310D9F80C305A1C0FD0012285
:102840004FF0A04102FA03F3C1F80835D9F80C3073
:1028500003F5E073032241F82320D9F80C302A68ED
:10286000D9F80810C2F80835C2F8101576E7064BFB
:1028700001F00F0152010B44D2B21A76ADE700BF4E
:10288000B008002085250000FCEC00E010030200E9
:10289000F8B506792F4C0268F500AB1904EB8303F9
:1028A00000215B68C2F8001583B103682A4AC3F8A7
:1028B00008230368294F1B0B5AB25209203203F038
:1028C0001F03012101FA03F347F8223003684FF098
:1028D000FF32D3F80CC5D3F814E5D3F80815D3F8B4
:1028E0001075C3F80C25C3F8142503689445C3F884
:1028F0000825C3F8102506D00CF5E07C4FF0A04366
:10290000022243F82C20BEF1FF3F06D00EF5E07EF8
:102910004FF0A043022243F82E207A1C06D007F580
:10292000E0774FF0A043022243F827204B1C06D04B
:1029300001F5E0714FF0A043022243F82120354415
:1029400004EB85040068FFF7E5F8002384F82030E5
:102950006360F8BDB00800201003020000E100E051
:1029600001F06043B3F1005F01D010207047F0B573
:102970000579214EEF007C1906EB840483B063696E
:1029800013B1112003B0F0BDA1606261D0F800E086
:10299000CEF82031DEF820C1D0F800E0CDF804C038
:1029A000DDF804C0CEF85831DEF858C1D0F800E0A8
:1029B000CDF800C0DDF800C0CEF84415CEF84825AB
:1029C00002680121916062680AB11846DAE703687B
:1029D00000E079B9D3F82021D3F85811002AF8D0B3
:1029E000002914BF0F2000207B1906EB830300226F
:1029F0005A61C7E70F20F7E7B0080020002170B543
:102A00000846FDF74BFE08B1FEF7DEFAFDF7BEFD06
:102A1000124C134B1349E41AE408240444F0030451
:102A20002046FDF7CBFFFDF797FE05460028FAD1BB
:102A300000F01CFF00F0F4FA0B490646024620465F
:102A4000FEF72EF8712E01D0284670BD00F0F8FA7E
:102A500020BFFDF781FE0028FBD1F9E7DC5A00001A
:102A6000BC5A0000F0570000105800002DE9F84F44
:102A70004400DFF87CA126180AEBC6068146D6F88A
:102A80002C80B8F1010F8B46174661D038D3B8F1CE
:102A9000020F30D100F1010909EB4909756A4FEACB
:102AA000C9094FF000081CE0326A641BBC420AEB03
:102AB00009012346A2EB050428BF3B469C42486817
:102AC00028BF1C4628445946224600F0A5FF336A19
:102AD00025449D4208BF00253F1BA044A3447562C6
:102AE0000BD0B36AAB4203F1FF34DDD8326A134432
:102AF000013B5C1BDAE74FF000084046BDE8F88F69
:102B0000B36A756AAB429CBF326A9B18013B5B1B80
:102B10009F42F2D804440AEBC40400F10109266A7A
:102B2000761B09EB4909B7420AEBC90A56D3DAF812
:102B3000040032462844BD1B00F06EFFDAF80400A2
:102B40000BEB06012A4600F067FFB8466562D4E742
:102B5000B36A756AAB4226D903F1FF38366AA8EB2F
:102B60000508B84528BFB846761BB04523D309F100
:102B7000010707EB47070AEBC707A144786832460D
:102B8000594628440AEBC90AA8EB060500F044FFA1
:102B900078680BEB06012A4600F03EFFCAF8245085
:102BA0004046BDE8F88F366A03EB060808F1FF38A7
:102BB000A8EB0508D5E709F1010303EB43030AEB92
:102BC000C303A14458680AEBC90A2844594642463F
:102BD000454400F021FFCAF824508EE7DAF80400DB
:102BE0003A4628443D4400F017FFB846656284E742
:102BF000040B0020F8B5114C114B124AE3614FF45D
:102C000000750023104FA36210266362E362A36580
:102C10006365E3650D492562A2610225A264E01D9A
:102C2000E76426652561656100F009FF20460849D3
:102C300000F005FF2023A371F8BD00BF040B0020A6
:102C4000E408002038580000D40800204458000050
:102C500048580000F0B4B44B1A78062A20D0B34B81
:102C60001B68062B00F08A80B14AD2F8883043F402
:102C70007003C2F88830BFF34F8FBFF36F8F4FF0F0
:102C80001023D3F80022002AC0F28A81D3F804323C
:102C9000002BC0F28581A74BA74A1A60F0BC704791
:102CA00004331B681807DAD1A44B1B6803F0F00249
:102CB000302A00F0658103F0E003402B00F06081D2
:102CC0009E4B1B6803F0F003302B00F01E819B4BE2
:102CD0001B6803F0F002302A00F0078103F0E003E4
:102CE000402B00F00281954B1B6803F0F003302B62
:102CF00000F0EB80914B1B6803F0F002302A00F0EB
:102D0000D08003F0E003402B00F0CB808B4B1B689E
:102D100003F0F003302B00F0B680884B1B6803F003
:102D2000F003302B00F09880844B1B6803F0F00315
:102D3000502B3FD0814B1B6803F0F002302A28D083
:102D400003F0E003402B24D07C4B1B6803F0F0021F
:102D5000302A03D003F0E003402B80D14FF08043B2
:102D6000D3F80024D2077FF57AAF6FF00102C3F8E1
:102D700000246E4B1B68062B7FF476AF704B1B68EC
:102D8000062B7FF471AF6F4A136843F480631360BE
:102D90006AE76D4B6D4A1B6803F04F031360624B8B
:102DA0001B78062B7FF45BAF694B1B6818077FF419
:102DB00056AFC9E74FF08052664BD2F80414C3F8FF
:102DC0002015D2F80814C3F82415D2F80C14C3F84F
:102DD0002815D2F81014C3F82C15D2F81414C3F81F
:102DE0003015D2F81814C3F83415D2F81C14C3F8EF
:102DF0004015D2F82014C3F84415D2F82414C3F8AF
:102E00004815D2F82814C3F84C15D2F82C14C3F87E
:102E10005015D2F83014C3F85415D2F83414C3F84E
:102E20006015D2F83814C3F86415D2F83C14C3F80E
:102E30006815D2F840143C48C3F86C15D2F8441415
:102E40000278C3F87015062A7FF409AF404B1B685F
:102E50001C077FF404AF6DE73F4E404C4049414BA7
:102E60000527012500203F223760256008601A6091
:102E70002D4B1B78062B7FF4F2AE354B1B681D07DC
:102E80007FF4EDAE50E7284B374A1B780321062B21
:102E900011607FF4E4AE2E4B1B681E077FF4DFAE9B
:102EA0003BE74FF080430022C3F80C21C3F8102108
:102EB000C3F838251C4B1B78062B7FF470AF244BCE
:102EC0001B681F077FF4CBAE20E72849164ACB6862
:102ED000127823F08073062ACB607FF4C0AE1C4BBF
:102EE0001B681B077FF4BBAE04E7214B0E4A1B682F
:102EF00012782049C3F34233062A0B60B8D1144B31
:102F00001B681A077FF4ABAEEDE6074B1A4A1B7835
:102F10001A491160062B7FF4A2AE0D4B1B681907EE
:102F20007FF49DAED3E600BFE00F00F0300100104B
:102F300000ED00E0240000200090D003E80F00F036
:102F4000340100103C17004058020010E40E00400D
:102F5000E40F00F000C000401056004088560040CA
:102F60001856004014560040A0050040F0ED00E067
:102F7000440200103C05004074C007400DF0ADBA9B
:102F8000204B214A1B6812782049C3F30423062AE8
:102F90000B608FD11E4B1B6819073FF491AE5EE6A4
:102FA0001C4B0122C3F80425D3F80024002AFBD0CF
:102FB0004FF0102315221749C3F80022D1F800342E
:102FC000002BFBD04FF010221521124BC2F8041237
:102FD000D3F80024002AFBD000220E49C3F80425B0
:102FE000D1F80034002BFBD0BFF34F8F0A490B4BB5
:102FF000CA6802F4E0621343CB60BFF34F8F00BF97
:10300000FDE700BF24030010E00F00F04035014051
:10301000E40F00F000E0014000ED00E00400FA05DC
:1030200000B583B001230DF107027521682000F07F
:1030300061FC00F089FC9DF8070003B05DF804FB1B
:103040002DE9F04F2DED0A8B002591B02A4619216C
:103050006820ADF834500C950E95ADF83C5000F05A
:103060001FFC02221A21682000F01AFC2A461B21AC
:10307000682000F015FC02221D21682000F010FCE1
:103080002A461C21682000F00BFC00F05DFC2F4656
:10309000A9462E46A846AA46C82406230CAA3B21C8
:1030A000682000F027FC00F04FFC9DF830C09DF830
:1030B00032209DF831109DF833009DF834309DF892
:1030C00035E041EA0C2140EA02204EEA032E0CAA28
:1030D00006230AFA81FA08FA80F84321682006FAE2
:1030E0008EF600F007FC00F02FFC9DF830C09DF834
:1030F00031109DF832E09DF833209DF834009DF8A2
:10310000353041EA0C2142EA0E2243EA0023013C19
:1031100009FA81F907FA82F705FA83F5BDD1EC4B7C
:103120004FEAEA7183FB092083FB0A2A4FEAE97917
:10313000C1EBAA11C9EBA01083FB084207914FEA2B
:10314000E87883FB07410490FF1783FB0640F617DE
:10315000C8EBA21283FB0543C7EBA111ED17C6EB29
:10316000A010C5EBA31308920991E0221C21029044
:103170006820039300F094FBE0221B21682000F0FC
:103180008FFB00F0E1FBD34B192543F001084FF40E
:103190007A40C047013DFAD12F46AA462E46AB469B
:1031A000A946C82406230CAA3B21682000F0A2FBF4
:1031B00000F0CAFB9DF830C09DF832209DF8311018
:1031C0009DF833009DF834309DF835E041EA0C213C
:1031D00040EA02204EEA032E0CAA062309FA81F9DE
:1031E0000BFA80FB4321682006FA8EF600F082FB82
:1031F00000F0AAFB9DF830C09DF831109DF832E038
:103200009DF833209DF834009DF8353041EA0C21BB
:1032100042EA0E2243EA0023013C0AFA81FA07FA45
:1032200082F705FA83F5BDD1DFF8A4E28EFB0A3000
:103230004FEAEA7A8EFB0B324FEAE971CAEBA01A29
:103240008EFB09398EFB06C04FEAEB73F617C3EB12
:10325000A21BC1EBA919C6EBA0138EFB07C18EFB05
:1032600005CEFF17ED17224605936820C5EBAE1378
:10327000C7EBA1171C21069300F012FB22461B216D
:10328000682000F00DFB00F05FFB19244FF47A403A
:10329000C047013CFAD10EAA03230D21682000F09B
:1032A00029FB214603230DF13B02682000F022FB9D
:1032B00000F04AFB9DF83800874E07EE900AF8EEC2
:1032C000677A17EE900A01F04FFE0022834B01F05F
:1032D000EBFC9FED7B0B41EC110B00F0D1FB9DF85B
:1032E0003900B0EE40CAF0EE60CA07EE900AF8EE80
:1032F000677A17EE900A01F037FE0022774B01F053
:10330000D3FC9FED6F0B41EC110B00F0B9FB9DF866
:103310003A00B0EE40AAF0EE60AA07EE900AF8EE8E
:10332000677A17EE900A01F01FFE00226B4B01F046
:10333000BBFC9FED630B41EC110B00F0A1FB9DF872
:103340003B00B0EE408AF0EE608A07EE900AF8EE9D
:10335000677A17EE900A01F007FE00225F4B01F03A
:10336000A3FC9FED570B41EC110B00F089FB9DF87E
:103370003C00B0EE40BAF0EE60BA07EE900AF8EE0C
:10338000677A17EE900A01F0EFFD0022534B01F02F
:103390008BFC9FED4B0B41EC110B00F071FB9DF88A
:1033A0003D00B0EE409AF0EE609A07EE900AF8EE1B
:1033B000677A17EE900A01F0D7FD0022474B01F023
:1033C00073FC9FED3F0B41EC110B00F059FB079B89
:1033D000A9EB030007EE900AF8EEE77A8DED0A0BF1
:1033E00017EE900A01F0C0FD00223D4B01F010FEE7
:1033F00035A3D3E9002304460D4651EC1C0B01F024
:1034000007FE02F0B5F801F0AFFD02460B4620467C
:10341000294601F027FF0022314B01F045FC02F064
:10342000A7F8049B0CEE100AAAEB030007EE900A23
:10343000F8EEE77A86ED00CA17EE900A01F094FDE7
:103440000022274B01F0E4FD1FA3D3E9002304462B
:103450000D4651EC1B0B01F0DBFD02F089F801F089
:1034600083FD02460B462046294601F0FBFE002262
:103470001B4B01F019FC02F07BF8089BF060ABEBF2
:10348000030B07EE90BAF8EEE77A17EE900A01F018
:103490006BFD0022124B01F0BBFD0BA3D3E900230F
:1034A00004460D4651EC1A0B01F0B2FD02F060F833
:1034B00001F05AFD02460B4614E000BFAFF3008056
:1034C000295C8FC2F528F03F000000000078A4407E
:1034D0001F85EB5150580000E40A00200000F03F27
:1034E000000059402046294601F0BCFE0022D04B86
:1034F00001F0DAFB02F03CF8099B7060FF1A07EE5E
:10350000907AF8EEE77A17EE900A01F02DFD00228E
:10351000C74B01F07DFDC4A3D3E9002304460D464B
:1035200051EC190B01F074FD02F022F801F01CFDC2
:1035300002460B462046294601F094FE0022BC4B71
:1035400001F0B2FB02F014F8029A059B30619B1A5D
:1035500007EE903AF8EEE77A17EE900A01F004FDD4
:103560000022B34B01F054FDAFA3D3E9002304467E
:103570000D4651EC180B01F04BFD01F0F9FF01F085
:10358000F3FC02460B462046294601F06BFE002262
:10359000A74B01F089FB01F0EBFF069B039AB0609B
:1035A0009D1A07EE905AF8EEE77A17EE900A01F0AE
:1035B000DBFC00229E4B01F02BFD9DED0A0B9AA334
:1035C000D3E9002304460D4651EC100B01F020FD19
:1035D00001F0CEFF01F0C8FC02460B46204629460A
:1035E00001F040FE924B934C002201F05DFB01F094
:1035F000BFFF914B70611C1BE408B5EEC0CA2404E8
:10360000F1EE10FA44F0050400F1D3808B4ADFEDAF
:103610008C6A8C49BDEECC7AB5EEC0CAF8EEC77A9A
:10362000F1EE10FACCBF7CEE677A77EECC7A17EE2B
:10363000103A67EEA67A2046FDEEE77ACDED007AE5
:10364000FDF7A0FAD6ED017AF5EEC07AF1EE10FAA8
:1036500000F1DF80794A9FED7A6A7B49FDEEE76AE7
:10366000F5EEC07AB8EEE67AF1EE10FACCBF77EE5E
:10367000C77A77EE677A16EE903A67EE867A20463A
:10368000FDEEE77ACDED007AFDF77CFAD6ED027A11
:10369000F5EEC07AF1EE10FA00F1B180674A9FEDC5
:1036A000686A6849FDEEE76AF5EEC07AB8EEE67A38
:1036B000F1EE10FACCBF77EEC77A77EE677A16EEA6
:1036C000903A67EE867A2046FDEEE77ACDED007AF5
:1036D000FDF758FAD6ED037AF5EEC07AF1EE10FA5E
:1036E00000F18380554A9FED566A5849FDEEE76A1E
:1036F000F5EEC07AB8EEE67AF1EE10FACCBF77EECE
:10370000C77A77EE677A16EE903A67EE867A2046A9
:10371000FDEEE77ACDED007AFDF734FAD6ED047AC6
:10372000F5EEC07AF1EE10FA56D4444A9FED446AA1
:103730004749FDEEE76AF5EEC07AB8EEE67AF1EEBB
:1037400010FACCBF77EEC77A77EE677A16EE903A2A
:1037500067EE867A2046FDEEE77ACDED007AFDF73A
:1037600011FAD6ED057AF5EEC07AF1EE10FA2AD408
:10377000324A9FED336A3749FDEEE76AF5EEC07ACB
:10378000B8EEE67AF1EE10FACCBF77EEC77A77EEB4
:10379000677A204667EE867A16EE903AFDEEE77A73
:1037A000CDED007AFDF7EEF911B0BDEC0A8BBDE866
:1037B000F08FFFEE007AB4EEE7CAF1EE10FA7FF771
:1037C00025AF254A23E7BFEE007AF4EEC77AF1EE83
:1037D00010FACDDD204ACCE7BFEE007AF4EEC77ACE
:1037E000F1EE10FAA1DD1C4AA0E7BFEE007AF4EE7C
:1037F000C77AF1EE10FA7FF775AF174A73E7BFEE9D
:10380000007AF4EEC77AF1EE10FA7FF747AF124A6A
:1038100045E7BFEE007AF4EEC77AF1EE10FA7FF7D3
:1038200019AF0D4A17E700BF000000000078A44060
:1038300000005940BC5A0000DC5A0000DC57000070
:103840000000C8425C58000098580000D45800009E
:103850000C590000445900005858000003780BB977
:10386000014A1370704700BFFF0A0020094B10B5D2
:103870000FCB84B08DE80F0069460023064A074845
:10388000FEF712FA08B1FDF79FFB0448FEF790FA25
:1038900004B010BD7C5900005D3800008C59000058
:1038A00030B5114B114C197087B0002102250191E0
:1038B00003918DF8050005915A70049302952378C1
:1038C000002BFCD10A4D2846FEF782FA0028FAD1D7
:1038D0000246012301A906482370FEF783FA08B1C6
:1038E000FDF772FB07B030BDFC0A0020FF0A002084
:1038F0008C59000070B586B0104D8DF80500022679
:1039000001200F4C03930592297004958DF80460F3
:1039100002902378002BFCD10A4D2846FEF758FA76
:103920000028FAD10246012301A906482370FEF7B8
:1039300059FA08B1FDF748FB06B070BDFE0A002039
:10394000FF0A00208C59000010B5054A1378002B9F
:10395000FCD1044C2046FEF73BFA0028FAD110BDFA
:10396000FF0A00208C59000008B5074B044613B12C
:103970000021AFF30080054B1868836A03B19847B4
:10398000204600F079F800BF0000000094590000C4
:1039900070B50D4E0D4CA41BA4100025A54209D1F5
:1039A0000B4E0C4C01F03AFEA41BA4100025A542BE
:1039B00005D170BD56F8253098470135EEE756F829
:1039C000253098470135F2E7FC010020FC0100207A
:1039D000FC01002000020020044B054A1B681B6A02
:1039E000002B08BF1346D3F8EC00704728000020D6
:1039F0008C00002082B001B901A942B14BB113780B
:103A00000B601278101C18BF012002B070471046DE
:103A1000FBE76FF00100F8E710B5431E0A4491423E
:103A200000D110BD11F8014B03F8014FF7E7024434
:103A30000346934200D1704703F8011BF9E70346A0
:103A400011F8012B03F8012B002AF9D17047034626
:103A500013F8012B002AFBD1181A0138704749B11D
:103A6000FF2A85BF8A2303600A704FF0FF3098BF9A
:103A70000120704708467047FEE700BF00000000C5
:103A80002DE9F04F2DED028BDFF80CA38BB057EC36
:103A9000106B55EC114B00F083F99AF90080B0EEF1
:103AA000408AF0EE608AB8F1FF3F34D022462B46C0
:103AB0002046294601F046FD834660BB32463B4620
:103AC0003046394601F03EFD8146002840F09F8097
:103AD000304639460022002301F002FD20B30022C7
:103AE00000232046294601F0FBFC8346002867D0CE
:103AF0009FED9F7B0122A44BCDF820900092CDE951
:103B00000267CDE904458DED067B0193B8F1000F06
:103B100049D09FED998BB0EE480AF0EE680A0BB0E1
:103B2000BDEC028BBDE8F08FB0EE480AF0EE680AFB
:103B300000F07AFF8046002800F084804FF00008F3
:103B40004FF0000951EC180B42464B4601F0C8FCFF
:103B50000028E0D047EC106B00F066FF0028DAD0B8
:103B600045EC104B00F060FF0028D4D09AF90030EB
:103B7000854A019204210022022BCDE90267CDE99A
:103B80000445CDE906890091089203D0684600F00B
:103B900053FF60B901F03CFD2223036007E09FED75
:103BA000747B8DED067B684600F046FF50B3089BA2
:103BB0001BB101F02DFD089B03609DED068BAAE76C
:103BC00045EC104B00F030FF0028A4D00022002369
:103BD0002046294601F08EFC00289CD06A4A9AF9BA
:103BE0000030CDF820B00121CDE90267CDE90445D0
:103BF0008DE80600002BD2D064490020022BCDE9CD
:103C00000601D0D101F004FD21230360CFE700229B
:103C100000232046294601F063FC00283FF47BAFD7
:103C20009FED558B584BCDF820B00122B8F1020F13
:103C3000CDE90267CDE904458DED068B8DE80C00DA
:103C4000B1D168E747EC106B00F0EEFE00283FF4BE
:103C500075AF45EC104B00F0E7FE00283FF46EAF67
:103C600053EC182B18EE100A194601F06BFC0028D3
:103C700061D103239AF900800093434B0890CDE96A
:103C80000267CDE904450193B8F1000F2DD1DFF8AB
:103C90000C914FF060480022002330463946CDE9B0
:103CA000068901F027FC00283FF470AF0022384B52
:103CB0002046294601F0ACF904460D4645EC104B70
:103CC00000F0C6FE204653EC102B294601F008FCFC
:103CD00070BB304B9AF900804FF06042CDE906236B
:103CE000B8F1020F7FF452AF54E79FED257B00221D
:103CF0000023304639468DED067B01F0FBFB0028A2
:103D0000EED00022224B2046294601F081F90446DC
:103D10000D4645EC104B00F09BFE204653EC102B5B
:103D2000294601F0DDFB18B9184B0022CDE9062326
:103D30009AF90080D4E7144B9AF90090CDF82080CE
:103D40000122CDE90267CDE904458DE80C00B9F107
:103D5000000F3FF424AF002200231046194601F063
:103D600081FAB9F1020FCDE906013FF44BAF1AE732
:103D70000000000000000000000000000000F03F14
:103D8000000000000000F07FA45A00000000F0FFD7
:103D90000000E03FFFFFEFC7F8010020FFFFEF4703
:103DA0002DE9F04F51EC110B21F0004858EA0004C6
:103DB00093B03ED053EC102B714E23F00044B4422C
:103DC00010EE10AA1D462DDC894611EE10EA28D00F
:103DD000B04527DC6A4EB04500F08380002D1646C2
:103DE0001F46CDE90001C0F281804FF0000BBEF10B
:103DF000000F2FD1624B984500F09580614B98459C
:103E000068D0B9F1804F00F0D1835F4B994521D143
:103E1000002D1FDB47EC106B13B0BDE8F04F00F036
:103E20002FBD6AB104F1404404F5801454EA0A033A
:103E300008D15449002041EC100B13B0BDE8F08FBD
:103E4000A045C7DD514813B0BDE8F04F00F0F8BD04
:103E50004FF0000B47EC106B00F0DEFD51EC100B47
:103E6000BAF1000F1AD124B1464B25F040429A42D4
:103E700014D1B9F1000FC0F2D383002DDBDA04F1C5
:103E8000404404F5801454EA0B0300F0AF84BBF106
:103E9000010FD0D101F100431946CCE7ED0F05F138
:103EA000FF3A5BEA0A0353D0394B984576DD03F1BC
:103EB0000473984540F30684364B9C4253DDB9F1B8
:103EC000000F53DD2CA3D3E900231046194601F05F
:103ED0009FF8B0E7B9F1000FC0F25A843046394676
:103EE000A9E7BEF1000F3FF479AF9BE72A4B984555
:103EF0002BDCA3F1547398457FF777AF4FEA285333
:103F0000A3F2FF33142B40F35984C3F134032EFA88
:103F100003F202FA03F39E457FF467AF02F0010259
:103F2000C2F1020B63E704F1404303F5801353EA47
:103F30000A033FF47EAF174B9C4240F33E83B9F136
:103F4000000F13DBDDE9000175E74FF0020B4EE7D0
:103F500032463B461046194600F0A6FE02460B4686
:103F600001F080F967E7B9F1000FABDB0020002119
:103F700061E700BFAFF300809C7500883CE4377EAA
:103F80000000F07F0000F03F0000E03FDC57000041
:103F90000000E041FFFFEF3FFFFF3F43B4F5801F0C
:103FA0004FF0000205DAD64B01F032F86FF0340220
:103FB0000C462315D34EC4F31304A3F2FF3313446A
:103FC00044F07F55B4421A460D9345F4401540F332
:103FD0002E83CD4B9C4240F30D849FEDB37B8DED42
:103FE000087B8DED0E7B9FEDB27B13468DED067B3E
:103FF00001330D93A5F580154FF00008DDE9062388
:104000002946CDE90A0100F04FFEDDE90623064608
:104010000F46DDE90A0100F049FE02460B4600208A
:10402000BA4901F01FF903460C46CDE910340246A7
:104030000B463046394600F0EBFF6B1043F000535F
:1040400003F5002303EB08050A4600230146CDE9EA
:1040500002120293DDE902890024CDE904122B4605
:1040600022464046494600F0D3FF02460B46304602
:10407000394600F019FEDDE9062306460F462046C4
:10408000294600F011FE02460B46DDE90A0100F068
:104090000BFE42464B4600F0BBFF02460B46304645
:1040A000394600F001FEDDE9102300F0B1FFDDE943
:1040B0000445CDE9060122462B462046294600F05C
:1040C000A7FF7DA3D3E9002304460D4600F0A0FF1F
:1040D0007BA3D3E9002300F0E9FD22462B4600F044
:1040E00097FF79A3D3E9002300F0E0FD22462B4699
:1040F00000F08EFF76A3D3E9002300F0D7FD22461F
:104100002B4600F085FF74A3D3E9002300F0CEFD19
:1041100022462B4600F07CFF71A3D3E9002300F078
:10412000C5FD224606460F462B462046294600F08E
:104130006FFF02460B463046394600F069FF4246A3
:1041400004460D464B46DDE9040100F0AFFDDDE914
:10415000062300F05DFF22462B4600F0A7FD4246F5
:1041600006460F464B464046494600F051FF0022A6
:10417000674BCDE90A0100F099FD32463B4600F05D
:1041800095FD02980D46044622462B464046494678
:1041900000F03EFF0022804689465D4B20462946BE
:1041A00000F082FDDDE90A2300F07EFD02460B46A9
:1041B0003046394600F078FDDDE9042300F028FFA1
:1041C000224606460F462B46DDE9060100F020FF99
:1041D00002460B463046394600F068FD06460F465B
:1041E00002460B4640464946CDE9048900F05EFD93
:1041F00002983DA3D3E9002304460D4600F008FFD2
:10420000DDE90423804689462046294600F04CFD1E
:1042100002460B463046394600F046FD34A3D3E94A
:10422000002300F0F5FE34A3D3E9002306460F4631
:104230002046294600F0ECFE02460B463046394641
:1042400000F034FDDDE90E2300F030FD06460D9848
:104250000F4600F077FE324604460D463B46404688
:10426000494600F023FDDDE9082300F01FFD22464A
:104270002B4600F01BFD029822462B46CDE9020199
:1042800000F012FDDDE9082300F00EFD42464B462A
:1042900000F00AFD02460B463046394600F004FDA8
:1042A0008046894636E000BF0000000000000000A4
:1042B000000000000000F03FEF4E454A287ECA3F54
:1042C00065DBC9934A86CD3F01411DA96074D13F8A
:1042D0004D268F515555D53FFFAB6FDBB66DDB3F9C
:1042E000033333333333E33F000000E009C7EE3FCD
:1042F000FD033ADC09C7EE3FF5015B14E02F3EBE3B
:10430000000040438E98030079B60B000000F03F98
:10431000000008400BF1FF3353EA0A0300F07B81F1
:104320009FEDC97B8DED067BDDE900AB53465C4616
:10433000CDE9003400230093DDE9004550462246D4
:104340002B46594600F0B0FCDDE9022300F060FE88
:10435000524606460F465B464046494600F058FE28
:1043600002460B463046394600F0A0FC2246804605
:1043700089462B46DDE90201CDE9048900F048FEBB
:104380000B46024606460F464046494600F08EFC64
:10439000C74B994204460D468A4640F3188101F105
:1043A0003F4303F5E003034340F0FA81A8A3D3E9B8
:1043B0000023DDE9040100F079FC3246804689469D
:1043C0003B462046294600F06FFC02460B4640461D
:1043D000494601F0ADF8002840F0E281A8464FEAD6
:1043E00028534FF48012A3F2FE3342FA03F35344EE
:1043F000C3F30A52AF4DA2F2FF321541C3F31304C7
:1044000023EA05010020C2F1140B44F48014BAF130
:10441000000F02460B4644FA0BFB30463946B8BF44
:10442000CBF1000B00F040FC02460B4606460F465F
:10443000DDE9040100F03AFC4FEA0B5A0D46002476
:1044400085A3D3E900232046294600F0E1FD32464A
:10445000804689463B462046294600F025FC024618
:104460000B46DDE9040100F01FFC7DA3D3E9002326
:1044700000F0CEFD7CA3D3E9002306460F4620467C
:10448000294600F0C5FD02460B463046394600F08D
:104490000DFC06460F4602460B464046494600F0D4
:1044A00005FC42464B4604460D4600F0FDFB024625
:1044B0000B463046394600F0F7FB224680468946D7
:1044C0002B462046294600F0A3FD69A3D3E900232B
:1044D00006460F4600F09CFD67A3D3E9002300F0D9
:1044E000E3FB32463B4600F093FD65A3D3E900238E
:1044F00000F0DCFB32463B4600F08AFD62A3D3E9C4
:10450000002300F0D1FB32463B4600F081FD60A362
:10451000D3E9002300F0CAFB32463B4600F078FDA9
:1045200002460B462046294600F0BEFB06460F46D3
:1045300002460B462046294600F06AFD0022CDE9DE
:1045400000014FF080433046394600F0ADFB024693
:104550000B46DDE9000100F085FE424606460F46A7
:104560004B462046294600F053FD42464B4600F09C
:104570009DFB02460B463046394600F095FB22462D
:104580002B4600F091FB02460B4600204A4900F002
:104590008BFB8A44BAF5801F02460B46C0F23A8173
:1045A0005146DDE9062300F033FD44E432463B4644
:1045B0003046394600F02CFD3DE4B9F1000FBFF65E
:1045C000D5ACDDE90034184604F1004133E43B4B3F
:1045D00021F00048984540F30081394B0B440343D8
:1045E0000CD132463B4600F05FFB02460B46DDE94C
:1045F000040100F089FF00283FF4F1AEDDE9060177
:1046000025A3D3E9002300F003FD23A3D3E900236E
:1046100000F0FEFC0FE49FED227B8DED067B83E630
:1046200002460B460020244900F01CFE25E49FEDC5
:104630001E7B8DED087B8DED0E7B9FED037B4FF098
:1046400000088DED067BD9E4000000000000F03F7B
:10465000FE822B654715973C00000000432EE63F85
:10466000EF39FAFE422EE63F396CA80C615C20BEA1
:10467000D0A4BE726937663EF16BD2C541BDBB3E68
:104680002CDE25AF6A56113F93BDBE166CC1663F46
:104690003E5555555555C53F59F3F8C21F6EA501F6
:1046A000000000000000F0BF00000000000000005B
:1046B000FFFF8F40FFFF0F000000F03FFFCB904057
:1046C00000346F3F6A4B9C427FF74DAC694B9C4274
:1046D0003FF7F5AB0022674B00F0E6FA54A3D3E9AD
:1046E000002304460D4600F093FC53A3D3E90023B6
:1046F000804689462046294600F08AFC0022CDE902
:1047000002015D4B2046294600F082FC02460B4622
:104710004BA1D1E9000100F0C7FA22462B4600F078
:1047200077FC02460B460020544900F0BDFA2246B1
:104730002B4606460F462046294600F069FC0246F5
:104740000B463046394600F063FC3FA3D3E9002313
:1047500000F05EFC02460B46DDE9020100F0A4FA1F
:1047600002460B4604460D464046494600F09EFA76
:1047700042464B460020CDE9020100F095FA024680
:104780000B462046294600F08FFA80468946C1E54F
:1047900032463B460020374900F064FDFFF74BBB33
:1047A000DDE906012AA3D3E9002300F031FC28A3A8
:1047B000D3E9002300F02CFCFFF73DBBBEF1000F56
:1047C0007FF446ABC3F1140348FA03F202FA03F391
:1047D000984527D0F346FFF711BB284B98453FF784
:1047E000FEADDDE900239246934628E602460B46DD
:1047F000FFF7B0BB9FED187B8DED087B9FED187B1D
:104800008DED0E7B9FED187B4FF480288DED067BA0
:10481000FFF7F4BB584643EC102B00F0ADF951EC18
:10482000100BBEE602F00102C2F1020BFFF7E6BA7E
:10483000000000604715F73F44DF5DF80BAE543EC3
:10484000555555555555D53FFE822B654715F73FB4
:104850009C7500883CE4377E0000004003B8E23FCE
:1048600006D0CF43EBFD4C3E000000000000F83FB7
:10487000FEFFEF3F0000F03F0000D03F0000E03FB0
:104880002DE9F041634855EC104BA84300F09580AA
:10489000002D2B4610EE102A70DD2F157DD0A7F2CB
:1048A000FF37C3F31303F90743F4801361D403EB19
:1048B000D27100260B447F105200B64616204FF4EA
:1048C00000110EEB01049C424FEAD2754FEA4202FE
:1048D00003DC1B1B04EB010E0E44013805EB430304
:1048E0004FEA5101EDD1844620244FF0004109E008
:1048F00020D003EBD275013C4FEA51012B444FEA23
:10490000420220D0734501EB0C05F1DD002D05EBD3
:10491000010C09DBF0469542A3EB0E0300D9013BE5
:10492000521B0844C646E4E7BCF1000FF2DB0EF16F
:104930000108F0E79542DCD8002D05EB010C4EDBB9
:1049400098460023ECE7134302D0421C4BD00130C1
:1049500040087110F30701F17F5101F5001148BFC4
:1049600040F0004001EB0753024643EC102BBDE83A
:10497000F0815B0003EBD273520098E710EE101A3F
:1049800025F00040014328D0ADBB2F46D30A153F88
:104990005205002BFAD0DE0228D4002400E00446A1
:1049A0005B00DD0204F10100F9D5C0F1200122FA1B
:1049B00001F10B433F1B824071E710EE102A2B469A
:1049C00010EE100A294600F023FB22462B4600F089
:1049D0006DF941EC100BBDE8F081BDE8F081BCF150
:1049E000000FA4DAACE701362046B2E70020202110
:1049F0004FF0FF34DBE710EE102A2B462046294605
:104A000000F052F902460B4600F02CFC41EC100B72
:104A1000BDE8F0810000F07F53EC102B23F0004341
:104A200043EC102B704700BF10EE903A43F000406B
:104A300000F58010C00F7047002070470000000094
:104A40009FED010B704700BF000000000000F87FE1
:104A5000F0B553EC102BC3F30A56A6F2FF3013281F
:104A600083B019464FEAD37410EE105A2FDC002899
:104A700049DB3E4E064103EA060717432CD0760871
:104A800033401D430CD04FF48023132821EA06063F
:104A900043FA00F141EA06010CBF4FF00045002542
:104AA000334800EBC4042A46D4E9004510462B469F
:104AB000224600F0FBF8CDE9000122462B46DDE955
:104AC000000100F0F1F841EC100B03B0F0BD332809
:104AD00006DDB0F5806F40D043EC102B03B0F0BD85
:104AE000A6F213464FF0FF30F0400242F4D04008E7
:104AF0000242D5D04FF0804325EA000043FA06F683
:104B000046EA0005CCE723F000401043E4D0C3F3AD
:104B10001300104347420743154D5E0C3F0B07F44B
:104B20000023760405EBC40243EA0601D2E90067DC
:104B300010EE100A32463B4600F0B8F8CDE900010D
:104B40003B463246DDE9000100F0AEF821F00043BB
:104B500043EAC47141EC100BC0E710EE100A19468D
:104B600000F0A4F841EC100BB8E700BFFFFF0F0006
:104B7000A85A00000000000053EC102B70B5C3F3DE
:104B80000A541946054614BB23F0004111432AD0AC
:104B900019460022384B394E10EE100A00F038FA50
:104BA000B54202460B461FDBC1F30A54363C2C4487
:104BB00040F2FE7084421FDC002C2DDD21F0FF410D
:104BC00021F4E00141EA045343EC102B70BD40F2A4
:104BD000FF708442EBD110EE100A194600F066F81F
:104BE00041EC100B70BD70BD1FA3D3E9002300F092
:104BF0000FFA41EC100B70BD43EC112B9FED1C0B19
:104C000000F040F81AA3D3E9002351EC100B00F098
:104C1000FFF941EC100B70BD14F1350F13DA4CF2B3
:104C200050318D4243EC112BE8DC9FED0F0B00F06F
:104C300029F80DA3D3E9002351EC100B00F0E8F99B
:104C400041EC100B70BD21F0FF4121F4E00136343E
:104C500041EA0453104619460022094B00F0D8F9E6
:104C600041EC100B70BD00BF59F3F8C21F6EA501D7
:104C70009C7500883CE4377E00005043B03CFFFF49
:104C80000000903C53EC102B11EE900A23F00041F1
:104C900000F0004041EA000343EC102B704700BFD6
:104CA00081F0004102E000BF83F0004330B54FEADD
:104CB00041044FEA430594EA050F08BF90EA020F4A
:104CC0001FBF54EA000C55EA020C7FEA645C7FEADD
:104CD000655C00F0E2804FEA5454D4EB5555B8BF00
:104CE0006D420CDD2C4480EA020281EA030382EA71
:104CF000000083EA010180EA020281EA0303362D03
:104D000088BF30BD11F0004F4FEA01314FF4801CD5
:104D10004CEA113102D0404261EB410113F0004FE7
:104D20004FEA03334CEA133302D0524263EB43039E
:104D300094EA050F00F0A780A4F10104D5F1200E3C
:104D40000DDB02FA0EFC22FA05F2801841F1000197
:104D500003FA0EF2801843FA05F359410EE0A5F16B
:104D600020050EF1200E012A03FA0EFC28BF4CF09C
:104D7000020C43FA05F3C01851EBE37101F0004552
:104D800007D54FF0000EDCF1000C7EEB00006EEB5F
:104D90000101B1F5801F1BD3B1F5001F0CD34908E9
:104DA0005FEA30004FEA3C0C04F101044FEA445240
:104DB00012F5800F80F09A80BCF1004F08BF5FEAC7
:104DC000500C50F1000041EB045141EA050130BDA7
:104DD0005FEA4C0C404141EB010111F4801FA4F14A
:104DE0000104E9D191F0000F04BF01460020B1FA9F
:104DF00081F308BF2033A3F10B03B3F120020CDAD7
:104E00000C3208DD02F1140CC2F10C0201FA0CF0B4
:104E100021FA02F10CE002F11402D8BFC2F1200C19
:104E200001FA02F120FA0CFCDCBF41EA0C019040CF
:104E3000E41AA2BF01EB0451294330BD6FEA040418
:104E40001F3C1CDA0C340EDC04F11404C4F1200203
:104E500020FA04F001FA02F340EA030021FA04F315
:104E600045EA030130BDC4F10C04C4F1200220FA6C
:104E700002F001FA04F340EA0300294630BD21FAAA
:104E800004F0294630BD94F0000F83F4801306BF70
:104E900081F480110134013D4EE77FEA645C18BF64
:104EA0007FEA655C29D094EA050F08BF90EA020FFB
:104EB00005D054EA000C04BF1946104630BD91EAF3
:104EC000030F1EBF0021002030BD5FEA545C05D1F6
:104ED0004000494128BF41F0004130BD14F5800435
:104EE0003CBF01F5801130BD01F0004545F0FE41A9
:104EF00041F470014FF0000030BD7FEA645C1ABFDE
:104F0000194610467FEA655C1CBF0B46024650EA14
:104F1000013406BF52EA033591EA030F41F4002140
:104F200030BD00BF90F0000F04BF0021704730B5C6
:104F30004FF4806404F132044FF000054FF000019B
:104F400050E700BF90F0000F04BF0021704730B55C
:104F50004FF4806404F1320410F0004548BF404231
:104F60004FF000013EE700BF42004FEAE2014FEA86
:104F700031014FEA02701FBF12F07F4393F07F4F61
:104F800081F06051704792F0000F14BF93F07F4F93
:104F9000704730B54FF4607401F0004521F00041D6
:104FA00020E700BF50EA010208BF704730B54FF05C
:104FB00000050AE050EA010208BF704730B511F061
:104FC000004502D5404261EB41014FF4806404F199
:104FD00032045FEA915C3FF4DCAE4FF003025FEA1B
:104FE000DC0C18BF03325FEADC0C18BF033202EBA3
:104FF000DC02C2F1200300FA03FC20FA02F001FAFD
:1050000003FE40EA0E0021FA02F11444C1E600BF9B
:1050100070B54FF0FF0C4CF4E06C1CEA11541DBF4E
:105020001CEA135594EA0C0F95EA0C0F00F0DEF819
:105030002C4481EA030621EA4C5123EA4C5350EAFE
:10504000013518BF52EA033541F4801143F480134F
:1050500038D0A0FB02CE4FF00005E1FB02E506F0E0
:105060000042E0FB03E54FF00006E1FB03569CF035
:10507000000F18BF4EF0010EA4F1FF04B6F5007F3B
:1050800064F5407404D25FEA4E0E6D4146EB0606AD
:1050900042EAC62141EA55514FEAC52040EA5E5036
:1050A0004FEACE2EB4F1FD0C88BFBCF5E06F1ED8E0
:1050B000BEF1004F08BF5FEA500E50F1000041EB17
:1050C000045170BD06F0004646EA010140EA0200C4
:1050D00081EA0301B4EB5C04C2BFD4EB0C0541EAE6
:1050E000045170BD41F480114FF0000E013C00F3FB
:1050F000AB8014F1360FDEBF002001F0004170BD1F
:10510000C4F10004203C35DA0C341BDC04F1140437
:10511000C4F1200500FA05F320FA04F001FA05F2C3
:1051200040EA020001F0004221F0004110EBD37090
:1051300021FA04F642EB06015EEA430E08BF20EABC
:10514000D37070BDC4F10C04C4F1200500FA04F35F
:1051500020FA05F001FA04F240EA020001F00041F1
:1051600010EBD37041F100015EEA430E08BF20EA64
:10517000D37070BDC4F1200500FA05F24EEA020EAC
:1051800020FA04F301FA05F243EA020321FA04F0DB
:1051900001F0004121FA04F220EA020000EBD37092
:1051A0005EEA430E08BF20EAD37070BD94F0000F92
:1051B0000FD101F00046400041EB010111F4801FC6
:1051C00008BF013CF7D041EA060195F0000F18BF77
:1051D000704703F00046520043EB030313F4801FB3
:1051E00008BF013DF7D043EA0603704794EA0C0F6D
:1051F0000CEA135518BF95EA0C0F0CD050EA410683
:1052000018BF52EA4306D1D181EA030101F00041FF
:105210004FF0000070BD50EA410606BF1046194627
:1052200052EA430619D094EA0C0F02D150EA013633
:1052300013D195EA0C0F05D152EA03361CBF104674
:1052400019460AD181EA030101F0004141F0FE4113
:1052500041F470014FF0000070BD41F0FE4141F497
:10526000780170BD70B54FF0FF0C4CF4E06C1CEA97
:1052700011541DBF1CEA135594EA0C0F95EA0C0F4C
:1052800000F0A7F8A4EB050481EA030E52EA033507
:105290004FEA013100F088804FEA03334FF0805528
:1052A00045EA131343EA12634FEA022245EA111555
:1052B00045EA10654FEA00260EF000419D4208BF06
:1052C000964244F1FD0404F5407402D25B084FEAB3
:1052D0003202B61A65EB03055B084FEA32024FF45F
:1052E00080104FF4002CB6EB020E75EB030E22BFBC
:1052F000B61A754640EA0C005B084FEA3202B6EB7C
:10530000020E75EB030E22BFB61A754640EA5C002A
:105310005B084FEA3202B6EB020E75EB030E22BFBA
:10532000B61A754640EA9C005B084FEA3202B6EBBB
:10533000020E75EB030E22BFB61A754640EADC007A
:1053400055EA060E18D04FEA051545EA16754FEADC
:1053500006164FEAC30343EA52734FEAC2025FEAFA
:105360001C1CC0D111F4801F0BD141EA00014FF089
:1053700000004FF0004CB6E711F4801F04BF01435A
:105380000020B4F1FD0C88BFBCF5E06F3FF6AFAE76
:10539000B5EB030C04BFB6EB020C5FEA500C50F106
:1053A000000041EB045170BD0EF0004E4EEA113189
:1053B00014EB5C04C2BFD4EB0C0541EA045170BD90
:1053C00041F480114FF0000E013C90E645EA060ED4
:1053D0008DE60CEA135594EA0C0F08BF95EA0C0F02
:1053E0003FF43BAF94EA0C0F0AD150EA01347FF44A
:1053F00034AF95EA0C0F7FF425AF104619462CE721
:1054000095EA0C0F06D152EA03353FF4FDAE104683
:10541000194622E750EA410618BF52EA43067FF4D4
:10542000C5AE50EA41047FF40DAF52EA43057FF464
:10543000EBAE12E74FF0FF3C06E000BF4FF0010C6F
:1054400002E000BF4FF0010C4DF804CD4FEA410CD3
:105450007FEA6C5C4FEA430C18BF7FEA6C5C1BD0A0
:1054600001B050EA410C0CBF52EA430C91EA030F21
:1054700002BF90EA020F0020704710F1000F91EA7E
:10548000030F58BF994208BF90422CBFD8176FEA4C
:10549000E37040F0010070474FEA410C7FEA6C5C1A
:1054A00002D150EA013C07D14FEA430C7FEA6C5C21
:1054B000D6D152EA033CD3D05DF8040B704700BF4D
:1054C0008446104662468C461946634600E000BF9B
:1054D00001B5FFF7B7FF002848BF10F1000F01BD6D
:1054E0004DF808EDFFF7F4FF0CBF012000205DF838
:1054F00008FB00BF4DF808EDFFF7EAFF34BF0120BD
:1055000000205DF808FB00BF4DF808EDFFF7E0FF55
:1055100094BF012000205DF808FB00BF4DF808EDA6
:10552000FFF7CEFF94BF012000205DF808FB00BF0D
:105530004DF808EDFFF7C4FF34BF012000205DF8EF
:1055400008FB00BF4FEA410C7FEA6C5C02D150EAD5
:10555000013C0AD14FEA430C7FEA6C5C02D152EA6B
:10556000033C02D14FF0000070474FF0010070473C
:105570004FEA4102B2F1E04324BFB3F5001CDCF175
:10558000FE5C0DD901F0004C4FEAC0024CEA5070AD
:10559000B2F1004F40EB830008BF20F001007047DC
:1055A00011F0804F21D113F13872BCBF01F00040DF
:1055B000704741F480114FEA5252C2F11802C2F111
:1055C000200C10FA0CF320FA02F018BF40F0010092
:1055D0004FEAC1234FEAD32303FA0CFC40EA0C0044
:1055E00023FA02F34FEA4303CCE77FEA625307D181
:1055F00050EA01331EBF4FF0FE4040F440007047B8
:1056000001F0004040F0FE4040F40000704700BF51
:10561000014B1868704700BF28000020F8B500BF94
:10562000F8BC08BC9E467047F8B500BFF8BC08BC83
:105630009E467047000000000000000000000000CF
:105640000338FDD870470000210300001D0300004F
:1056500095030000FFFFFFFFFFFFFFFFFFFFFFFFBE
:10566000FFFFFFFF00000000000000000000D60167
:105670000601000079040000E50400007504000044
:10568000756172745F6C6F675F6261636B656E6496
:10569000000000007274745F6C6F675F6261636B1F
:1056A000656E6400A40700207F000000240800202D
:1056B0004261636B656E647320666C7573686564C4
:1056C000000000006170700020570000505700007B
:1056D000005700005857000060570000685700004E
:1056E00070570000785700008057000020253032A6
:1056F00078000000202020007C00000025630000CE
:105700001B5B313B33316D0025734C6F6773206435
:10571000726F70706564202825642925730D0A0056
:105720001B5B306D00000000257300003C25733EBC
:105730002025733A200000000D0A00000000000040
:10574000885700009057000098570000A0570000AD
:105750001B5B313B33306D001B5B313B33326D00E3
:105760001B5B313B33336D001B5B313B33346D00CE
:105770001B5B313B33356D001B5B313B33366D00BA
:105780001B5B313B33376D006572726F7200000036
:105790007761726E696E6700696E666F0000000067
:1057A0006465627567000000466174616C20657213
:1057B000726F720053797374656D207265736574CE
:1057C0000000000030313233343536373839414249
:1057D00043444546505253005457494D0000000081
:1057E00055415254000000005541525445000000FC
:1057F0000D0A5457492073656E736F722065786186
:105800006D706C6520737461727465642E000000A5
:105810004D5055393235302073686F756C64206295
:1058200065203078373120616E642069733A20300A
:1058300078253032780000005465726D696E616CB5
:1058400000000000525454005345474745520000A1
:105850000338FDD8704700002D0000000D0A782D98
:10586000617869732073656C6620746573743A207F
:10587000616363656C65726174696F6E20747269CF
:105880006D2077697468696E3A20257325642E252A
:1058900030326425250000000D0A792D6178697386
:1058A0002073656C6620746573743A206163636568
:1058B0006C65726174696F6E207472696D207769AE
:1058C0007468696E3A20257325642E25303264256C
:1058D000250000000D0A782D617869732073656CCE
:1058E0006620746573743A206779726174696F6EAB
:1058F000207472696D2077697468696E3A20257327
:1059000025642E2530326425250000000D0A792DEE
:10591000617869732073656C6620746573743A20CE
:105920006779726174696F6E207472696D2077692E
:105930007468696E3A20257325642E2530326425FB
:10594000250000000D0A7A2D617869732073656C5B
:105950006620746573743A206779726174696F6E3A
:10596000207472696D2077697468696E3A202573B6
:1059700025642E2530326425250000000300000038
:105980000400000000009801060000000030004004
:10599000000000002C0000204300504F53495800E5
:1059A0002E00002020202020202020202828282809
:1059B00028202020202020202020202020202020DF
:1059C000202020881010101010101010101010102F
:1059D000101010040404040404040404041010103F
:1059E00010101010414141414141010101010101EB
:1059F0000101010101010101010101010101101079
:105A000010101010424242424242020202020202BE
:105A1000020202020202020202020202020210104A
:105A20001010200000000000000000000000000036
:105A30000000000000000000000000000000000066
:105A40000000000000000000000000000000000056
:105A50000000000000000000000000000000000046
:105A60000000000000000000000000000000000036
:105A70000000000000000000000000000000000026
:105A80000000000000000000000000000000000016
:105A90000000000000000000000000000000000006
:105AA00000000000706F770000000000000030432D
:0C5AB00000000000000030C300000000F7
:105ABC00D457000000000000D85700000000000080
:105ACC00E057000000000000E85700000000000054
:085ADC00C456000000000303A2
