:1000000000000120E1020000090300000B030000D2
:100010000D0300000F0300001103000000000000AA
:1000200000000000000000000000000013030000BA
:100030001503000000000000170300001903000072
:10004000517F00001B03000035230000792F0000C2
:100050001B0300001B030000598900001B03000064
:100060001B0300001B0300001B0300001B03000018
:100070001B0300001B0300001B0300001B03000008
:100080001B0300001B0300001B0300001B030000F8
:100090001B0300001B0300001B0300001B030000E8
:1000A0001B0300001B0300001B0300001B030000D8
:1000B0001B0300001B030000000000000000000004
:1000C0001B0300001B0300001B0300001B030000B8
:1000D000697D00001B0300001B03000000000000FE
:1000E0000000000000000000000000000000000010
:1000F0000000000000000000000000000000000000
:1001000000000000000000000000000000000000EF
:1001100000000000000000000000000000000000DF
:1001200000000000000000000000000000000000CF
:1001300000000000000000000000000000000000BF
:1001400000000000000000000000000000000000AF
:10015000000000000000000000000000000000009F
:10016000000000000000000000000000000000008F
:10017000000000000000000000000000000000007F
:10018000000000000000000000000000000000006F
:10019000000000000000000000000000000000005F
:1001A000000000000000000000000000000000004F
:1001B000000000000000000000000000000000003F
:1001C000000000000000000000000000000000002F
:1001D000000000000000000000000000000000001F
:1001E000000000000000000000000000000000000F
:1001F00000000000000000000000000000000000FF
:1002000010B5054C237833B9044B13B10448AFF350
:1002100000800123237010BD3C020020000000007C
:1002200048BB00000C4B43B10C480D4910B5AFF36F
:1002300000800C48036823B910BD0A48036833B92D
:100240007047094B002BF7D0BDE810401847064B0C
:10025000002BF5D0184700BF0000000048BB00008D
:10026000400200203802002000000000154B002B47
:1002700008BF134B9D46A3F5803A00218B460F46DD
:100280001348144A121A08F03EFD0F4B002B00D001
:1002900098470E4B002B00D0984700200021040007
:1002A0000D000D48002802D00C48AFF3008008F084
:1002B000DBFC2000290003F00BFD08F0C1FC00BFAF
:1002C0000000080000000120000000000000000005
:1002D0003C020020500C0020000000000000000044
:1002E0000649074A074B9B1A03DD043BC858D05008
:1002F000FBDC04F01FF8FFF7B9FF0000C0BB0000F3
:10030000000000203C020020FEE7FEE7FEE7FEE7DB
:10031000FEE7FEE7FEE7FEE7FEE7FEE780B584B016
:1003200000AF78607B68002B0AD0074B43F00103D5
:10033000FB607B689B01BB60FB68B868984700E086
:1003400000BF1037BD4680BD50B4000080B582B0FC
:1003500000AF78607B68002B0AD04FF47A70FFF70B
:10036000DDFF7B68013B7B607B68002BF5D100E003
:1003700000BF0837BD4680BD80B500AF03F0B2FFB7
:1003800000BF80BD80B588B000AFF860B9607A600A
:100390007B68002B33D00023FB610323BB61BA6869
:1003A000FB6913447A681946002003F04DFF786119
:1003B000FA697B691344FB617A687B69D31A7B60B5
:1003C0007B69002B13D1104B1B7883F00103DBB248
:1003D000002B13D10120FFF7B9FFBB69013BBB61C3
:1003E000BB69002B03D1084B00221A7007E0064BB3
:1003F00001221A707B68002BD1D100E000BF00BF42
:100400002037BD4680BD00BF5802002080B584B0B3
:1004100002AF78603960064B00934023054A396883
:10042000786800F01DF800BF0837BD4680BD00BFEA
:10043000850300005C02002080B483B000AF7860C8
:1004400000BF0C37BD465DF8047B704780B483B0B5
:1004500000AF786000BF0C37BD465DF8047B704785
:1004600080B5A0B002AFF860B9607A603B60B86850
:1004700001F065FE7B68FB643B683B6500237B65A0
:10048000002387F858300023FB65D7F880303B669F
:1004900000237B6707F134017B6F0822B86801F005
:1004A00011FF08237B67FB6B3B643B8FA7F844304D
:1004B0007B8FA7F84630002387F8493097F834300F
:1004C00003F00303DBB2012B29D17B6BC3F395232C
:1004D000FB6697F83430C3F3C203DBB287F84830C9
:1004E000BB8EC3F38313DBB2BB66BB6E9A0007F10E
:1004F0001C017B6FB86801F0E5FEBB6E9B007A6F54
:1005000013447B6707F1400207F11C0107F14C031C
:1005100000931346BA6EF86E00F0BCFE32E097F816
:10052000343003F00303DBB2022B2BD1FB8EC3F379
:1005300089139BB23B6797F83430C3F3C203DBB235
:1005400087F848303B6F082B28BF08237B6607F1EC
:1005500014017B6F7A6EB86801F0B4FE7A6F7B6E1F
:1005600013447B673A6F7B6ED31A3B6707F14C03EA
:1005700007F1400207F11400796E00F02DFF3B6F88
:10058000002BDFD1B86801F0EAFD00BF7837BD4627
:1005900080BD80B483B000AF78607B68DB680122E7
:1005A0005A7100BF0C37BD465DF8047B70470000F0
:1005B00080B582B000AF4FF0FF337B60FFF7DCFE09
:1005C0000421054800F078FD78600348FFF7E1FF5B
:1005D00000BF0837BD4680BD94BB000080B582B027
:1005E00000AF786039607B681B681B683968786881
:1005F000984700BF0837BD4680BD80B582B000AFC8
:1006000078607B681B685B687868984700BF08372C
:10061000BD4680BD80B582B000AF78607B681B6846
:100620009B687868984700BF0837BD4680BD80B496
:1006300083B000AF78600B46FB707B68DB68FA78AC
:100640001A7100BF0C37BD465DF8047B704780B45B
:1006500083B000AF78607B68DB681B7918460C3785
:10066000BD465DF8047B704780B483B000AF78600E
:100670007B68DB6801225A7100BF0C37BD465DF80C
:10068000047B704780B483B000AF78607B68DB6820
:100690005B7918460C37BD465DF8047B7047000057
:1006A00080B584B000AF78603960154BFF229A6046
:1006B000134B00221A60124B00225A60104B00228A
:1006C000C3F818240E4B0022C3F814240C4B00224C
:1006D00083F820240B4801F099FCF860FB68002B9C
:1006E00001D0FB6808E0084801F002FE074A084B09
:1006F000D31ADB08BB60002318461037BD4680BD07
:1007000004040020A4BB000068B4000094BB0000F7
:100710004CBB000080B400AF044A054BD31ADB0881
:100720001846BD465DF8047B704700BF94BB0000CF
:100730004CBB000080B586B000AF78600B46FB7004
:10074000FB78002B1FD0FFF7E5FF386100237B61AA
:1007500013E07B699B000E4A1344FB60FB681B8817
:100760001A467B681B689A4204D17B687A691A60D2
:10077000002309E07B6901337B617A693B699A4216
:10078000E7D3052300E0002318461837BD4680BD97
:100790003C02002080B584B000AF78600B46FB704F
:1007A000FA783B1D11461846FFF7C4FF0346002B9D
:1007B00007D17B68DB00054A1344FB60FB681B68BC
:1007C00000E0002318461037BD4680BD4CBB00003A
:1007D00080B485B000AF78600B46FB707B68DB00AF
:1007E000144A1344BB60FB78013B032B18D801A2C9
:1007F00052F823F0050800000B0800001108000063
:10080000190800000223FB730DE00423FB730AE0C8
:10081000BB681B79FB7306E0BB685B79FB7302E086
:100820000023FB7300BFFB7B18461437BD465DF801
:10083000047B70474CBB000080B485B000AF78608B
:1008400039600023FB737B681B7803F00403DBB281
:10085000002B23D07B681B78C3F30103DBB2012B91
:1008600002D0022B0CD017E03B681B687A68128814
:10087000C2F38312D2B213449A1C3B681A600BE095
:100880003B681B687A685288C2F3891292B213449B
:100890009A1C3B681A6000BF0123FB73FB7B184660
:1008A0001437BD465DF8047B7047000080B58AB000
:1008B00000AF0023FB84384800F01DFF374800F0EC
:1008C0001AFF374B5B683B61354B9B68BB613A69EC
:1008D000BB69134002339B00314A134404333B622B
:1008E00007F110031946386AFFF7A6FF0346002BED
:1008F00009D03A69BB69134002339B00284A13446C
:1009000004333B62ECE700BF0023FB6111E0FB69AD
:100910009B003A1D1A443B69591C3961B9690B4067
:100920001F4902339B000B445B681360FB69013372
:10093000FB61FB69012BEAD93B79C3F30103DBB20D
:10094000012B0ED0022B00D016E07B89FB84FB88A4
:10095000C3F389139BB203339A083B6913443B6189
:100960000AE07B89FB84BB88C3F38313DBB21A469E
:100970003B6913443B6100BF084800F0C9FE786141
:100980007B69002B02D03B69054A5360FB8C1846FB
:100990002837BD4680BD00BF1C0800201808002075
:1009A0000404002080B584B000AF0021074800F0A7
:1009B00026FEF860FB68BB60BB6883F310037B60B6
:1009C0007B6818461037BD4680BD00BF2008002058
:1009D00080B588B000AFF860B9607A603B60FB68B2
:1009E0001B0CFB61FFF7DEFFB8613B685A1CBB6A5A
:1009F0001340BA691104FA690A431C4902339B0087
:100A00000B445A603A68BB6A134002339B00174A92
:100A1000134404337B61FB68DBB203F00703D9B2F4
:100A20007A69137861F3C50313707B68DBB203F056
:100A30000F03D9B27A69138861F389131380BB68F5
:100A4000C3F315017A69136861F39F2313607A6910
:100A50001378012161F3010313707A6913786FF33E
:100A60008203137000BF2037BD4680BD0404002000
:100A700080B58AB000AFF860B9601346FB71FB68BF
:100A800002333B620123FB77002000F0A3FD384BCB
:100A90001A68BB681A60364B9A68354B5968344BF4
:100AA0001B68CB1A134401337B6214E001213148E7
:100AB00000F0EFFDFFF7FAFEB861B9692D4800F0CC
:100AC000E8FD2B4B9A682A4B5968294B1B68CB1AB7
:100AD000134401337B623A6A7B6A9A42E6D8FB7F11
:100AE000002B3DD000233B61FB79002B12D03B7CD7
:100AF000012262F301033B743B7C43F004033B742B
:100B0000FB68DBB203F00F03DAB23B8A62F38913AE
:100B10003B8211E03B7C022262F301033B743B7C8D
:100B200043F004033B74FB689BB2C3F309039AB21E
:100B30007B8A62F38F137B820D4B1A680C4B9B6888
:100B4000134002339B000A4A134404337B613A6921
:100B50007B691A60064B1A683B6A1344044A1360A7
:100B6000002000F041FDFB7F18462837BD4680BDC0
:100B7000040400202008002080B58AB002AFF8608D
:100B8000B9607A603B60204B9B687B6107F1100382
:100B9000012219463868FFF76BFF0346002B24D06B
:100BA0003B690233FB610023BB6111E0FB695A1C06
:100BB000FA617A691340BA69920079680A44126846
:100BC000114902339B000B445A60BB690133BB617E
:100BD000BA693B689A42E9D33A697B690093134644
:100BE0003A68B968F868FFF7F3FE074B93F82034CA
:100BF000002B05D000BF00F06BF80346002BFAD1A4
:100C000000BF2037BD4680BD0404002080B582B0FF
:100C100000AF786039600023002239687868FFF7F8
:100C2000ABFF00BF0837BD4680BD80B586B000AFC2
:100C3000F860B9607A607B687B6107F11402012378
:100C4000B968F868FFF798FF00BF1837BD4680BD48
:100C500080B586B000AFF860B9607A603B607B68B1
:100C60003B613B687B6107F110020223B968F868B9
:100C7000FFF782FF00BF1837BD4680BD80B588B042
:100C800000AFF860B9607A603B607B687B613B686D
:100C9000BB61BB6AFB6107F114020323B968F86802
:100CA000FFF76AFF00BF2037BD4680BD80B400AFAC
:100CB000064B5A68054B1B689A420CBF0123002360
:100CC000DBB21846BD465DF8047B70470404002083
:100CD00080B598B000AFFFF7E9FF0346002B01D0C5
:100CE0000023ABE1954B0022C3F81824BFF34F8FCC
:100CF000924B5B683B61914B9B683B643A693B6CF0
:100D0000134002339B008D4A13440433FB650023D8
:100D1000BB6500237B650023FB6307F110031946C5
:100D2000F86DFFF789FD0346002B19D0834BD3F8EC
:100D30001834002B14D1814B1A683B699A4205D8AC
:100D40007E4B1B687D4A5360002377E13A693B6C18
:100D5000134002339B00794A13440433FB65DCE7FC
:100D600000233B6511E03B6D9B003A1D1A443B6933
:100D7000591C3961396C0B40704902339B000B449C
:100D80005B6813603B6D01333B653B6D012BEAD91A
:100D90003B7903F00303DBB2022B40F09580FB8824
:100DA000C3F389139BB2BB63FB88C3F389139BB264
:100DB000502BA8BF50237B637B6B9BB2C3F309030B
:100DC0009AB2FB8862F38F13FB807B6B08333B6323
:100DD0003B79C3F3C203DBB2FB63396B584801F0C4
:100DE00021F9B865BB6D002B00F0CB80B86D01F028
:100DF000A6F9391D7B6D0822B86D01F04DFA7B6DA7
:100E000008337B653B69DA433B6C134001339B003D
:100E1000FB627A6BFB6A9A4240D9FB6A002B08D0CE
:100E20003A693B6C134002339B00444A1344043339
:100E300000E0444BBB62FB6A002B02D0FB6ADBB2D2
:100E400001E07B6BDBB287F82730FB6A002B01D017
:100E50003C4B00E000233B62FB6A002B06D07B6B1F
:100E6000DAB2FB6ADBB2D31ADBB200E00023FB7715
:100E700097F827207B6DB96AB86D01F00DFA97F8E5
:100E800027307A6D13447B653B6A002B15D0FA7FBF
:100E90007B6D396AB86D01F0FFF90EE03A693B6C81
:100EA000134002339B00254A13440433BB617B6D1E
:100EB0007A6BB969B86D01F0EFF9BB6B03339A082F
:100EC0003B6913443B615CE03B7903F00303DBB215
:100ED000012B56D1BB88C3F38313DBB2062B28BF8B
:100EE0000623DBB203F00F03DAB2BB8862F3891387
:100EF000BB80BB88C3F38313DBB202337B613B79D6
:100F0000C3F3C203DBB2FB637B699B0019460C4849
:100F100001F088F8B865BB6D002B32D0B86D01F0D8
:100F20000EF9391D7B6D0822B86D01F0B5F97B6DA6
:100F300008337B6500233B651BE000BF04040020F1
:100F4000A4BB0000100400203B695A1C3A613A6CB3
:100F5000134002339B003B4A1344191D7B6D04224E
:100F6000B86D01F099F97B6D04337B653B6D0133FE
:100F70003B65BB88C3F38313DBB21A463B6D9A42D1
:100F8000E2D8BB6D002B39D02E4BD3F81034FB6464
:100F90002C4BD3F81834002B1BD0B86D01F0DFF8C0
:100FA00046E0002387F84B30F86CFFF76BFB0346F5
:100FB000002B02D0012387F84B3097F84B30002BE1
:100FC00003D0B96DF86CFFF709FBFB6CDB681B689D
:100FD000FB64FB6C002BE4D1B86D01F0C0F800207D
:100FE00000F0F8FA174BD3F81834002B02D13B6904
:100FF000144A5360002000F0F7FA19E0114BD3F8BF
:1010000010347B6406E0786CFFF704FB7B6CDB68D4
:101010001B687B647B6C002BF5D10B4A0B4BD31AFE
:10102000DB081B0443F0020309491846FFF7EEFDF5
:10103000FFF73CFE034683F00103DBB2184660373E
:10104000BD4680BD0404002084BB00004CBB0000F2
:1010500078B4000080B584B000AF0023FB6020E0CE
:10106000144BD3F81034BB600123FB710EE0B86859
:10107000FFF7EDFA03461A46FB689A4202D10023B5
:10108000FB7106E0BB68DB681B68BB60BB68002BBC
:10109000EDD1FB79002B01D0FB6807E0FB68013341
:1010A000FB60FB68092BDBDD4FF0FF331846103780
:1010B000BD4680BD0404002080B584B000AF7860D8
:1010C0000B46FB70FFF7C6FFF860FB68B3F1FF3F0C
:1010D00001D1FB6822E0FB68DBB219467868FFF7B4
:1010E000A6FA104BD3F81034002B08D10D4A7B68B8
:1010F000C2F810347B68DB6800221A600DE07B6860
:10110000DB68084AD2F81024D26812681A60054BCE
:10111000D3F81034DB687A681A60FB681846103719
:10112000BD4680BD0404002080B582B000AF0D4BE9
:10113000D3F810347B600B4B012283F8202409E0A4
:101140007868FFF791FA7868FFF757FA7B68DB68F1
:101150001B687B607B68002BF2D100BF0837BD465F
:1011600080BD00BF0404002080B483B000AF78606D
:10117000396000BF0C37BD465DF8047B7047000046
:1011800090B585B002AF786039607B68DB88002B52
:101190000AD07B68DB881A461F4B009313461F4A10
:1011A0001F49386800F081FB7B681B7A052B2ED025
:1011B0007B685B7A002B12D07B689B881A467B6821
:1011C0001B7A19461046FFF703FB03461A46154BD8
:1011D00053F822301A461449386800F066FB7B68E1
:1011E0001B6819463868FFF7BFFF7B681B7A1A46F1
:1011F0000E4B53F822407B689B8800211846FFF76E
:10120000C9FA034622460A49386800F04EFB00BF7F
:101210000C37BD4690BD00BFACB40000BCB40000AC
:10122000F4B400001C0000200CB5000008000020F1
:1012300010B5000080B584B000AFF860B960134607
:10124000FB71FB681B7A052B0FD0FB685B7A002BC8
:1012500006D00D4B1B681A460C49B86800F025FBF8
:101260000B49B86800F021FB06E0FB79002B03D0A6
:101270000749B86800F019FBB86800F0FDFA00BF34
:101280001037BD4680BD00BF1C0000200CB500001B
:101290001CB50000B0B58AB004AFF860B9607A60E0
:1012A0003B60BB6A1B7BFB75BB6A00221A73B96A81
:1012B0003868FFF765FF7B68062B7FD801A252F8DC
:1012C00023F000BFE1120000EB120000FB1200004F
:1012D0000F1300002D1300005513000085130000AC
:1012E000F968B86A00F0E1FA69E0BB681B681A4661
:1012F000F968B86A00F0D9FA61E0BB681A68BB689F
:1013000004331B68F968B86A00F0CFFA57E0BB688D
:101310001A68BB6804331968BB6808331B680093FC
:101320000B46F968B86A00F0C0FA48E0BB68196873
:10133000BB6804331868BB6808331B68BA680C3292
:1013400012680192009303460A46F968B86A00F0F1
:10135000ACFA34E0BB681868BB6804331C68BB682F
:1013600008331B68BA680C321268B9681031096812
:1013700002910192009323460246F968B86A00F090
:1013800094FA1CE0BB681C68BB6804331D68BB682A
:1013900008331B68BA680C321268B96810310968E2
:1013A000B8681430006803900291019200932B46B4
:1013B0002246F968B86A00F078FA00E000BF00221F
:1013C000B96A3868FFF736FFBB6AFA7D1A7300BF47
:1013D0001837BD46B0BD00BF80B586B000AFF8601D
:1013E000B9607A603B60BB68082B5BD83B681B7BAD
:1013F000FB743B6800221A7339687868FFF7C0FEF7
:1014000000237B6114E07A69BB689A4209D2FA68CA
:101410007B6913441B781A462449386800F045FA62
:1014200003E02349386800F040FA7B6901337B61AF
:101430007B69072BE7D91F49386800F036FA00238B
:101440007B6123E07A69BB689A4218D2FA687B69AB
:1014500013441B78BB7407F02BFC0246BB7C0133A2
:1014600013441B7803F09703002B01D0BB7C00E0F2
:101470002E231A461049386800F017FA03E00F4986
:10148000386800F012FA7B6901337B617B69072BB6
:10149000D8D9012239687868FFF7CCFE3B68FA7C1E
:1014A0001A7300E000BF1837BD4680BD20B50000AC
:1014B00028B500002CB5000030B5000034B50000A0
:1014C00080B586B000AF78600023FB6000233B61ED
:1014D0007B687B6107F10C031A46002144F201008E
:1014E00000F018F800BF1837BD4680BD80B400AFCB
:1014F000BFF34F8F0549054BDB6803F4E062044BF3
:101500001343CB60BFF34F8F00BFFDE700ED00E05A
:101510000400FA0580B584B000AFF860B9607A6065
:1015200072B6FFF701FE00BFFFF7D2FB0346002BA8
:10153000FAD1114A114BD31ADB081B0443F0010303
:101540000F491846FFF762FB0E4B1B6803F00103BF
:10155000002B00D000BE084A084BD31ADB081B043E
:1015600043F0020308491846FFF750FBFFF7BEFFA0
:1015700000BF1037BD4680BD84BB00004CBB0000DF
:1015800038B50000F0ED00E044B5000080B400AFD5
:1015900072B6054B1B680133034A136000BFBD469A
:1015A0005DF8047B704700BF2808002080B400AFBE
:1015B000074B1B68013B064A1360054B1B68002B59
:1015C00000D162B600BFBD465DF8047B704700BF26
:1015D0002808002080B582B000AF7860FFF7D6FF02
:1015E00000BF0837BD4680BD80B582B000AF03465E
:1015F000FB71FFF7DBFF00BF0837BD4680BD90B42D
:1016000086B000AF786039607B683A6853E8004F75
:10161000104643E8000191F0000FF7D17C6138617A
:10162000F9607B6918461837BD4690BC704790B486
:1016300086B000AF786039607B683A6853E8004F45
:1016400044EA020043E8000191F0000FF6D17C610A
:101650003861F9603B6918461837BD4690BC704741
:1016600090B486B000AF786039607B683A6853E820
:10167000004F04EA020043E8000191F0000FF6D1A8
:101680007C613861F9607B6918461837BD4690BCAB
:10169000704790B486B000AF786039607B683A6874
:1016A00053E8004F04EB020043E8000191F0000F03
:1016B000F6D17C613861F9603B6918461837BD4640
:1016C00090BC704790B486B000AF786039607B689A
:1016D0003A6853E8004FA4EB020043E8000191F0A0
:1016E000000FF6D17C613861F9603B691846183704
:1016F000BD4690BC704780B582B000AF78600121D4
:101700007868FFF794FF034618460837BD4680BD4A
:1017100080B582B000AF786000217868FFF7A0FF45
:10172000034618460837BD4680BD80B483B000AF7D
:1017300078600B46FB707B68DA68FB787968098A09
:1017400001FB03F3134418460C37BD465DF8047BD8
:10175000704780B483B000AF786039603B687A68C6
:10176000D2689B1A7A68128AB3FBF2F3DBB218468E
:101770000C37BD465DF8047B704780B485B000AF80
:1017800078607B68002B01D10E231DE07B689B688D
:101790001A467B685B68D31AFB737B681B687A68A0
:1017A00052681A6006E07B681A681368591C116059
:1017B000FA7B1A70FB7B5A1EFA73002BF3D17B68FD
:1017C0001B6800221A71002318461437BD465DF8C5
:1017D000047B704780B584B000AF78600023FB6065
:1017E0000020FFF7F7FE7B681B681A687B685B6860
:1017F0009A421DD97B681B681A68013A1A601B68F7
:101800001B7819467868FFF790FFF8607B689B6843
:101810001A467B681B681B68D31AFB727B681B68BF
:101820001B79FA7A9A4203D97B681B68FA7A1A7193
:101830000020FFF7D9FEFB6818461037BD4680BD73
:1018400090B585B000AF786039603B68FB600020E0
:10185000FFF7C0FE7B681B681C68621C1A60F96891
:101860007868FFF776FF034623700020FFF7BCFE81
:1018700000BF1437BD4690BD80B582B000AF786020
:101880007B689B68002B0CD07B685B697A68106969
:101890007A6811687A68926898477B6800229A6033
:1018A00000E000BF0837BD4680BD0EB480B585B0EE
:1018B00000AF7860FB69002B0CD00023FB6007F1C0
:1018C0002003FB6007F10C031A46F969786800F001
:1018D000A7F900E000BF1437BD46BDE8804003B063
:1018E000704780B582B000AF78600B46FB707B68B4
:1018F0001A687B689B68581C796888601344FA787A
:101900001A707B689A687B685B689A4202D3786831
:10191000FFF7B2FF00BF0837BD4680BD80B586B077
:1019200000AFF860B9607A603B6000237B613B6880
:1019300003F00103002B21D00AE0BB680133BB6038
:101940007B6901337B61FB7C1946F868FFF7C9FFAF
:10195000BB681B78FB74FB7C002BEED106E07B6838
:10196000013B7B602021F868FFF7BBFF7A687B6949
:101970009A422BD97B68002BF1D127E0BB68002B62
:101980000BD0B86807F0CFF9786106E07B68013BBF
:101990007B602021F868FFF7A4FF7A687B699A4290
:1019A0000ED97B68002BF1D10AE0BB680133BB6024
:1019B0007B6901337B61FB7C1946F868FFF791FF77
:1019C000BB681B78FB74FB7C002BEED100BF183783
:1019D000BD4680BD80B588B000AFF860B9607A6060
:1019E0003B60BB68FB610123BB6107E0FA697B6870
:1019F000B2FBF3F3FB61BB690133BB61FA697B683E
:101A00009A42F3D23A68BB699A4201D93B68BB61FA
:101A1000FB6A03F00103002B1FD1BB6A002B1CD013
:101A2000FB6A03F00203002B05D03B68002B02D1B8
:101A30003023FB7501E02023FB7507E0BB6A013B07
:101A4000BB62FB7D1946F868FFF74BFFBB6A002BB2
:101A500003D0BA69BB6A9A42F0D30123FB613B68A9
:101A6000012B03D93B68013B3B6009E0BA68FB6985
:101A7000B2FBF3F33B613A697B689A4200D205E01E
:101A8000FB697A6802FB03F3FB61E8E7BA68FB696C
:101A9000B2FBF3F33B613B69FA6902FB03F3BA68FB
:101AA000D31ABB60154A3B6913441B781946F86882
:101AB000FFF717FFFA697B68B2FBF3F3FB61FB6981
:101AC000002BE3D1FB6A03F00103002B11D0BB6AAA
:101AD000002B0ED006E0BB6A013BBB622021F868F8
:101AE000FFF7FFFEBB6A002B03D0BA69BB6A9A42BC
:101AF000F1D300BF2037BD4680BD00BF54B5000004
:101B000080B588B002AFF860B9607A603B60BB68AE
:101B1000002BB8BF5B423B6101237B6107E07B6820
:101B20003A6992FBF3F33B617B6901337B617B682C
:101B30003A699A42F3DA3A687B699A4201D93B687A
:101B40007B613B6A002B0AD0BB68002B04DB7B6AFD
:101B500003F00403002B02D03B6A013B3B627B6A2B
:101B600003F00203002B02D03B68002B16D07B6AE7
:101B700003F00103002B11D13B6A002B0ED006E0CD
:101B80003B6A013B3B622021F868FFF7AAFE3B6AF3
:101B9000002B03D07A693B6A9A42F1D3BB68002BD1
:101BA00007DABB685B42BB602D21F868FFF799FE3E
:101BB00008E07B6A03F00403002B03D02B21F868B4
:101BC000FFF78FFE7B6A03F00203002B19D07B6ABC
:101BD00003F00103002B14D13B68002B11D13B6AA9
:101BE000002B0ED006E03B6A013B3B623021F868D7
:101BF000FFF777FE3B6A002B03D07A693B6A9A4273
:101C0000F1D3B9687B6A01933B6A00933B687A68B9
:101C1000F868FFF7DFFE00BF1837BD4680BD000043
:101C200080B58EB002AFF860B9607A60BB68002BF7
:101C300000F0E881BB681B7887F82F30BB68013360
:101C4000BB6097F82F30002B00F0D38197F82F302E
:101C5000252B40F0C28100233B620123BB62BB689D
:101C60001B7887F82F3097F82F302D2B04D0302B8E
:101C70000AD02B2B10D017E03B6A43F001033B62E4
:101C8000BB680133BB6012E03B6A43F002033B6276
:101C9000BB680133BB600AE03B6A43F004033B626C
:101CA000BB680133BB6002E00023BB6200BFBB6ABC
:101CB000002BD4D10023FB6197F82F302A2B0CD1B5
:101CC0007B681B68191D7A6811601B68FA691344E8
:101CD000FB61BB680133BB601AE0BB681B7887F807
:101CE0002F3097F82F302F2B12D997F82F30392B10
:101CF0000ED8BB680133BB60FA6913469B001344DE
:101D00005B001A4697F82F301344303BFB61D3E752
:101D100000237B62BB681B7887F82F3097F82F3041
:101D20002E2B1DD1BB680133BB60BB681B7887F8C5
:101D30002F3097F82F302F2B12D997F82F30392BBF
:101D40000ED8BB680133BB607A6A13469B0013440C
:101D50005B001A4697F82F301344303B7B62E4E770
:101D6000BB681B7887F82F3097F82F306C2B03D087
:101D700097F82F30682B07D1BB680133BB60BB6875
:101D80001B7887F82F30EFE797F82F30253B532B40
:101D900000F21E8101A252F823F000BFC71F00000D
:101DA000D11F0000D11F0000D11F0000D11F000073
:101DB000D11F0000D11F0000D11F0000D11F000063
:101DC000D11F0000D11F0000D11F0000D11F000053
:101DD000D11F0000D11F0000D11F0000D11F000043
:101DE000D11F0000D11F0000D11F0000D11F000033
:101DF000D11F0000D11F0000D11F0000D11F000023
:101E0000D11F0000D11F0000D11F0000D11F000012
:101E1000D11F0000D11F0000D11F0000D11F000002
:101E2000D11F0000D11F0000D11F0000D11F0000F2
:101E3000D11F0000D11F0000D11F0000D11F0000E2
:101E4000D11F0000D11F0000D11F0000D11F0000D2
:101E5000D11F0000D11F0000D11F0000D11F0000C2
:101E6000D11F0000D11F0000531F0000D11F000030
:101E7000D11F0000D11F0000D11F0000D11F0000A2
:101E8000D11F0000D11F0000D11F0000D11F000092
:101E9000D11F0000ED1E00000B1F0000D11F00002D
:101EA000D11F0000D11F0000D11F00000B1F000038
:101EB000D11F0000D11F0000D11F0000D11F000062
:101EC000D11F0000D11F0000931F0000D11F000090
:101ED000D11F0000771F0000D11F00002F1F00003E
:101EE000D11F0000D11F0000531F00007B681B683A
:101EF000191D7A6811601B68BB62BB6AFB76FB7EAA
:101F00001946F868FFF7EDFC63E07B681B68191D54
:101F10007A6811601B68BB623B6A0193FB6900939E
:101F20007B6A0A22B96AF868FFF7EAFD51E07B682C
:101F30001B68191D7A6811601B68BB62B96A3B6A2D
:101F40000193FB6900937B6A0A22F868FFF742FD60
:101F50003FE07B681B68191D7A6811601B68BB62D3
:101F6000B96A3B6A0193FB6900937B6A1022F868A7
:101F7000FFF730FD2DE07B681B68191D7A68116042
:101F80001B687B613B6AFA697969F868FFF7C6FCF0
:101F90001FE07B681B68191D7A6811601B68BB62B3
:101FA0003021F868FFF79DFC7821F868FFF799FC6D
:101FB000B96A002301930823009308231022F868CC
:101FC000FFF708FD05E02521F868FFF78AFC00E02F
:101FD00000BFBB680133BB6005E097F82F3019469E
:101FE000F868FFF77EFCBB681B78002B7FF422AEFD
:101FF00000E000BFFB681B7B002B04D0F868FFF7F4
:102000003BFC00E000BF3037BD4680BD80B582B0EC
:1020100000AF78607868FFF7B0FB034618460837D2
:10202000BD4680BD80B58AB000AF786039607B68FE
:102030001B8A043BFB613A68FB691344DA1CFB69A9
:10204000B2FBF3F3FB767868FFF7C4FB78617B693A
:10205000002B01D1002337E07B6900221A717B69D4
:1020600001225A71FB699AB27B69DA807B697B62D3
:10207000FB7E013B3B617B6A7A681A6000233B620E
:102080001DE07868FFF7A6FBF860FB68002B0ED018
:102090007B695B790133DAB27B695A717B6AFA68D2
:1020A0001A60FB687A681A60FB687B6204E07869F2
:1020B00000F00EF8002307E03B6A01333B623A6A06
:1020C0003B699A42DDD37B6918462837BD4680BDFF
:1020D00080B58AB000AF78607B68FB61FB695B7993
:1020E000FB767B683B62FB7E013B7B6100237B626E
:1020F00005E03B6A1B683B627B6A01337B627A6A5C
:102100007B699A42F5D33B6A1B683B617B683B6203
:1021100000237B620BE03B6A1B68FB60396A38690D
:10212000FFF78EFBFB683B627B6A01337B62FA7EC2
:102130007B6A9A42EFD800BF2837BD4680BD80B584
:1021400084B000AF78607B68FB60FB6804330121DA
:102150001846FFF79EFA00BF1037BD4680BD80B518
:1021600086B000AF78607B687B617B6904330121B6
:102170001846FFF7A7FA0346FB6007F10C033B6123
:102180003B691B78002B02D17868FFF7A1FF00BFE5
:102190001837BD4680BD80B590B000AFF860B9601B
:1021A0007A603B60FB687B62FB68FB637B6ADB8871
:1021B0001A467B6A5B7903FB02F3043B3B627B6A52
:1021C000DB88FB613B681A1DFB69B2FBF3F3BB6361
:1021D0003B680433FA69B3FBF2F2F96901FB02F2DE
:1021E0009B1A7B637B681A683B681A443B6A9A4275
:1021F00003D93A6A3B68D31A01E07B681B683B63EA
:102200007B683A6B1A6005E0FB6B1B68FB63BB6B7A
:10221000013BBB63BB6B002BF6D10023FB62FA6969
:102220007B6BD31ABB62BA6A3B6B934228BF1346DF
:10223000BB622AE0BA68FB6A1344BB61FA6B7B6B32
:10224000134404337B6197F84830002B05D0BA6AF9
:102250007969B86906F04CFD04E0BA6AB969786931
:1022600006F046FD00237B63FB6B1B68FB633A6B48
:10227000BB6AD31A3B63FA6ABB6A1344FB62FA690E
:102280003B6B934228BF1346BB623B6B002BD1D103
:1022900000BF4037BD4680BD80B588B002AFF86052
:1022A000B9607A603B607B687B6107F114020023B0
:1022B00000933B68B968F868FFF76DFF00BF1837F7
:1022C000BD4680BD80B588B002AFF860B9607A6065
:1022D0003B607B687B6107F11402012300933B683C
:1022E000B968F868FFF757FF00BF1837BD4680BDD3
:1022F00080B483B000AF78607B689B6800229A60EE
:102300007B689B6800221A617B689B6800225A6187
:102310007B689B680022DA607B689B6800225A60B9
:102320007B689B6800221A6000BF0C37BD465DF8D1
:10233000047B704780B500AF024B1B68984700BF15
:1023400080BD00BF2C08002080B483B000AF78604F
:102350007B68064A934201D1054B00E000231846F2
:102360000C37BD465DF8047B704700BF002000407D
:102370002C08002080B586B000AF7860396078689E
:10238000FFF7E2FF38613B69002B1BD00023FB7590
:102390000020FFF71FF93B691B79002B02D00123B6
:1023A000FB7505E03B693A681A603B6901221A71C6
:1023B0000020FFF719F9FB7D002B03D01123FB60F0
:1023C000FB6802E00023FB60FB6818461837BD4637
:1023D00080BD000080B483B000AF0346FB710949A3
:1023E00097F907305B09FA7902F01F02012000FA21
:1023F00002F241F8232000BF0C37BD465DF8047B94
:10240000704700BF00E100E080B483B000AF034636
:10241000FB71094997F907305B09FA7902F01F024D
:10242000012000FA02F2603341F8232000BF0C378C
:10243000BD465DF8047B704700E100E080B483B0E6
:1024400000AF03463960FB7197F90730002B0BDAB8
:102450000D49FB7903F00F03043B3A68D2B25201F5
:10246000D2B20B441A7609E0084997F907303A6866
:10247000D2B25201D2B20B4483F8002300BF0C3712
:10248000BD465DF8047B704700ED00E000E100E030
:1024900080B483B000AF78607B6803F06043B3F131
:1024A000005F0CBF01230023DBB218460C37BD468A
:1024B0005DF8047B704780B483B000AF78607B68C0
:1024C0001B0B5BB218460C37BD465DF8047B7047AA
:1024D00080B582B000AF03460A46FB711346BB715C
:1024E000BA7997F9073011461846FFF7A7FF00BFE2
:1024F0000837BD4680BD80B582B000AF0346FB7192
:1025000097F907301846FFF77FFF97F9073018460D
:10251000FFF760FF00BF0837BD4680BD80B483B0C1
:1025200000AF78600B46FB70FB787A681344012299
:102530001A6000BF0C37BD465DF8047B704780B45D
:1025400085B000AF78600B467B807B887A68134447
:1025500000221A607B887A6813441B68FB60FB6862
:1025600000BF1437BD465DF8047B704780B483B06C
:1025700000AF78600B467B807B887A6813441B68C9
:10258000002B14BF01230023DBB218460C37BD46D5
:102590005DF8047B704780B483B000AF7860396029
:1025A0007B683A68C3F8042300BF0C37BD465DF86A
:1025B000047B704780B483B000AF786039607B687B
:1025C0003A68C3F8082300BF0C37BD465DF8047BAA
:1025D000704780B483B000AF78607B680622C3F890
:1025E000002500BF0C37BD465DF8047B704780B402
:1025F00085B000AFF860B9607A60FB68BA68C3F86C
:102600000825FB687A68C3F80C2500BF1437BD465F
:102610005DF8047B704780B483B000AF78603960A8
:102620007B683A68C3F8242500BF0C37BD465DF8C7
:10263000047B704780B485B000AF78607B68D3F8C6
:10264000C434FB607B68FA68C3F8C424FB6818468E
:102650001437BD465DF8047B704780B483B000AF8B
:1026600078600B46FB70FA787B68C3F8882500BF5A
:102670000C37BD465DF8047B704780B485B000AF71
:10268000F860B9607A60BA68FB68C3F84425FB68F3
:102690007A68C3F8482500BF1437BD465DF8047B4F
:1026A000704780B485B000AFF860B9607A60BA68EE
:1026B000FB68C3F83425FB687A68C3F8382500BF87
:1026C0001437BD465DF8047B704780B483B000AF1B
:1026D000786039607B683A68C3F8002200BF0C3725
:1026E000BD465DF8047B704780B483B000AF78606E
:1026F0007B68D3F84C3518460C37BD465DF8047B33
:10270000704780B483B000AF78607B68D3F83C3505
:1027100018460C37BD465DF8047B704780B483B023
:1027200000AF78607B680122C3F8502500BF0C37EA
:10273000BD465DF8047B704780B483B000AF78601D
:102740007B680022C3F8502500BF0C37BD465DF8FA
:10275000047B704780B483B000AF78607B6801224F
:10276000C3F8402500BF0C37BD465DF8047B7047B9
:1027700080B483B000AF78607B680022C3F8402546
:1027800000BF0C37BD465DF8047B704780B483B052
:1027900000AF78604FF0A04318460C37BD465DF897
:1027A000047B704780B584B000AF7860084611465E
:1027B0001A460346FB700B46BB7013467B703B1DED
:1027C0001846FFF7E3FFF8607A68F978BB785B009A
:1027D00019437B789B0019433B7E1B0219433B7FC7
:1027E0001B041943FB6802F5E07243F8221000BF96
:1027F0001037BD4680BD80B485B000AF786003233C
:10280000FB607B6803F00203002B02D048F2012337
:10281000FB607B6803F00403002B02D048F2022324
:10282000FB60FB6818461437BD465DF8047B7047B3
:1028300080B58AB002AFF860B9607A603B60FB682F
:102840001B791A46342303FB02F3404A1344FB610D
:10285000FB6993F82D30002B03D00823BB61BB69C3
:1028600070E0FB681A68FB681B791946384B53F80F
:10287000213019461046FFF77DFD0346002B03D09B
:102880001123BB61BB695DE0FB697A681A60FB6973
:102890003A685A60FB6900229A60FB69002283F85B
:1028A0003020FB69002283F82F20BB685A7BFB692C
:1028B00083F83220BB681868002301930623009335
:1028C000032300220021FFF76DFFBB685868002337
:1028D000019306230093032300220021FFF762FFE8
:1028E000FB681B687B61BB681968BB685B681A463C
:1028F0007869FFF77CFEBB689B6819467869FFF72B
:102900008AFEFB691B68002B15D0FB681B68184604
:10291000FFF7D1FD03461A46BB681B7B19461046DC
:10292000FFF7D6FDFB681B681846FFF7C4FD03469A
:102930001846FFF7E0FDFB69012283F82D200023F4
:10294000BB61BB6918462037BD4680BD34080020F6
:1029500070B5000080B584B000AF78607B681B79EB
:102960001A46342303FB02F3074A1344FB607B68D7
:102970001B681846FFF72DFEFB68022283F82D2006
:1029800000BF1037BD4680BD3408002080B485B03C
:1029900000AF78607B681B791A46342303FB02F38F
:1029A000064A1344FB60FB6893F82F30DBB21846ED
:1029B0001437BD465DF8047B704700BF3408002023
:1029C00080B582B000AF786039603B6803F00103E6
:1029D000002B03D07868FFF7A1FE02E07868FFF7CC
:1029E000ABFE3B6803F00203002B03D07868FFF7CF
:1029F000B1FE02E07868FFF7BBFE00BF0837BD46B6
:102A000080BD0000B0B588B000AFF860B9607A60F2
:102A10003B600023FB610823FB764FF482733B830A
:102A20007B68DB681846FFF733FD034683F001033C
:102A3000DBB2002B03D01023FB61FB6977E1A049D7
:102A4000B868FFF7B7FDFB6893F82F30DBB2002BB7
:102A500009D0FB689B681946B868FFF79CFD1123F5
:102A6000FB61FB6963E13B6803F00403002B06D1C3
:102A70003B6803F01003002B01D1012300E0002389
:102A800003F00103DAB2FB6883F82F20FB687A6851
:102A900003F10C0415460FCD0FC42B6823603B686F
:102AA00003F01003002B14BF01230023DAB2FB68EC
:102AB00083F830207B685B781946B868FFF7CDFD56
:102AC0004FF48271B868FFF73AFD4FF49271B8681D
:102AD000FFF735FD3968B868FFF772FF7B681B7830
:102AE000032B00F2C88001A252F823F0EF2B000064
:102AF000472C00009D2B0000FD2A00007B681B690D
:102B00001846FFF7C5FC034683F00103DBB2002B38
:102B100003D01023FB61FB6909E14FF48071B868B1
:102B2000FFF7D3FD7B68D9687B685B681A46B86895
:102B3000FFF7A3FD4FF4A871B868FFF700FD4FF44D
:102B4000B071B868FFF7FBFC4FF4A471B868FFF7E9
:102B5000F6FC2021B868FFF7E1FC0821B868FFF710
:102B6000DDFC00BF4FF4A871B868FFF7FFFC034617
:102B700083F00103DBB2002BF4D14FF4A871B868E5
:102B8000FFF7DDFC7B6819697B689B681A46B868AB
:102B9000FFF773FDFB684B4A9A606FE07B68D9686A
:102BA0007B685B681A46B868FFF767FD7B681B693E
:102BB0001846FFF76DFC034683F00103DBB2002BE0
:102BC00003D01023FB61FB69B1E07B6819697B6866
:102BD0009B681A46B868FFF764FD4FF48451B868E3
:102BE000FFF773FDFB6840F202229A6046E07B68C3
:102BF000D9687B685B681A46B868FFF73EFD3B689A
:102C000003F02003002B10D04FF48071B868FFF759
:102C10005CFDFB682B4A9A604FF4A471B868FFF71B
:102C20008EFC4FF4A4733B8308E04FF40071B86846
:102C3000FFF74BFDFB6840F202229A602021B86842
:102C4000FFF76CFC1AE07B68D9687B685B681A4602
:102C5000B868FFF726FD4FF48051B868FFF735FDDF
:102C6000FB6840F202229A600023FB762021B868BC
:102C7000FFF754FC02E00723FB6100BF3B6803F051
:102C80000803002B08D17B681B78032B04D0FB7E44
:102C90001946B868FFF742FCFB681B68002B2BD075
:102CA0003B6803F00403002B03D0FB684FF4007271
:102CB0009A60FB689B681946B868FFF76CFC35E0C2
:102CC00002029C01000204004FF49271B868FFF701
:102CD0004DFC0346002B0FD04FF49271B868FFF7FC
:102CE0002EFC2021B868FFF719FC1421B868FFF703
:102CF00015FC4FF482733B833B8B1946B868FFF792
:102D000035FC034683F00103DBB2002BDCD1B8684D
:102D1000FFF790FC7861FB68002283F82F207B6925
:102D2000002B03D07869FFF766FDF861FB69184650
:102D30002037BD46B0BD00BF80B586B000AFF8609B
:102D4000B9607A6000237B61FB681B791A463423E3
:102D500003FB02F3074A13443B61FB6819687B6875
:102D6000BA683869FFF74EFE78617B6918461837F4
:102D7000BD4680BD34080020B0B58AB000AF786091
:102D800039604FF492717868FFF7F0FB0346002B2F
:102D900027D04FF492717868FFF7D1FB4FF482711E
:102DA0007868FFF7E3FB034683F00103DBB2002BF7
:102DB00017D03B689B6819467868FFF7FBFB3B68B8
:102DC00002229A603B689B6819467868FFF7E3FB2C
:102DD00020217868FFF7A2FB14217868FFF79EFB9B
:102DE000C5E04FF482717868FFF7C0FB0346002B03
:102DF00051D04FF482717868FFF7A1FB3B6807F16F
:102E0000100403F10C050FCD0FC42B6823603B6841
:102E100093F82E30002B1BD03B681B7B012B04D179
:102E20007868FFF76EFC034603E07868FFF75CFC08
:102E300003467B613B681B7B022B04D17868FFF75C
:102E400060FC034603E07868FFF74EFC0346BB6175
:102E50004FF4B0717868FFF772FB4FF4AE71786889
:102E6000FFF76DFB3B6893F8303083F00103DBB272
:102E7000002B04D13B6893F82E30002B4DD000215D
:102E80007868FFF722FC3B6800229A60394978682D
:102E9000FFF790FB41E04FF4A4717868FFF74FFB18
:102EA0003B681B7B002B1CD13B6807F1100403F12E
:102EB0000C050FCD0FC42B6823603B6893F83030AE
:102EC00083F00103DBB2002B27D000217868FFF7E5
:102ED000FCFB3B6800229A6026497868FFF76AFB92
:102EE0001BE04FF400717868FFF7EFFB3B6840F29E
:102EF00002229A601F497868FFF75CFB3B689B6879
:102F000019467868FFF747FB08217868FFF706FB4A
:102F100020217868FFF702FB29E07868FFF78AFB39
:102F200078627B6A03F00203002B02D001233B731B
:102F300009E07B6A03F00403002B02D002233B73F9
:102F400001E000233B733B6893F8303083F00103CA
:102F5000DBB2002B03D03B68002283F82F203B68B4
:102F60001B683A68516807F10C02104698472837E9
:102F7000BD46B0BD02029C0180B500AF02490348C6
:102F8000FFF7FAFE00BF80BD34080020003000408B
:102F900080B483B000AF0346FB71094997F907304D
:102FA0005B09FA7902F01F02012000FA02F241F8EF
:102FB000232000BF0C37BD465DF8047B704700BF7F
:102FC00000E100E080B483B000AF0346FB71094923
:102FD00097F907305B09FA7902F01F02012000FA25
:102FE00002F2603341F8232000BF0C37BD465DF884
:102FF000047B704700E100E080B483B000AF03467B
:103000003960FB7197F90730002B0BDA0D49FB791A
:1030100003F00F03043B3A68D2B25201D2B20B4420
:103020001A7609E0084997F907303A68D2B2520196
:10303000D2B20B4483F8002300BF0C37BD465DF8C5
:10304000047B704700ED00E000E100E080B483B055
:1030500000AF78607B6803F06043B3F1005F0CBFA2
:1030600001230023DBB218460C37BD465DF8047B14
:10307000704780B483B000AF78607B681B0B5BB295
:1030800018460C37BD465DF8047B704780B582B0AA
:1030900000AF03460A46FB711346BB71BA7997F934
:1030A000073011461846FFF7A7FF00BF0837BD4697
:1030B00080BD80B582B000AF0346FB7197F9073041
:1030C0001846FFF77FFF97F907301846FFF760FFB4
:1030D00000BF0837BD4680BD80B485B000AF7860C2
:1030E0000B467B807B887A68134400221A607B88B9
:1030F0007A6813441B68FB60FB6800BF1437BD4649
:103100005DF8047B704780B483B000AF78600B46F5
:103110007B807B887A6813441B68002B14BF0123D3
:103120000023DBB218460C37BD465DF8047B7047C0
:1031300080B483B000AF786039607B68D3F8002238
:103140003B68DB431A407B68C3F8002200BF0C37A2
:10315000BD465DF8047B704780B483B000AF7860F3
:1031600039607B683A68C3F8042300BF0C37BD465A
:103170005DF8047B704780B485B000AF78607B68F1
:10318000D3F88034FB607B68FA68C3F88024FB685E
:1031900018461437BD465DF8047B704780B483B091
:1031A00000AF78607B680822C3F8002500BF0C37A9
:1031B000BD465DF8047B704780B485B000AFF86011
:1031C000B9607A60FB68BA68C3F80C25FB687A6856
:1031D000C3F8142500BF1437BD465DF8047B704763
:1031E00080B485B000AFF860B9607A60FB68BA68F7
:1031F000C3F80825FB687A68C3F8102500BF1437A8
:10320000BD465DF8047B704780B483B000AF786042
:103210000B46FB70FB787A68134401221A6000BFEA
:103220000C37BD465DF8047B704780B483B000AFB7
:1032300078600B46FB701346BB70FA78BB7813437B
:10324000DBB21A467B68C3F86C2500BF0C37BD465D
:103250005DF8047B704780B483B000AF786039605C
:103260007B683A68C3F8242500BF0C37BD465DF87B
:10327000047B704780B485B000AFF860B9607A60B5
:10328000BA68FB68C3F84425FB687A68C3F8482528
:1032900000BF1437BD465DF8047B704780B483B02F
:1032A00000AF78607B68D3F84C3518460C37BD46C4
:1032B0005DF8047B704780B483B000AF78607B68B2
:1032C000D3F83C3518460C37BD465DF8047B704793
:1032D00080B483B000AF78604FF0A04318460C373D
:1032E000BD465DF8047B704780B584B000AF786060
:1032F000084611461A460346FB700B46BB70134640
:103300007B703B1D1846FFF7E3FFF8607A68F97899
:10331000BB785B0019437B789B0019433B7E1B0203
:1033200019433B7F1B041943FB6802F5E07243F825
:10333000221000BF1037BD4680BD80B584B002AFFB
:1033400078600023019300230093002301220121D0
:103350007868FFF7C9FF00BF0837BD4680BD80B55C
:1033600084B002AF78600B46FB70FA7800230193BB
:10337000002300931346002200217868FFF7B4FF72
:1033800000BF0837BD4680BD80B584B000AF78600F
:103390003B1D1846FFF79CFFF8607B68012202FA8C
:1033A00003F31946F86800F004F800BF1037BD4673
:1033B00080BD80B483B000AF786039607B683A68C4
:1033C000C3F8082500BF0C37BD465DF8047B704785
:1033D00080B582B000AF786039603B681B68B3F19C
:1033E000FF3F09D03B681B681846FFF7CDFF3B68DD
:1033F0001B681846FFF7A1FF3B685B68B3F1FF3F0E
:1034000005D03B685B6800211846FFF7A8FF7B6882
:103410001A683B689B6919461046FFF71CFF7B68DA
:1034200018683B68597D3B681B7D1A46FFF7FDFE17
:103430007B6818683B6819683B685B681A46FFF749
:10344000BBFE3B681B7D012B22D13B689B68B3F11F
:10345000FF3F05D03B689B6800211846FFF77FFFC0
:103460003B68DB68B3F1FF3F09D03B68DB68184677
:10347000FFF78AFF3B68DB681846FFF75EFF7B6853
:1034800018683B68D9683B689B681A46FFF7A8FE36
:1034900000BF0837BD4680BD80B582B000AF786000
:1034A0000B46FB707B681B684FF488711846FFF76A
:1034B00013FE7B681B684FF490711846FFF70CFEF3
:1034C0007B681B684FF492711846FFF705FE7B6816
:1034D0001B684FF4A2711846FFF7FEFD7B681B685E
:1034E0000E491846FFF738FE7B681B681846FFF741
:1034F000C0FD03461A46FB7819461046FFF7C6FD85
:103500007B681B681846FFF7B4FD03461846FFF7B3
:10351000D0FD00BF0837BD4680BD00BF10030200CC
:1035200080B586B000AFF860B9607A60FB681B793F
:103530001A461346DB0013449B00264A13447B6162
:1035400000233B617B6993F82030002B03D00823D4
:103550003B613B693AE0FB681A68FB681B791946D6
:103560001D4B53F8213019461046FEF703FF034662
:10357000002B03D011233B613B6927E0B968F86851
:10358000FFF726FF7B697A685A60BB681A697B6916
:103590001A607B695B68002B05D0BB681B7F1946EE
:1035A000F868FFF779FFFB681B681846FFF7F6FD20
:1035B0007B6900229A617B690022DA617B690022C3
:1035C0005A617B69012283F820203B69184618372D
:1035D000BD4680BD6808002084B5000080B588B075
:1035E00000AFF860B9607A60FB681B791A46134631
:1035F000DB0013449B00374A1344BB61B868FFF7F4
:1036000025FD034683F00103DBB2002B03D010231A
:10361000FB61FB6959E0F86800F05EF80346002B97
:1036200003D01123FB61FB694FE0BB697A685A61E3
:10363000BB69BA689A600023FB61FB681B684FF4A2
:1036400090711846FFF748FDFB681B684FF4AC719A
:103650001846FFF741FDFB681868BB699968BB69AC
:103660005B691A46FFF706FEFB681B6808211846CF
:10367000FFF7CAFDBB695B68002B25D1FB681B689F
:103680004FF490711846FFF73EFD0346FB75FB684B
:103690001B684FF4AC711846FFF735FD0346BB7548
:1036A000FB7D83F00103DBB2002B05D0BB7D83F0F3
:1036B0000103DBB2002BE1D1BB7D002B01D00F2336
:1036C000FB61BB6900225A61FB6918462037BD4681
:1036D00080BD00BF6808002080B483B000AF786070
:1036E0007B681B791946094A0B46DB000B449B009B
:1036F000134414331B68002B14BF01230023DBB2D7
:1037000018460C37BD465DF8047B704768080020FA
:1037100080B588B000AFF860B9607A6001233B746F
:10372000BB68DBB23B767B687B61FB685B68FA68F1
:10373000116807F110021046984700BF2037BD46B8
:1037400080BD80B586B000AF7860396000233B72E1
:103750003B68DBB23B747B689B68FB607B68002244
:103760005A617B685B687A68116807F10802104645
:10377000984700BF1837BD4680BD80B588B000AF00
:10378000786039604FF492717868FFF7BCFC0346AB
:10379000002B23D04FF492717868FFF79DFC022331
:1037A0003B727868FFF7E7FC03467B617868FFF7B8
:1037B00082FD0346DBB23B743B68DB68FB603B6821
:1037C00000229A613B680022DA613B685B683A68D4
:1037D000116807F10802104698473BE04FF48871E2
:1037E0007868FFF790FC0346002B33D04FF48871C4
:1037F0007868FFF771FC7868FFF75DFDF8613B685A
:103800009A69FB699A4225D13B68DB69002B17D086
:103810003B68DB68BB6120217868FFF789FC3B6867
:10382000DA693B689A613B681A693B68DA603B6811
:103830000022DA61BA69F9693868FFF769FF09E0BF
:103840003B6800229A613B68DB681A46F969386870
:10385000FFF75EFF4FF4A2717868FFF754FC034650
:10386000002B15D04FF4A2717868FFF735FC3B6848
:103870009B69002B0CD03B6800229A617868FFF7A7
:103880001AFD01463B68DB681A463868FFF740FFBF
:103890004FF490717868FFF736FC0346002B10D088
:1038A0004FF490717868FFF717FC3B685B69002B59
:1038B00007D07868FFF7F2FC034619463868FFF72F
:1038C00040FF00BF2037BD4680BD000080B500AF7F
:1038D00002490348FFF751FF00BF80BD6808002080
:1038E0000020004080B582B002AFAC4BD3ED007A2F
:1038F000B6EE007AF4EEC77AF1EE10FA00DCD8E109
:10390000A74AA84BD31ADB081B0443F00500A64BBB
:103910001B68D3ED007AF5EEC07AF1EE10FA0CD503
:10392000A14B1B68D3ED007ABFEE007AF4EEC77AA4
:10393000F1EE10FA01DD9D4A00E09D4A9A4B1B68AA
:10394000D3ED007AFDEEE77A17EE901A964B1B68DE
:10395000D3ED007AF5EEC07AF1EE10FA16DD924B57
:103960001B6893ED007A904B1B68D3ED007AFDEE57
:10397000E77AF8EEE77A77EE677A9FED8E7A67EE70
:10398000877AFDEEE77A17EE903A15E0864B1B68D2
:10399000D3ED007AFDEEE77AB8EEE77A824B1B684A
:1039A000D3ED007A77EE677A9FED827A67EE877AB9
:1039B000FDEEE77A17EE903A00930B467E49FDF74D
:1039C0005DF9774A774BD31ADB081B0443F00500F7
:1039D000754B1B68D3ED017AF5EEC07AF1EE10FA63
:1039E0000CD5714B1B68D3ED017ABFEE007AF4EE73
:1039F000C77AF1EE10FA01DD6C4A00E06C4A6A4BBE
:103A00001B68D3ED017AFDEEE77A17EE901A664B4C
:103A10001B68D3ED017AF5EEC07AF1EE10FA16DDEF
:103A2000614B1B6893ED017A5F4B1B68D3ED017A04
:103A3000FDEEE77AF8EEE77A77EE677A9FED5D7A4A
:103A400067EE877AFDEEE77A17EE903A15E0564B6F
:103A50001B68D3ED017AFDEEE77AB8EEE77A524BB8
:103A60001B68D3ED017A77EE677A9FED527A67EEA5
:103A7000877AFDEEE77A17EE903A00930B464F49AE
:103A8000FDF7FCF8464A474BD31ADB081B0443F00A
:103A90000500454B1B68D3ED027AF5EEC07AF1EED6
:103AA00010FA0CD5404B1B68D3ED027ABFEE007ABA
:103AB000F4EEC77AF1EE10FA01DD3C4A00E03C4A30
:103AC000394B1B68D3ED027AFDEEE77A17EE901AB8
:103AD000354B1B68D3ED027AF5EEC07AF1EE10FAA1
:103AE00016DD314B1B6893ED027A2F4B1B68D3ED2B
:103AF000027AFDEEE77AF8EEE77A77EE677A9FEDE5
:103B00002D7A67EE877AFDEEE77A17EE903A15E0A8
:103B1000254B1B68D3ED027AFDEEE77AB8EEE77A23
:103B2000214B1B68D3ED027A77EE677A9FED217AFD
:103B300067EE877AFDEEE77A17EE903A00930B4630
:103B40001F49FDF79BF8164A164BD31ADB081B04D6
:103B500043F005001B4B1B6807EE903AF8EE676ACE
:103B60000E4B93ED007AC6EE877AF5EEC07AF1EE51
:103B700010FA29D5134B1B6807EE903AF8EE676AE6
:103B8000064B93ED007AC6EE877ABFEE007AF4EE2C
:103B9000C77AF1EE10FA17DD044A16E09408002007
:103BA00084BB00004CBB00008C0800208CB50000DA
:103BB00090B500000000C84294B50000A8B5000010
:103BC000BCB50000900800203B4A3C4B1B6807EE48
:103BD000903AF8EE676A3A4B93ED007AC6EE877A30
:103BE000FDEEE77A17EE901A344B1B6807EE903A19
:103BF000F8EE676A324B93ED007AC6EE877AF5EEFF
:103C0000C07AF1EE10FA24DD2C4B1B6807EE903AD7
:103C1000F8EE676A2A4BD3ED007A86EEA77A274B37
:103C20001B6807EE903AB8EE676A254BD3ED006A41
:103C3000C6EE267AFDEEE77AF8EEE77A77EE677A57
:103C40009FED207A67EE877AFDEEE77A17EE903ADD
:103C500023E01A4B1B6807EE903AF8EE676A184BA0
:103C600093ED007AC6EE877AFDEEE77AB8EEE77A52
:103C7000124B1B6807EE903AB8EE676A104BD3ED13
:103C8000006AC6EE267A77EE677A9FED0E7A67EEC7
:103C9000877AFDEEE77A17EE903A00930B460A49D1
:103CA000FCF7ECFF054B00221A60054B4FF00002B9
:103CB0001A6000BFBD4680BD90B50000900800208E
:103CC000940800200000C842D0B5000000000000A9
:103CD000F0B52DED048B89B000AF00210020FCF77A
:103CE000DFFCB861BB69002B02D0B869FDF7E8FBC7
:103CF000FCF75EFCBC4ABD4BD31ADB081B0443F047
:103D00000303BB491846FCF781FFB74AB74BD31AE8
:103D1000DB081B0443F00303B6491846FCF776FFA3
:103D200002F056FEB04AB14BD31ADB081B0443F035
:103D30000303B1491846FCF769FF03F0C3FD00F027
:103D4000EFFE0346FB75A84AA84BD31ADB081B04F9
:103D500043F00303FA7DA9491846FCF766FFFB7D93
:103D6000712B40F03581A04AA04BD31ADB081B040D
:103D700043F00303A2491846FCF748FF00F0F4FEA5
:103D8000994A9A4BD31ADB081B0443F003039D495D
:103D90001846FCF73BFF01F0BFFC0123012B0DD1BE
:103DA000914A924BD31ADB081B0443F00303964954
:103DB0001846FCF72BFF1C2003F02AFC8A4A8B4B89
:103DC000D31ADB081B0443F0030390491846FCF7A1
:103DD0001DFF8F4802F026FA834A844BD31ADB0872
:103DE0001B0443F003038B491846FCF70FFF012324
:103DF000002B04D14FF4487003F094FB05E001233D
:103E0000012B02D1C82003F08DFB00F09BFE03467E
:103E1000BB75754A754BD31ADB081B0443F00303CB
:103E2000BA7D7D491846FCF700FF6F4A6F4BD31AE5
:103E3000DB081B0443F0030378491846FCF7E6FE51
:103E400002F0D4FA684A694BD31ADB081B0443F02A
:103E5000030373491846FCF7D9FE00BFFCF738FF8F
:103E60000346002BFAD120BF0123002B04D102F01E
:103E7000EDFB0346FB7706E00123012B03D103F0A2
:103E8000F9FB0346FB77FB7F83F00103DBB2002BDA
:103E9000E9D102F0F3FB386102F05CFCF86002F05B
:103EA000C5FCB86003F054FB87ED010A5D4B93ED50
:103EB000007AD7ED017A77EE277A5A4BC3ED007A74
:103EC000594B1B680133584A13603B6993ED018AD3
:103ED0003B69D3ED028A3B6993ED039AFB685B680B
:103EE000184606F045FF3EA3D3E9002306F094FFF1
:103EF00003460C461846214607F03EFA0546FB6885
:103F00009B68184606F034FF35A3D3E9002306F07A
:103F100083FF03460C461846214607F02DFA064655
:103F2000FB68DB68184606F023FF2DA3D3E90023C6
:103F300006F072FF03460C461846214607F01CFAAD
:103F40000246BB6893ED027ABB68D3ED016ABB6899
:103F5000D3ED037AF1EE677AD7ED014AB0EE674A06
:103F6000F0EE663AB0EE473A02EE902A02EE106AA0
:103F700001EE905AB0EE491AF0EE680AB0EE480A27
:103F800002F08EFE03F0C4FA0346184603F088FBE5
:103F90000246264B1A60FFF7A5FC244B1B68042140
:103FA000184603F0B3FC214B1B6804330421184668
:103FB00003F0ACFC1D4B1B6808330421184603F0CA
:103FC000A5FC00BFFCF784FE0346002BFAD14AE7AC
:103FD000002318462437BD46BDEC048BF0BD00BF5E
:103FE000399D52A246DF913F84BB00004CBB0000CC
:103FF000E4B50000FCB5000008B6000014B60000EF
:104000003CB6000048B6000054B6000060B60000A0
:1040100088B500006CB6000080B60000A8B60000AD
:10402000B4B6000094080020900800208C080020FE
:1040300080B582B000AF1F4B7B607B6802221A61A3
:104040007B6802225A617B681B4A9A617B681B4A23
:10405000DA617B684FF400721A627B6800229A6210
:104060007B6800225A627B680022DA627B68124A0F
:104070009A647B68124ADA647B6810221A657B684E
:1040800000229A657B6800225A657B680022DA6507
:104090007B6807330B49184604F03DFE7B680A49EC
:1040A000184604F038FE7B6820229A7100BF08375A
:1040B000BD4680BDD80B0020C8B60000980800207F
:1040C000980A0020D4B60000D8B6000080B588B0A9
:1040D00000AFF860B9607A600023BB61FB68DB6801
:1040E0007B61FB681B693B613A697B699A4205D930
:1040F0003A697B69D31A013BFB6107E0FB689A6868
:1041000039697B69CB1A1344013BFB61FB689A68F0
:104110007B69D31AFA69934228BF1346FB61FA6997
:104120007B68934228BF1346FB61FB685A687B6932
:104130001344FA69B968184604F0DAFDBA69FB69F4
:104140001344BB61BA68FB691344BB607A68FB69BE
:10415000D31A7B607A69FB6913447B61FB689A68B8
:104160007B699A4201D100237B61FB687A69DA603E
:104170007B68002BB5D1BB6918462037BD4680BD92
:1041800080B588B000AFF860B9607A60FB68DB6822
:10419000FB61FB689A68FB69D31ABB61BA697B68EB
:1041A0009A420ED9FB685A68FB6913447A68B96869
:1041B000184604F09DFDFA697B681A44FB68DA60D2
:1041C0001AE0BB697B61FB685A68FB6913447A6932
:1041D000B968184604F08CFD7A68BB69D31A7B6114
:1041E000FB685868BA68BB6913447A69194604F0D9
:1041F0007FFDFB687A69DA6000BF2037BD4680BD6D
:1042000080B487B000AF78607B681B693B617B68D6
:10421000DB68FB603A69FB689A4208D87B689A6859
:10422000FB68D21A3B691344013B7B6104E03A69A5
:10423000FB68D31A013B7B617B6918461C37BD467E
:104240005DF8047B7047000080B588B000AFF8606F
:10425000B9607A60BB68BB61FB685A1C13465B009F
:104260001344DB001E4A13447B617B695B69012BAD
:1042700017D0012B02D3022B23D029E07869FFF756
:10428000BFFF38613A697B689A4202D20023FB6122
:1042900021E07B68FB617A68B9697869FFF770FF94
:1042A00019E07869FFF7ACFF38617A683B6993429F
:1042B00028BF1346FB61FA69B9697869FFF760FFA7
:1042C00009E07A68B9697869FFF700FFF86102E0F0
:1042D0000023FB6100BFFB6918462037BD4680BD47
:1042E000D80B002080B500AFFFF7A2FE00BF80BD55
:1042F00080B400AFBFF34F8F0549054BDB6803F473
:10430000E062044B1343CB60BFF34F8F00BFFDE768
:1043100000ED00E00400FA0580B400AF034B044A4E
:104320001A6000BFBD465DF8047B70474000002066
:104330000090D00380B500AF00F068F90346002B71
:1043400006D0A04AA04B1B681B0A03F01F03136092
:1043500000F08EF90346002B02D09C4B9C4A1A6059
:1043600000F0A8F90346002B06D09A4A9A4B1B6826
:104370005B0B03F00703136000F0CEF90346002B3C
:1043800005D0964A954BDB6823F08073D36000F02C
:10439000E5F90346002B0ED04FF080430022C3F80E
:1043A0000C214FF080430022C3F810214FF08043CE
:1043B0000022C3F8382500F003FA0346002B02D090
:1043C000874B03221A6000F01DFA0346002B0BD026
:1043D000844B05221A60844B01221A60834B002211
:1043E0001A60834B3F221A6000F02EFA0346002B1E
:1043F00076D0804A4FF08053D3F80434C2F8203589
:104400007C4A4FF08053D3F80834C2F82435794AF7
:104410004FF08053D3F80C34C2F82835754A4FF06A
:104420008053D3F81034C2F82C35724A4FF08053C1
:10443000D3F81434C2F830356E4A4FF08053D3F8B5
:104440001834C2F834356B4A4FF08053D3F81C341B
:10445000C2F84035674A4FF08053D3F82034C2F891
:104460004435644A4FF08053D3F82434C2F84835B9
:10447000604A4FF08053D3F82834C2F84C355D4A77
:104480004FF08053D3F82C34C2F85035594A4FF0CE
:104490008053D3F83034C2F85435564A4FF0805325
:1044A000D3F83434C2F86035524A4FF08053D3F811
:1044B0003834C2F864354F4A4FF08053D3F83C3457
:1044C000C2F868354B4A4FF08053D3F84034C2F8F5
:1044D0006C35484A4FF08053D3F84434C2F87035F5
:1044E00000F0D4F90346002B05D0434A434B1B6828
:1044F00003F04F03136000F0FBF90346002B0DD0CF
:104500004FF08043D3F8003403F00103002B05D0B3
:104510004FF080436FF00102C3F8002400F01AFA54
:104520000346002B05D0364A354B1B6843F48063A5
:104530001360344A334BD3F8883043F47003C2F825
:104540008830BFF34F8FBFF36F8F4FF01023D3F836
:104550000032002B05DB4FF01023D3F80432002B80
:104560002BDA294B0122C3F8042500BF264BD3F8D0
:104570000034002BFAD04FF010231522C3F800228C
:1045800000BF214BD3F80034002BFAD04FF010239A
:104590001522C3F8042200BF1B4BD3F80034002BB4
:1045A000FAD0194B0022C3F8042500BF164BD3F8EC
:1045B0000034002BFAD0FFF79BFEFFF7ADFE00BFE3
:1045C00080BD00BF403501402403001074C0074087
:1045D0000DF0ADBA3C05004044020010F0ED00E0E3
:1045E000A005004010560040885600401856004074
:1045F0001456004000C00040E40E00405802001075
:104600003C17004000ED00E000E0014080B400AF46
:10461000144B1B68DBB2062B1DD1134B1B6803F038
:104620000F03002B17D1114B1B6803F0F003302B45
:1046300001D1012310E00D4B1B6803F0F003402B68
:1046400001D1012308E0094B1B6803F0F003502B54
:1046500001D1012300E000231846BD465DF8047B2C
:10466000704700BFE00F00F0E40F00F0E80F00F02B
:1046700080B400AF0C4B1B68DBB2062B0DD10B4B8B
:104680001B6803F00F03002B07D1094B1B6803F0D5
:10469000F003302B01D1012300E000231846BD4672
:1046A0005DF8047B704700BFE00F00F0E40F00F0FE
:1046B000E80F00F080B400AF144B1B68DBB2062B90
:1046C0001DD1134B1B6803F00F03002B17D1114BA7
:1046D0001B6803F0F003302B01D1012310E00D4BD8
:1046E0001B6803F0F003402B01D1012308E0094BC4
:1046F0001B6803F0F003502B01D1012300E00023DD
:104700001846BD465DF8047B704700BFE00F00F01F
:10471000E40F00F0E80F00F080B400AF0C4B1B6812
:10472000DBB2062B0DD10B4B1B6803F00F03002BE4
:1047300007D1094B1B6803F0F003302B01D1012393
:1047400000E000231846BD465DF8047B704700BFBB
:10475000E00F00F0E40F00F0E80F00F080B400AFCD
:10476000144B1B68DBB2062B1DD1134B1B6803F0E7
:104770000F03002B17D1114B1B6803F0F003302BF4
:1047800001D1012310E00D4B1B6803F0F003402B17
:1047900001D1012308E0094B1B6803F0F003502B03
:1047A00001D1012300E000231846BD465DF8047BDB
:1047B000704700BFE00F00F0E40F00F0E80F00F0DA
:1047C00080B400AF0C4B1B68DBB2062B0DD10B4B3A
:1047D0001B6803F00F03002B07D1094B1B6803F084
:1047E000F003302B01D1012300E000231846BD4621
:1047F0005DF8047B704700BFE00F00F0E40F00F0AD
:10480000E80F00F080B400AF0C4B1B68DBB2062B46
:104810000DD10B4B1B6803F00F03002B07D1094B85
:104820001B6803F0F003302B01D1012300E00023CB
:104830001846BD465DF8047B704700BFE00F00F0EE
:10484000E40F00F0E80F00F080B400AF0C4B1B68E1
:10485000DBB2062B0DD10B4B1B6803F00F03002BB3
:1048600007D1094B1B6803F0F003502B01D1012342
:1048700000E000231846BD465DF8047B704700BF8A
:10488000E00F00F0E40F00F0E80F00F080B400AF9C
:10489000144B1B68DBB2062B1DD1134B1B6803F0B6
:1048A0000F03002B17D1114B1B6803F0F003302BC3
:1048B00001D1012310E00D4B1B6803F0F003402BE6
:1048C00001D1012308E0094B1B6803F0F003502BD2
:1048D00001D1012300E000231846BD465DF8047BAA
:1048E000704700BFE00F00F0E40F00F0E80F00F0A9
:1048F00080B400AF144B1B68DBB2062B1DD1134BE9
:104900001B6803F00F03002B17D1114B1B6803F03A
:10491000F003302B01D1012310E00D4B1B6803F095
:10492000F003402B01D1012308E0094B1B6803F081
:10493000F003502B01D1012300E000231846BD46AF
:104940005DF8047B704700BFE00F00F0E40F00F05B
:10495000E80F00F080B400AF074B1B68062B05D1B1
:10496000064B1B68062B01D1012300E000231846EB
:10497000BD465DF8047B7047300100103401001023
:1049800080B584B000AF78607B68002B0AD0074BFD
:1049900043F00103FB607B689B01BB60FB68B86868
:1049A000984700E000BF1037BD4680BD60B90000E9
:1049B00080B582B000AF78607B68002B0AD04FF4DE
:1049C0007A70FFF7DDFF7B68013B7B607B68002B23
:1049D000F5D100E000BF0837BD4680BD80B400AF10
:1049E0002B4B1B78032B1FD801A252F823F000BFDA
:1049F000014A00000B4A0000154A00001F4A00004F
:104A0000244B4FF062521A600EE0224B4FF064527A
:104A10001A6009E01F4B4FF066521A6004E01D4B0C
:104A20004FF068521A6000BF1B4B1B78032B1BD83A
:104A300001A252F823F000BF494A0000514A000089
:104A4000594A0000614A0000144B154A1A600BE0F5
:104A5000124B144A1A6007E0104B134A1A6003E025
:104A60000E4B124A1A6000BF114B1B78002B02D06C
:104A7000012B04D007E00F4B0F4A1A6003E00D4BE7
:104A80000E4A1A6000BF00BFBD465DF8047B704748
:104A9000A80A0020000B0020A90A0020040B002017
:104AA0000000FA3B00007A3C0000FA3C00007A3D2E
:104AB00046000020080B0020FFEBBF40FFEBBF3F8C
:104AC00080B400AF064B074A1A60054B064A5A608D
:104AD000034B064A9A6000BFBD465DF8047B7047F1
:104AE000DC0A002000804E4300008BC39A991342D9
:104AF00080B400AF064B074A1A60054B064A5A605D
:104B0000034B064A9A6000BFBD465DF8047B7047C0
:104B1000E80A0020F6287C3F6666863F85EB713FF9
:104B200080B582B000AF064B1878FA1D01237521BD
:104B300001F0B6FFFB7918460837BD4680BD00BFBF
:104B40004400002080B582B000AF064B1878FA1DF3
:104B50000123002101F0A4FFFB7918460837BD4668
:104B600080BD00BF45000020F0B5A1B002AF07F145
:104B7000540300221A609A8007F14C0300221A6045
:104B80009A8007F1400300221A605A609A6007F188
:104B9000340300221A605A609A6007F12803002249
:104BA0001A605A609A6007F11C0300221A605A606A
:104BB0009A60002387F86330C823FB65954B1B7808
:104BC00000221921184601F027FF924B1B78022280
:104BD0001A21184601F020FF8E4B187897F86330A1
:104BE000DB00DBB21A461B2101F016FF894B1B7854
:104BF00002221D21184601F00FFF864B187897F806
:104C00006330DB00DBB21A461C2101F005FF0023F4
:104C10007B675AE07F4B187807F1540206233B214B
:104C200001F03EFF3B6C97F85420120211B297F846
:104C3000552012B20A4312B213443B647B6C97F8BE
:104C40005620120211B297F8572012B20A4312B23C
:104C500013447B64BB6C97F85820120211B297F88A
:104C6000592012B20A4312B21344BB64694B18783C
:104C700007F154020623432101F012FF7B6B97F8E2
:104C80005420120211B297F8552012B20A4312B200
:104C900013447B63BB6B97F85620120211B297F84E
:104CA000572012B20A4312B21344BB63FB6B97F84E
:104CB0005820120211B297F8592012B20A4312B2C8
:104CC0001344FB637B6F01337B677A6FFB6D9A4202
:104CD000A0DB00233B6724E03B6F9B0007F17802D9
:104CE000134453F8382CFB6D92FBF3F23B6F9B009F
:104CF00007F178010B4443F8382C3B6F9B0007F118
:104D00007802134453F8442CFB6D92FBF3F23B6F93
:104D10009B0007F178010B4443F8442C3B6F0133AF
:104D20003B673B6F022BD7DD3A4B1B78E0221C21FF
:104D3000184601F071FE374B1B78E0221B21184604
:104D400001F06AFE1920FFF733FE0023FB665AE0EC
:104D5000304B187807F1540206233B2101F0A0FEE6
:104D6000BB6A97F85420120211B297F8552012B27C
:104D70000A4312B21344BB62FB6A97F85620120230
:104D800011B297F8572012B20A4312B21344FB62D1
:104D90003B6B97F85820120211B297F8592012B2C3
:104DA0000A4312B213443B631A4B187807F15402BA
:104DB0000623432101F074FEFB6997F85420120288
:104DC00011B297F8552012B20A4312B21344FB6194
:104DD0003B6A97F85620120211B297F8572012B288
:104DE0000A4312B213443B627B6A97F858201202BE
:104DF00011B297F8592012B20A4312B213447B62DF
:104E0000FB6E0133FB66FA6EFB6D9A42A0DB00235A
:104E1000BB6626E044000020BB6E9B0007F17802D1
:104E2000134453F8502CFB6D92FBF3F2BB6E9B00C6
:104E300007F178010B4443F8502CBB6E9B0007F13F
:104E40007802134453F85C2CFB6D92FBF3F2BB6EBB
:104E50009B0007F178010B4443F85C2CBB6E0133D7
:104E6000BB66BB6E022BD7DDBF4B1B7800221C211B
:104E7000184601F0D1FDBC4B1B7800221B211846BF
:104E800001F0CAFD1920FFF793FDB74B187807F121
:104E90004C0203230D2101F003FEB34B187807F1F8
:104EA0004C03DA1C0323002101F0FAFD97F863306C
:104EB00040F63C2202FA03F307EE903AF8EEE77A66
:104EC00017EE900A05F054FF04460D4697F84C3053
:104ED00007EE903AF8EE677A17EE900A05F048FF71
:104EE0004FF00002A14B05F0E3FD02460B4643ECF8
:104EF000172BB0EE471AF0EE671A9FED990B03F0EF
:104F00008BFF53EC102B2046294605F085FF034606
:104F10000C461846214606F02FFA03467B6097F8A8
:104F2000633040F63C2202FA03F307EE903AF8EEC3
:104F3000E77A17EE900A05F01BFF04460D4697F836
:104F40004D3007EE903AF8EE677A17EE900A05F0CA
:104F50000FFF4FF00002854B05F0AAFD02460B46FD
:104F600043EC172BB0EE471AF0EE671A9FED7C0B5F
:104F700003F052FF53EC102B2046294605F04CFF5E
:104F800003460C461846214606F0F6F90346BB6078
:104F900097F8633040F63C2202FA03F307EE903AAA
:104FA000F8EEE77A17EE900A05F0E2FE04460D46A9
:104FB00097F84E3007EE903AF8EE677A17EE900ABF
:104FC00005F0D6FE4FF00002684B05F071FD024679
:104FD0000B4643EC172BB0EE471AF0EE671A9FED25
:104FE000600B03F019FF53EC102B2046294605F007
:104FF00013FF03460C461846214606F0BDF903464A
:10500000FB6097F8633040F63C2202FA03F307EEA8
:10501000903AF8EEE77A17EE900A05F0A9FE0446FA
:105020000D4697F84F3007EE903AF8EE677A17EE94
:10503000900A05F09DFE4FF000024C4B05F038FD44
:1050400002460B4643EC172BB0EE471AF0EE671AF8
:105050009FED430B03F0E0FE53EC102B2046294656
:1050600005F0DAFE03460C461846214606F084F9A0
:1050700003463B6197F8633040F63C2202FA03F3A3
:1050800007EE903AF8EEE77A17EE900A05F070FE18
:1050900004460D4697F8503007EE903AF8EE677ADE
:1050A00017EE900A05F064FE4FF000022F4B05F05A
:1050B000FFFC02460B4643EC172BB0EE471AF0EE0E
:1050C000671A9FED270B03F0A7FE53EC102B204629
:1050D000294605F0A1FE03460C461846214606F077
:1050E0004BF903467B6197F8633040F63C2202FAA5
:1050F00003F307EE903AF8EEE77A17EE900A05F020
:1051000037FE04460D4697F8513007EE903AF8EE18
:10511000677A17EE900A05F02BFE4FF00002134B52
:1051200005F0C6FC02460B4643EC172BB0EE471ABF
:10513000F0EE671A9FED0A0B03F06EFE53EC102B96
:105140002046294605F068FE03460C4618462146CF
:1051500006F012F90346BB6100237B6697E000BFAF
:10516000295C8FC2F528F03F440000200000F03F8A
:105170007B6E9B0007F17802134453F8502C7B6E32
:105180009B0007F178010B4453F8383CD31A07EE23
:10519000903AF8EEE77A17EE900A05F0E9FD4FF045
:1051A0000002D04B05F038FE03460C4625461C464F
:1051B0007B6E9B0007F178021344743B1B68184612
:1051C00005F0D6FD02460B462046294605F04EFF67
:1051D00003460C46184621464FF00002C14B05F02D
:1051E00067FC03460C461846214606F0C5F8014602
:1051F000BD4A7B6E9B00134419607B6EDC1C7B6E8A
:105200009B0007F17802134453F85C2C7B6E9B00E3
:1052100007F178010B4453F8443CD31A07EE903A57
:10522000F8EEE77A17EE900A05F0A2FD4FF00002C3
:10523000AC4B05F0F1FD02460B4615461E467B6E53
:1052400003339B0007F178021344743B1B68184634
:1052500005F08EFD02460B462846314605F006FF56
:1052600002460B46104619464FF000029D4B05F0D2
:105270001FFC02460B461046194606F07DF8014613
:10528000994AA300134419607B6E01337B667B6EE1
:10529000022B7FF76DAF954A954BD31ADB081B04A1
:1052A00043F00500904BD3ED007AF5EEC07AF1EEB5
:1052B00010FA0BD58C4BD3ED007ABFEE007AF4EEEA
:1052C000C77AF1EE10FA01DD8A4A00E08A4A864B7D
:1052D000D3ED007AFDEEE77A17EE901A824BD3ED0C
:1052E000007AF5EEC07AF1EE10FA14DD7E4B93ED04
:1052F000007A7D4BD3ED007AFDEEE77AF8EEE77A9F
:1053000077EE677A9FED7D7A67EE877AFDEEE77A32
:1053100017EE903A13E0744BD3ED007AFDEEE77A86
:10532000B8EEE77A704BD3ED007A77EE677A9FEDAF
:10533000737A67EE877AFDEEE77A17EE903A00937C
:105340000B466F49FBF79AFC684A694BD31ADB0896
:105350001B0443F00500644BD3ED017AF5EEC07AEF
:10536000F1EE10FA0BD5604BD3ED017ABFEE007A67
:10537000F4EEC77AF1EE10FA01DD5E4A00E05E4A13
:10538000594BD3ED017AFDEEE77A17EE901A564BA2
:10539000D3ED017AF5EEC07AF1EE10FA14DD524B3E
:1053A00093ED017A504BD3ED017AFDEEE77AF8EEFA
:1053B000E77A77EE677A9FED517A67EE877AFDEEAE
:1053C000E77A17EE903A13E0474BD3ED017AFDEE02
:1053D000E77AB8EEE77A444BD3ED017A77EE677A55
:1053E0009FED467A67EE877AFDEEE77A17EE903A00
:1053F00000930B464349FBF741FC3C4A3C4BD31A14
:10540000DB081B0443F00500374BD3ED027AF5EEC1
:10541000C07AF1EE10FA0BD5334BD3ED027ABFEE22
:10542000007AF4EEC77AF1EE10FA01DD314A00E0BD
:10543000314A2D4BD3ED027AFDEEE77A17EE901A42
:10544000294BD3ED027AF5EEC07AF1EE10FA14DDB5
:10545000254B93ED027A244BD3ED027AFDEEE77AE9
:10546000F8EEE77A77EE677A9FED247A67EE877A2F
:10547000FDEEE77A17EE903A13E01B4BD3ED027A7C
:10548000FDEEE77AB8EEE77A174BD3ED027A77EEC6
:10549000677A9FED1A7A67EE877AFDEEE77A17EE64
:1054A000903A00930B461849FBF7E8FB0F4A104B64
:1054B000D31ADB081B0443F005000B4BD3ED037A32
:1054C000F5EEC07AF1EE10FA20D5074BD3ED037A52
:1054D000BFEE007AF4EEC77AF1EE10FA16DD054A57
:1054E00015E000BF00005940AC0A002084BB00005A
:1054F0004CBB0000E0B60000E4B600000000C8426B
:10550000E8B6000020B700005CB70000794A7A4B8B
:10551000D3ED037AFDEEE77A17EE901A764BD3EDD2
:10552000037AF5EEC07AF1EE10FA14DD724B93EDCA
:10553000037A714BD3ED037AFDEEE77AF8EEE77A62
:1055400077EE677A9FED6D7A67EE877AFDEEE77A00
:1055500017EE903A13E0684BD3ED037AFDEEE77A4D
:10556000B8EEE77A644BD3ED037A77EE677A9FED76
:10557000637A67EE877AFDEEE77A17EE903A00934A
:105580000B465F49FBF77AFB5E4A5F4BD31ADB0899
:105590001B0443F00500584BD3ED047AF5EEC07AB6
:1055A000F1EE10FA0BD5544BD3ED047ABFEE007A2E
:1055B000F4EEC77AF1EE10FA01DD544A00E04D4AEC
:1055C0004D4BD3ED047AFDEEE77A17EE901A4A4B75
:1055D000D3ED047AF5EEC07AF1EE10FA14DD464B05
:1055E00093ED047A444BD3ED047AFDEEE77AF8EEBE
:1055F000E77A77EE677A9FED417A67EE877AFDEE7C
:10560000E77A17EE903A13E03B4BD3ED047AFDEEC8
:10561000E77AB8EEE77A384BD3ED047A77EE677A1B
:105620009FED367A67EE877AFDEEE77A17EE903ACD
:1056300000930B463649FBF721FB324A324BD31A13
:10564000DB081B0443F005002B4BD3ED057AF5EE88
:10565000C07AF1EE10FA0BD5274BD3ED057ABFEEE9
:10566000007AF4EEC77AF1EE10FA01DD274A00E085
:10567000204A214BD3ED057AFDEEE77A17EE901A1A
:105680001D4BD3ED057AF5EEC07AF1EE10FA14DD7C
:10569000194B93ED057A184BD3ED057AFDEEE77AB9
:1056A000F8EEE77A77EE677A9FED147A67EE877AFD
:1056B000FDEEE77A17EE903A13E00F4BD3ED057A43
:1056C000FDEEE77AB8EEE77A0B4BD3ED057A77EE8D
:1056D000677A9FED0A7A67EE877AFDEEE77A17EE32
:1056E000903A00930B460B49FBF7C8FA00BF7C3792
:1056F000BD46F0BDE4B60000AC0A00200000C84280
:1057000098B7000084BB00004CBB0000E0B600006E
:10571000D0B7000008B8000080B59AB002AF0023EF
:105720003B6300237B630023BB6300237B62002376
:10573000BB620023FB62A44B1B7880226B211846BE
:1057400001F06AF96420FFF733F99F4B1B780122BF
:105750006B21184601F060F99B4B1B7800226C21ED
:10576000184601F059F9C820FFF722F9964B1B782B
:1057700000223821184601F04FF9934B1B78002284
:105780002321184601F048F98F4B1B7800226B212A
:10579000184601F041F98C4B1B7800222421184651
:1057A00001F03AF9884B1B7800226A21184601F073
:1057B00033F9854B1B780C226A21184601F02CF92D
:1057C0000F20FFF7F5F8804B1B7801221A211846AD
:1057D00001F022F97C4B1B7800221921184601F0B8
:1057E0001BF9794B1B7800221B21184601F014F994
:1057F000754B1B7800221C21184601F00DF98323FC
:10580000A7F852304FF48043A7F850306E4B1B7806
:1058100040226A21184601F0FFF86B4B1B78782272
:105820002321184601F0F8F82820FFF7C1F8664B4D
:105830001B7800222321184601F0EEF8624B1878FD
:1058400007F13C020223722101F02AF997F83C305B
:105850001B021AB297F83D301BB213431BB2A7F8D4
:105860004E30B7F84E30594AA2FB0323DB08A7F8A5
:105870004C300023A7F85E3072E00023BB81002388
:10588000FB8100233B820023BB800023FB8000239D
:105890003B814D4B187807F13C020C23742101F039
:1058A000FFF897F83C301B021AB297F83D301BB254
:1058B00013431BB2BB8197F83E301B021AB297F814
:1058C0003F301BB213431BB2FB8197F840301B02E1
:1058D0001AB297F841301BB213431BB23B8297F8C0
:1058E00042301B021AB297F843301BB213431BB26B
:1058F000BB8097F844301B021AB297F845301BB2B0
:1059000013431BB2FB8097F846301B021AB297F87C
:1059100047301BB213431BB23B817B6AB7F90C20A3
:1059200013447B62BB6AB7F90E201344BB62FB6A67
:10593000B7F910201344FB623B6BB7F90420134402
:105940003B637B6BB7F9062013447B63BB6BB7F9F2
:1059500008201344BB63B7F85E300133A7F85E300C
:10596000B7F85E20B7F84C309A4286D37A6AB7F817
:105970004C3092FBF3F37B62BA6AB7F84C3092FB7F
:10598000F3F3BB62FA6AB7F84C3092FBF3F3FB62B5
:105990003A6BB7F84C3092FBF3F33B637A6BB7F892
:1059A0004C3092FBF3F37B63BA6BB7F84C3092FB4D
:1059B000F3F3BB63FB6A002B0ADDFA6AB7F85030D9
:1059C000D31AFB6209E000BF44000020ABAAAAAAD8
:1059D000FA6AB7F850301344FB623B6B5B42002B12
:1059E00000DA03339B101B12DBB287F83C303B6BB1
:1059F0005B42002B00DA03339B10DBB287F83D30AB
:105A00007B6B5B42002B00DA03339B101B12DBB273
:105A100087F83E307B6B5B42002B00DA03339B1030
:105A2000DBB287F83F30BB6B5B42002B00DA0333FD
:105A30009B101B12DBB287F84030BB6B5B42002B24
:105A400000DA03339B10DBB287F841300023BB65DB
:105A500013E0914A914BD31ADB081B0443F0050075
:105A6000B96D07F13C02BB6D13441B780A468C49A3
:105A7000FBF7EEF8BB6D0133BB65BB6D052BE8DDB5
:105A8000884B1B7897F83C201321184600F0C4FF80
:105A9000844B1B7897F83D201421184600F0BCFF7A
:105AA000804B1B7897F83E201521184600F0B4FF74
:105AB0007C4B1B7897F83F201621184600F0ACFF6E
:105AC000784B1B7897F840201721184600F0A4FF68
:105AD000744B1B7897F841201821184600F09CFF62
