:1000000000000120E1020000090300000B030000D2
:100010000D0300000F0300001103000000000000AA
:1000200000000000000000000000000013030000BA
:100030001503000000000000170300001903000072
:10004000759100001B030000E526000051330000FD
:100050001B0300001B0300007D9B00001B0300002E
:100060001B0300001B0300001B0300001B03000018
:100070001B0300001B0300001B0300001B03000008
:100080001B0300001B0300001B0300001B030000F8
:100090001B0300001B0300001B0300001B030000E8
:1000A0001B0300001B0300001B0300001B030000D8
:1000B0001B0300001B030000000000000000000004
:1000C0001B0300001B0300001B0300001B030000B8
:1000D0008D8F00001B0300001B03000000000000C8
:1000E0000000000000000000000000000000000010
:1000F0000000000000000000000000000000000000
:1001000000000000000000000000000000000000EF
:1001100000000000000000000000000000000000DF
:1001200000000000000000000000000000000000CF
:1001300000000000000000000000000000000000BF
:1001400000000000000000000000000000000000AF
:10015000000000000000000000000000000000009F
:10016000000000000000000000000000000000008F
:10017000000000000000000000000000000000007F
:10018000000000000000000000000000000000006F
:10019000000000000000000000000000000000005F
:1001A000000000000000000000000000000000004F
:1001B000000000000000000000000000000000003F
:1001C000000000000000000000000000000000002F
:1001D000000000000000000000000000000000001F
:1001E000000000000000000000000000000000000F
:1001F00000000000000000000000000000000000FF
:1002000010B5054C237833B9044B13B10448AFF350
:1002100000800123237010BD580200200000000060
:1002200070CD00000C4B43B10C480D4910B5AFF335
:1002300000800C48036823B910BD0A48036833B92D
:100240007047094B002BF7D0BDE810401847064B0C
:10025000002BF5D0184700BF0000000070CD000053
:100260005C0200205402002000000000154B002B0F
:1002700008BF134B9D46A3F5803A00218B460F46DD
:100280001348144A121A09F050FE0F4B002B00D0ED
:1002900098470E4B002B00D0984700200021040007
:1002A0000D000D48002802D00C48AFF3008009F083
:1002B000EDFD2000290004F087FE09F0D3FD00BF0A
:1002C0000000080000000120000000000000000005
:1002D00058020020E80C0020000000000000000090
:1002E0000649074A074B9B1A03DD043BC858D05008
:1002F000FBDC05F079F9FFF7B9FF0000F8CD00004D
:100300000000002058020020FEE7FEE7FEE7FEE7BF
:10031000FEE7FEE7FEE7FEE7FEE7FEE780B584B016
:1003200000AF78607B68002B0AD0074B43F00103D5
:10033000FB607B689B01BB60FB68B868984700E086
:1003400000BF1037BD4680BD70C6000080B582B0CA
:1003500000AF78607B68002B0AD04FF47A70FFF70B
:10036000DDFF7B68013B7B607B68002BF5D100E003
:1003700000BF0837BD4680BD80B500AF05F00CF961
:1003800000BF80BD80B588B000AFF860B9607A600A
:100390007B68002B33D00023FB610323BB61BA6869
:1003A000FB6913447A681946002005F0A7F87861C4
:1003B000FA697B691344FB617A687B69D31A7B60B5
:1003C0007B69002B13D1104B1B7883F00103DBB248
:1003D000002B13D10120FFF7B9FFBB69013BBB61C3
:1003E000BB69002B03D1084B00221A7007E0064BB3
:1003F00001221A707B68002BD1D100E000BF00BF42
:100400002037BD4680BD00BF7402002080B584B097
:1004100002AF78603960064B00934023054A396883
:10042000786800F01DF800BF0837BD4680BD00BFEA
:10043000850300007802002080B483B000AF7860AC
:1004400000BF0C37BD465DF8047B704780B483B0B5
:1004500000AF786000BF0C37BD465DF8047B704785
:1004600080B5A0B002AFF860B9607A603B60B86850
:1004700001F087FF7B68FB643B683B6500237B657D
:10048000002387F858300023FB65D7F880303B669F
:1004900000237B6707F134017B6F0822B86802F004
:1004A00033F808237B67FB6B3B643B8FA7F8443032
:1004B0007B8FA7F84630002387F8493097F834300F
:1004C00003F00303DBB2012B29D17B6BC3F395232C
:1004D000FB6697F83430C3F3C203DBB287F84830C9
:1004E000BB8EC3F38313DBB2BB66BB6E9A0007F10E
:1004F0001C017B6FB86802F007F8BB6E9B007A6F37
:1005000013447B6707F1400207F11C0107F14C031C
:1005100000931346BA6EF86E00F0DEFF32E097F8F3
:10052000343003F00303DBB2022B2BD1FB8EC3F379
:1005300089139BB23B6797F83430C3F3C203DBB235
:1005400087F848303B6F082B28BF08237B6607F1EC
:1005500014017B6F7A6EB86801F0D6FF7A6F7B6EFC
:1005600013447B673A6F7B6ED31A3B6707F14C03EA
:1005700007F1400207F11400796E01F04FF83B6F6C
:10058000002BDFD1B86801F00CFF00BF7837BD4603
:1005900080BD000080B582B000AF78607B681B78BA
:1005A0001A460D4B9B5C002B05D07B680433184624
:1005B00004F062F90BE07B681B781A46064B9B5CE3
:1005C000002B04D17B680C33184603F0D1FA00BF2E
:1005D0000837BD4680BD00BF6C0C002080B586B0DA
:1005E00000AFF860B9601346FB7100237B61FB68C4
:1005F0001B781A46104B9B5C002B08D0FB68043319
:10060000FA79B968184604F067F978610EE0FB687A
:100610001B781A46084B9B5C002B07D1FB680C33F8
:10062000FA79B968184603F019FB78617B691846B6
:100630001837BD4680BD00BF6C0C002080B483B06D
:1006400000AF78603960044B01221A7000BF0C378C
:10065000BD465DF8047B7047F8020020B0B58CB051
:1006600000AF0346FB711A4B07F108041D460FCD7E
:100670000FC495E80F0084E80F000623BB604FF01D
:10068000FF33FB604FF0FF333B614FF0FF337B6183
:100690004FF0EB733B62FB79002B01D00D4A00E079
:1006A000002207F1080319460B4801F0B5FFF86274
:1006B000FB6ABB62BB6A002B02D0B86A01F022F869
:1006C000064AFB79137000BF3037BD46B0BD00BF8E
:1006D00078C600003D06000000000020F90200205E
:1006E00080B582B000AF0123FB71FB791846FFF79C
:1006F000B5FF00BF0837BD4680BD000080B588B09B
:1007000000AFF860B9607A607B68FB77114B00221C
:100710001A70FB7F1A46B9680F48FFF75FFFB86190
:10072000BB697B617B69002B02D0786900F0EAFF2E
:1007300000BF0A4B1B78002B07D0064B1B78DBB29F
:1007400083F00103DBB2002BF3D100BF2037BD469D
:1007500080BD00BFF802002000000020F902002048
:1007600080B584B002AF78603960064B00934023B7
:10077000054A39687868FFF773FE00BF0837BD4641
:1007800080BD00BFFD060000B802002080B483B029
:1007900000AF786000BF0C37BD465DF8047B704742
:1007A00080B582B000AF78600448FFF7F3FE002008
:1007B000FFF754FF00BF0837BD4680BD0000002092
:1007C00080B483B000AF78607B68DB6801225A7127
:1007D00000BF0C37BD465DF8047B704780B582B022
:1007E00000AF4FF0FF337B60FFF7C6FD04210A48DE
:1007F00000F084FD78600848FFF7E2FFFFF770FF24
:100800000421064800F07AFD78600448FFF7D8FF1D
:1008100000BF0837BD4680BDBCCD0000CCCD000078
:1008200080B582B000AF786039607B681B681B6858
:1008300039687868984700BF0837BD4680BD80B5E5
:1008400082B000AF78607B681B685B687868984707
:1008500000BF0837BD4680BD80B582B000AF78606C
:100860007B681B689B687868984700BF0837BD465F
:1008700080BD80B483B000AF78600B46FB707B68AE
:10088000DB68FA781A7100BF0C37BD465DF8047B4F
:10089000704780B483B000AF78607B68DB681B79F9
:1008A00018460C37BD465DF8047B704780B483B0B2
:1008B00000AF78607B68DB6801225A7100BF0C379B
:1008C000BD465DF8047B704780B483B000AF7860AC
:1008D0007B68DB685B7918460C37BD465DF8047BA6
:1008E0007047000080B584B000AF78603960154B68
:1008F000FF229A60134B00221A60124B00225A60AA
:10090000104B0022C3F818240E4B0022C3F8142405
:100910000C4B002283F820240B4801F099FCF8606E
:10092000FB68002B01D0FB6808E0084801F002FEDC
:10093000074A084BD31ADB08BB6000231846103760
:10094000BD4680BD64040020DCCD0000C8C60000A8
:10095000BCCD000074CD000080B400AF044A054B4C
:10096000D31ADB081846BD465DF8047B704700BF0C
:10097000BCCD000074CD000080B586B000AF7860BB
:100980000B46FB70FB78002B1FD0FFF7E5FF3861AB
:1009900000237B6113E07B699B000E4A1344FB60DC
:1009A000FB681B881A467B681B689A4204D17B68E7
:1009B0007A691A60002309E07B6901337B617A69F7
:1009C0003B699A42E7D3052300E000231846183715
:1009D000BD4680BD5802002080B584B000AF78606D
:1009E0000B46FB70FA783B1D11461846FFF7C4FF13
:1009F0000346002B07D17B68DB00054A1344FB60EC
:100A0000FB681B6800E0002318461037BD4680BD18
:100A100074CD000080B485B000AF78600B46FB70E9
:100A20007B68DB00144A1344BB60FB78013B032B5B
:100A300018D801A252F823F0490A00004F0A00001A
:100A4000550A00005D0A00000223FB730DE0042339
:100A5000FB730AE0BB681B79FB7306E0BB685B793C
:100A6000FB7302E00023FB7300BFFB7B18461437C7
:100A7000BD465DF8047B704774CD000080B485B03E
:100A800000AF786039600023FB737B681B7803F04C
:100A90000403DBB2002B23D07B681B78C3F3010374
:100AA000DBB2012B02D0022B0CD017E03B681B6895
:100AB0007A681288C2F38312D2B213449A1C3B683C
:100AC0001A600BE03B681B687A685288C2F389128F
:100AD00092B213449A1C3B681A6000BF0123FB7357
:100AE000FB7B18461437BD465DF8047B7047000059
:100AF00080B58AB000AF0023FB84384800F01DFFAA
:100B0000374800F01AFF374B5B683B61354B9B68F9
:100B1000BB613A69BB69134002339B00314A1344FD
:100B200004333B6207F110031946386AFFF7A6FF4A
:100B30000346002B09D03A69BB69134002339B007E
:100B4000284A134404333B62ECE700BF0023FB61F7
:100B500011E0FB699B003A1D1A443B69591C39613D
:100B6000B9690B401F4902339B000B445B6813605B
:100B7000FB690133FB61FB69012BEAD93B79C3F3C4
:100B80000103DBB2012B0ED0022B00D016E07B89D3
:100B9000FB84FB88C3F389139BB203339A083B6938
:100BA00013443B610AE07B89FB84BB88C3F3831356
:100BB000DBB21A463B6913443B6100BF084800F0B2
:100BC000C9FE78617B69002B02D03B69054A5360FE
:100BD000FB8C18462837BD4680BD00BF7C0800202E
:100BE000780800206404002080B584B000AF0021A4
:100BF000074800F026FEF860FB68BB60BB6883F323
:100C000010037B607B6818461037BD4680BD00BF6F
:100C10008008002080B588B000AFF860B9607A60C5
:100C20003B60FB681B0CFB61FFF7DEFFB8613B68B4
:100C30005A1CBB6A1340BA691104FA690A431C4979
:100C400002339B000B445A603A68BB6A134002337C
:100C50009B00174A134404337B61FB68DBB203F04B
:100C60000703D9B27A69137861F3C50313707B68FF
:100C7000DBB203F00F03D9B27A69138861F38913E9
:100C80001380BB68C3F315017A69136861F39F236E
:100C900013607A691378012161F3010313707A6993
:100CA00013786FF38203137000BF2037BD4680BDF9
:100CB0006404002080B58AB000AFF860B9601346C4
:100CC000FB71FB6802333B620123FB77002000F0DD
:100CD000A3FD384B1A68BB681A60364B9A68354BCF
:100CE0005968344B1B68CB1A134401337B6214E000
:100CF0000121314800F0EFFDFFF7FAFEB861B96954
:100D00002D4800F0E8FD2B4B9A682A4B5968294B77
:100D10001B68CB1A134401337B623A6A7B6A9A429E
:100D2000E6D8FB7F002B3DD000233B61FB79002BF5
:100D300012D03B7C012262F301033B743B7C43F005
:100D400004033B74FB68DBB203F00F03DAB23B8AA7
:100D500062F389133B8211E03B7C022262F30103C0
:100D60003B743B7C43F004033B74FB689BB2C3F3CE
:100D700009039AB27B8A62F38F137B820D4B1A6848
:100D80000C4B9B68134002339B000A4A1344043304
:100D90007B613A697B691A60064B1A683B6A1344A7
:100DA000044A1360002000F041FDFB7F18462837FD
:100DB000BD4680BD640400208008002080B58AB054
:100DC00002AFF860B9607A603B60204B9B687B6142
:100DD00007F11003012219463868FFF76BFF03463D
:100DE000002B24D03B690233FB610023BB6111E07F
:100DF000FB695A1CFA617A691340BA6992007968F2
:100E00000A441268114902339B000B445A60BB69C3
:100E10000133BB61BA693B689A42E9D33A697B699D
:100E2000009313463A68B968F868FFF7F3FE074B7A
:100E300093F82034002B05D000BF00F06BF8034678
:100E4000002BFAD100BF2037BD4680BD64040020CE
:100E500080B582B000AF7860396000230022396825
:100E60007868FFF7ABFF00BF0837BD4680BD80B58F
:100E700086B000AFF860B9607A607B687B6107F18B
:100E800014020123B968F868FFF798FF00BF18370C
:100E9000BD4680BD80B586B000AFF860B9607A60AD
:100EA0003B607B683B613B687B6107F1100202237A
:100EB000B968F868FFF782FF00BF1837BD4680BDEC
:100EC00080B588B000AFF860B9607A603B607B683D
:100ED0007B613B68BB61BB6AFB6107F114020323C2
:100EE000B968F868FFF76AFF00BF2037BD4680BDCC
:100EF00080B400AF064B5A68054B1B689A420CBF82
:100F000001230023DBB21846BD465DF8047B704721
:100F10006404002080B598B000AFFFF7E9FF0346F6
:100F2000002B01D00023ABE1954B0022C3F818241D
:100F3000BFF34F8F924B5B683B61914B9B683B6467
:100F40003A693B6C134002339B008D4A13440433CF
:100F5000FB650023BB6500237B650023FB6307F172
:100F600010031946F86DFFF789FD0346002B19D0D1
:100F7000834BD3F81834002B14D1814B1A683B698A
:100F80009A4205D87E4B1B687D4A5360002377E167
:100F90003A693B6C134002339B00794A1344043393
:100FA000FB65DCE700233B6511E03B6D9B003A1DD0
:100FB0001A443B69591C3961396C0B407049023342
:100FC0009B000B445B6813603B6D01333B653B6DDD
:100FD000012BEAD93B7903F00303DBB2022B40F08B
:100FE0009580FB88C3F389139BB2BB63FB88C3F373
:100FF00089139BB2502BA8BF50237B637B6B9BB2A2
:10100000C3F309039AB2FB8862F38F13FB807B6BF7
:1010100008333B633B79C3F3C203DBB2FB63396B39
:10102000584801F021F9B865BB6D002B00F0CB806A
:10103000B86D01F0A6F9391D7B6D0822B86D01F07D
:101040004DFA7B6D08337B653B69DA433B6C13409B
:1010500001339B00FB627A6BFB6A9A4240D9FB6AC0
:10106000002B08D03A693B6C134002339B00444A82
:101070001344043300E0444BBB62FB6A002B02D0F4
:10108000FB6ADBB201E07B6BDBB287F82730FB6ADF
:10109000002B01D03C4B00E000233B62FB6A002B9D
:1010A00006D07B6BDAB2FB6ADBB2D31ADBB200E0AC
:1010B0000023FB7797F827207B6DB96AB86D01F0A4
:1010C0000DFA97F827307A6D13447B653B6A002B45
:1010D00015D0FA7F7B6D396AB86D01F0FFF90EE02B
:1010E0003A693B6C134002339B00254A1344043396
:1010F000BB617B6D7A6BB969B86D01F0EFF9BB6BC1
:1011000003339A083B6913443B615CE03B7903F08D
:101110000303DBB2012B56D1BB88C3F38313DBB2CD
:10112000062B28BF0623DBB203F00F03DAB2BB881D
:1011300062F38913BB80BB88C3F38313DBB2023332
:101140007B613B79C3F3C203DBB2FB637B699B002A
:1011500019460C4801F088F8B865BB6D002B32D0F9
:10116000B86D01F00EF9391D7B6D0822B86D01F0E4
:10117000B5F97B6D08337B6500233B651BE000BF41
:1011800064040020DCCD0000700400203B695A1C80
:101190003A613A6C134002339B003B4A1344191DD9
:1011A0007B6D0422B86D01F099F97B6D04337B658A
:1011B0003B6D01333B65BB88C3F38313DBB21A4637
:1011C0003B6D9A42E2D8BB6D002B39D02E4BD3F841
:1011D0001034FB642C4BD3F81834002B1BD0B86DA3
:1011E00001F0DFF846E0002387F84B30F86CFFF79A
:1011F0006BFB0346002B02D0012387F84B3097F896
:101200004B30002B03D0B96DF86CFFF709FBFB6C7A
:10121000DB681B68FB64FB6C002BE4D1B86D01F04C
:10122000C0F8002000F0F8FA174BD3F81834002B60
:1012300002D13B69144A5360002000F0F7FA19E02C
:10124000114BD3F810347B6406E0786CFFF704FB95
:101250007B6CDB681B687B647B6C002BF5D10B4AD5
:101260000B4BD31ADB081B0443F002030949184651
:10127000FFF7EEFDFFF73CFE034683F00103DBB210
:1012800018466037BD4680BD64040020ACCD000028
:1012900074CD0000D8C6000080B584B000AF002334
:1012A000FB6020E0144BD3F81034BB600123FB71CA
:1012B0000EE0B868FFF7EDFA03461A46FB689A425B
:1012C00002D10023FB7106E0BB68DB681B68BB60D2
:1012D000BB68002BEDD1FB79002B01D0FB6807E048
:1012E000FB680133FB60FB68092BDBDD4FF0FF334C
:1012F00018461037BD4680BD6404002080B584B018
:1013000000AF78600B46FB70FFF7C6FFF860FB6824
:10131000B3F1FF3F01D1FB6822E0FB68DBB2194665
:101320007868FFF7A6FA104BD3F81034002B08D1D9
:101330000D4A7B68C2F810347B68DB6800221A60B3
:101340000DE07B68DB68084AD2F81024D268126886
:101350001A60054BD3F81034DB687A681A60FB68B2
:1013600018461037BD4680BD6404002080B582B0A9
:1013700000AF0D4BD3F810347B600B4B012283F888
:10138000202409E07868FFF791FA7868FFF757FAA8
:101390007B68DB681B687B607B68002BF2D100BF39
:1013A0000837BD4680BD00BF6404002080B483B010
:1013B00000AF7860396000BF0C37BD465DF8047B34
:1013C0007047000090B585B002AF786039607B68E7
:1013D000DB88002B0AD07B68DB881A461F4B009302
:1013E00013461F4A1F49386800F081FB7B681B7A4F
:1013F000052B2ED07B685B7A002B12D07B689B88F4
:101400001A467B681B7A19461046FFF703FB034612
:101410001A46154B53F822301A461449386800F022
:1014200066FB7B681B6819463868FFF7BFFF7B685F
:101430001B7A1A460E4B53F822407B689B8800218A
:101440001846FFF7C9FA034622460A49386800F0F1
:101450004EFB00BF0C37BD4690BD00BF0CC700005F
:101460001CC7000054C70000380000206CC70000F3
:101470002400002070C7000080B584B000AFF86081
:10148000B9601346FB71FB681B7A052B0FD0FB6814
:101490005B7A002B06D00D4B1B681A460C49B868C6
:1014A00000F025FB0B49B86800F021FB06E0FB7952
:1014B000002B03D00749B86800F019FBB86800F0AA
:1014C000FDFA00BF1037BD4680BD00BF38000020C8
:1014D0006CC700007CC70000B0B58AB004AFF860EC
:1014E000B9607A603B60BB6A1B7BFB75BB6A0022FC
:1014F0001A73B96A3868FFF765FF7B68062B7FD8D7
:1015000001A252F823F000BF251500002F1500009E
:101510003F150000531500007115000099150000DB
:10152000C9150000F968B86A00F0E1FA69E0BB6823
:101530001B681A46F968B86A00F0D9FA61E0BB681E
:101540001A68BB6804331B68F968B86A00F0CFFA00
:1015500057E0BB681A68BB6804331968BB68083376
:101560001B6800930B46F968B86A00F0C0FA48E0BF
:10157000BB681968BB6804331868BB6808331B680C
:10158000BA680C3212680192009303460A46F96861
:10159000B86A00F0ACFA34E0BB681868BB68043382
:1015A0001C68BB6808331B68BA680C321268B968DB
:1015B0001031096802910192009323460246F968AE
:1015C000B86A00F094FA1CE0BB681C68BB6804337E
:1015D0001D68BB6808331B68BA680C321268B968AA
:1015E00010310968B86814300068039002910192C4
:1015F00000932B462246F968B86A00F078FA00E0BA
:1016000000BF0022B96A3868FFF736FFBB6AFA7D6F
:101610001A7300BF1837BD46B0BD00BF80B586B095
:1016200000AFF860B9607A603B60BB68082B5BD89C
:101630003B681B7BFB743B6800221A73396878682F
:10164000FFF7C0FE00237B6114E07A69BB689A4211
:1016500009D2FA687B6913441B781A462449386812
:1016600000F045FA03E02349386800F040FA7B694E
:1016700001337B617B69072BE7D91F49386800F08C
:1016800036FA00237B6123E07A69BB689A4218D25C
:10169000FA687B6913441B78BB7408F01BFC024694
:1016A000BB7C013313441B7803F09703002B01D05C
:1016B000BB7C00E02E231A461049386800F017FA68
:1016C00003E00F49386800F012FA7B6901337B614F
:1016D0007B69072BD8D9012239687868FFF7CCFEDF
:1016E0003B68FA7C1A7300E000BF1837BD4680BD26
:1016F00080C7000088C700008CC7000090C70000AA
:1017000094C7000080B586B000AF78600023FB600E
:1017100000233B617B687B6107F10C031A460021C3
:1017200044F2010000F018F800BF1837BD4680BD34
:1017300080B400AFBFF34F8F0549054BDB6803F45E
:10174000E062044B1343CB60BFF34F8F00BFFDE754
:1017500000ED00E00400FA0580B584B000AFF86049
:10176000B9607A6072B6FFF701FE00BFFFF7D2FBE7
:101770000346002BFAD1114A114BD31ADB081B0484
:1017800043F001030F491846FFF762FB0E4B1B683D
:1017900003F00103002B00D000BE084A084BD31A07
:1017A000DB081B0443F0020308491846FFF750FB0F
:1017B000FFF7BEFF00BF1037BD4680BDACCD0000B7
:1017C00074CD000098C70000F0ED00E0A4C7000051
:1017D00080B400AF72B6054B1B680133034A136037
:1017E00000BFBD465DF8047B704700BF880800203D
:1017F00080B400AF074B1B68013B064A1360054BE2
:101800001B68002B00D162B600BFBD465DF8047BAB
:10181000704700BF8808002080B582B000AF7860B4
:10182000FFF7D6FF00BF0837BD4680BD80B582B048
:1018300000AF0346FB71FFF7DBFF00BF0837BD4673
:1018400080BD90B486B000AF786039607B683A683C
:1018500053E8004F104643E8000191F0000FF7D124
:101860007C613861F9607B6918461837BD4690BCC9
:10187000704790B486B000AF786039607B683A6892
:1018800053E8004F44EA020043E8000191F0000FE2
:10189000F6D17C613861F9603B6918461837BD465E
:1018A00090BC704790B486B000AF786039607B68B8
:1018B0003A6853E8004F04EA020043E8000191F05F
:1018C000000FF6D17C613861F9607B6918461837E2
:1018D000BD4690BC704790B486B000AF7860396068
:1018E0007B683A6853E8004F04EB020043E80001CC
:1018F00091F0000FF6D17C613861F9603B691846C0
:101900001837BD4690BC704790B486B000AF786081
:1019100039607B683A6853E8004FA4EB020043E863
:10192000000191F0000FF6D17C613861F9603B69EC
:1019300018461837BD4690BC704780B582B000AFDE
:10194000786001217868FFF794FF0346184608374E
:10195000BD4680BD80B582B000AF78600021786858
:10196000FFF7A0FF034618460837BD4680BD80B488
:1019700083B000AF78600B46FB707B68DA68FB7859
:101980007968098A01FB03F3134418460C37BD46F6
:101990005DF8047B704780B483B000AF7860396035
:1019A0003B687A68D2689B1A7A68128AB3FBF2F3B2
:1019B000DBB218460C37BD465DF8047B704780B437
:1019C00085B000AF78607B68002B01D10E231DE04D
:1019D0007B689B681A467B685B68D31AFB737B68DD
:1019E0001B687A6852681A6006E07B681A68136898
:1019F000591C1160FA7B1A70FB7B5A1EFA73002B7C
:101A0000F3D17B681B6800221A7100231846143733
:101A1000BD465DF8047B704780B584B000AF786048
:101A20000023FB600020FFF7F7FE7B681B681A6845
:101A30007B685B689A421DD97B681B681A68013A0B
:101A40001A601B681B7819467868FFF790FFF860EA
:101A50007B689B681A467B681B681B68D31AFB72FD
:101A60007B681B681B79FA7A9A4203D97B681B68EA
:101A7000FA7A1A710020FFF7D9FEFB681846103772
:101A8000BD4680BD90B585B000AF786039603B68D9
:101A9000FB600020FFF7C0FE7B681B681C68621CAF
:101AA0001A60F9687868FFF776FF03462370002014
:101AB000FFF7BCFE00BF1437BD4690BD80B582B0B5
:101AC00000AF78607B689B68002B0CD07B685B69FB
:101AD0007A6810697A6811687A68926898477B68B2
:101AE00000229A6000E000BF0837BD4680BD0EB4FA
:101AF00080B585B000AF7860FB69002B0CD0002367
:101B0000FB6007F12003FB6007F10C031A46F9693B
:101B1000786800F0A7F900E000BF1437BD46BDE8C3
:101B2000804003B0704780B582B000AF78600B464C
:101B3000FB707B681A687B689B68581C79688860B2
:101B40001344FA781A707B689A687B685B689A42DB
:101B500002D37868FFF7B2FF00BF0837BD4680BDEB
:101B600080B586B000AFF860B9607A603B60002352
:101B70007B613B6803F00103002B21D00AE0BB68C6
:101B80000133BB607B6901337B61FB7C1946F868DC
:101B9000FFF7C9FFBB681B78FB74FB7C002BEED101
:101BA00006E07B68013B7B602021F868FFF7BBFF04
:101BB0007A687B699A422BD97B68002BF1D127E0A8
:101BC000BB68002B0BD0B86808F0BFF9786106E05D
:101BD0007B68013B7B602021F868FFF7A4FF7A68EF
:101BE0007B699A420ED97B68002BF1D10AE0BB6871
:101BF0000133BB607B6901337B61FB7C1946F8686C
:101C0000FFF791FFBB681B78FB74FB7C002BEED1C8
:101C100000BF1837BD4680BD80B588B000AFF86002
:101C2000B9607A603B60BB68FB610123BB6107E080
:101C3000FA697B68B2FBF3F3FB61BB690133BB61FB
:101C4000FA697B689A42F3D23A68BB699A4201D931
:101C50003B68BB61FB6A03F00103002B1FD1BB6A29
:101C6000002B1CD0FB6A03F00203002B05D03B685D
:101C7000002B02D13023FB7501E02023FB7507E028
:101C8000BB6A013BBB62FB7D1946F868FFF74BFF5F
:101C9000BB6A002B03D0BA69BB6A9A42F0D3012316
:101CA000FB613B68012B03D93B68013B3B6009E0CA
:101CB000BA68FB69B2FBF3F33B613A697B689A420D
:101CC00000D205E0FB697A6802FB03F3FB61E8E7F9
:101CD000BA68FB69B2FBF3F33B613B69FA6902FB4B
:101CE00003F3BA68D31ABB60154A3B6913441B78E7
:101CF0001946F868FFF717FFFA697B68B2FBF3F340
:101D0000FB61FB69002BE3D1FB6A03F00103002BAD
:101D100011D0BB6A002B0ED006E0BB6A013BBB6250
:101D20002021F868FFF7FFFEBB6A002B03D0BA69D9
:101D3000BB6A9A42F1D300BF2037BD4680BD00BFC9
:101D4000B4C7000080B588B002AFF860B9607A60AF
:101D50003B60BB68002BB8BF5B423B6101237B61EA
:101D600007E07B683A6992FBF3F33B617B690133DF
:101D70007B617B683A699A42F3DA3A687B699A42F6
:101D800001D93B687B613B6A002B0AD0BB68002B02
:101D900004DB7B6A03F00403002B02D03B6A013BA7
:101DA0003B627B6A03F00203002B02D03B68002BEE
:101DB00016D07B6A03F00103002B11D13B6A002B84
:101DC0000ED006E03B6A013B3B622021F868FFF73A
:101DD000AAFE3B6A002B03D07A693B6A9A42F1D390
:101DE000BB68002B07DABB685B42BB602D21F8683B
:101DF000FFF799FE08E07B6A03F00403002B03D091
:101E00002B21F868FFF78FFE7B6A03F00203002B9B
:101E100019D07B6A03F00103002B14D13B68002B1F
:101E200011D13B6A002B0ED006E03B6A013B3B62BE
:101E30003021F868FFF777FE3B6A002B03D07A6900
:101E40003B6A9A42F1D3B9687B6A01933B6A00937B
:101E50003B687A68F868FFF7DFFE00BF1837BD46B9
:101E600080BD000080B58EB002AFF860B9607A60C6
:101E7000BB68002B00F0E881BB681B7887F82F3027
:101E8000BB680133BB6097F82F30002B00F0D38183
:101E900097F82F30252B40F0C28100233B620123AD
:101EA000BB62BB681B7887F82F3097F82F302D2B3B
:101EB00004D0302B0AD02B2B10D017E03B6A43F014
:101EC00001033B62BB680133BB6012E03B6A43F035
:101ED00002033B62BB680133BB600AE03B6A43F02C
:101EE00004033B62BB680133BB6002E00023BB62BA
:101EF00000BFBB6A002BD4D10023FB6197F82F30C1
:101F00002A2B0CD17B681B68191D7A6811601B682D
:101F1000FA691344FB61BB680133BB601AE0BB681C
:101F20001B7887F82F3097F82F302F2B12D997F87E
:101F30002F30392B0ED8BB680133BB60FA691346CA
:101F40009B0013445B001A4697F82F301344303B34
:101F5000FB61D3E700237B62BB681B7887F82F30D7
:101F600097F82F302E2B1DD1BB680133BB60BB68A7
:101F70001B7887F82F3097F82F302F2B12D997F82E
:101F80002F30392B0ED8BB680133BB607A6A1346F9
:101F90009B0013445B001A4697F82F301344303BE4
:101FA0007B62E4E7BB681B7887F82F3097F82F3007
:101FB0006C2B03D097F82F30682B07D1BB68013307
:101FC000BB60BB681B7887F82F30EFE797F82F309E
:101FD000253B532B00F21E8101A252F823F000BFD3
:101FE0000B2200001522000015220000152200001F
:101FF0001522000015220000152200001522000005
:1020000015220000152200001522000015220000F4
:1020100015220000152200001522000015220000E4
:1020200015220000152200001522000015220000D4
:1020300015220000152200001522000015220000C4
:1020400015220000152200001522000015220000B4
:1020500015220000152200001522000015220000A4
:102060001522000015220000152200001522000094
:102070001522000015220000152200001522000084
:102080001522000015220000152200001522000074
:102090001522000015220000152200001522000064
:1020A00015220000152200001522000097210000D3
:1020B0001522000015220000152200001522000044
:1020C0001522000015220000152200001522000034
:1020D0001522000015220000312100004F210000D0
:1020E0001522000015220000152200001522000014
:1020F0004F210000152200001522000015220000CB
:10210000152200001522000015220000D721000032
:102110001522000015220000BB210000152200003E
:1021200073210000152200001522000097210000F5
:102130007B681B68191D7A6811601B68BB62BB6AEB
:10214000FB76FB7E1946F868FFF7EDFC63E07B68E1
:102150001B68191D7A6811601B68BB623B6A01939A
:10216000FB6900937B6A0A22B96AF868FFF7EAFD07
:1021700051E07B681B68191D7A6811601B68BB629F
:10218000B96A3B6A0193FB6900937B6A0A22F8688B
:10219000FFF742FD3FE07B681B68191D7A681160FC
:1021A0001B68BB62B96A3B6A0193FB6900937B6A57
:1021B0001022F868FFF730FD2DE07B681B68191DC1
:1021C0007A6811601B687B613B6AFA697969F86813
:1021D000FFF7C6FC1FE07B681B68191D7A68116059
:1021E0001B68BB623021F868FFF79DFC7821F86816
:1021F000FFF799FCB96A0023019308230093082391
:102200001022F868FFF708FD05E02521F868FFF7C0
:102210008AFC00E000BFBB680133BB6005E097F8B3
:102220002F301946F868FFF77EFCBB681B78002B3F
:102230007FF422AE00E000BFFB681B7B002B04D0C4
:10224000F868FFF73BFC00E000BF3037BD4680BDBB
:1022500080B582B000AF78607868FFF7B0FB0346C6
:1022600018460837BD4680BD80B58AB000AF78609B
:1022700039607B681B8A043BFB613A68FB69134445
:10228000DA1CFB69B2FBF3F3FB767868FFF7C4FB5B
:1022900078617B69002B01D1002337E07B69002244
:1022A0001A717B6901225A71FB699AB27B69DA80E3
:1022B0007B697B62FB7E013B3B617B6A7A681A60CB
:1022C00000233B621DE07868FFF7A6FBF860FB681F
:1022D000002B0ED07B695B790133DAB27B695A71CE
:1022E0007B6AFA681A60FB687A681A60FB687B622E
:1022F00004E0786900F00EF8002307E03B6A013340
:102300003B623A6A3B699A42DDD37B6918462837BB
:10231000BD4680BD80B58AB000AF78607B68FB6148
:10232000FB695B79FB767B683B62FB7E013B7B61F3
:1023300000237B6205E03B6A1B683B627B6A0133DA
:102340007B627A6A7B699A42F5D33B6A1B683B6180
:102350007B683B6200237B620BE03B6A1B68FB608F
:10236000396A3869FFF78EFBFB683B627B6A013391
:102370007B62FA7E7B6A9A42EFD800BF2837BD465F
:1023800080BD80B584B000AF78607B68FB60FB687F
:10239000043301211846FFF79EFA00BF1037BD46EF
:1023A00080BD80B586B000AF78607B687B617B695B
:1023B000043301211846FFF7A7FA0346FB6007F133
:1023C0000C033B613B691B78002B02D17868FFF757
:1023D000A1FF00BF1837BD4680BD80B590B000AFEB
:1023E000F860B9607A603B60FB687B62FB68FB6306
:1023F0007B6ADB881A467B6A5B7903FB02F3043B4A
:102400003B627B6ADB88FB613B681A1DFB69B2FBA0
:10241000F3F3BB633B680433FA69B3FBF2F2F96987
:1024200001FB02F29B1A7B637B681A683B681A44C3
:102430003B6A9A4203D93A6A3B68D31A01E07B6847
:102440001B683B637B683A6B1A6005E0FB6B1B689B
:10245000FB63BB6B013BBB63BB6B002BF6D1002363
:10246000FB62FA697B6BD31ABB62BA6A3B6B93421D
:1024700028BF1346BB622AE0BA68FB6A1344BB61FB
:10248000FA6B7B6B134404337B6197F84830002B65
:1024900005D0BA6A7969B86907F03CFD04E0BA6A08
:1024A000B969786907F036FD00237B63FB6B1B6815
:1024B000FB633A6BBB6AD31A3B63FA6ABB6A134489
:1024C000FB62FA693B6B934228BF1346BB623B6BCE
:1024D000002BD1D100BF4037BD4680BD80B588B04C
:1024E00002AFF860B9607A603B607B687B6107F19E
:1024F0001402002300933B68B968F868FFF76DFF8A
:1025000000BF1837BD4680BD80B588B002AFF86007
:10251000B9607A603B607B687B6107F1140201233C
:1025200000933B68B968F868FFF757FF00BF18379A
:10253000BD4680BD80B483B000AF78607B689B6887
:1025400000229A607B689B6800221A617B689B6806
:1025500000225A617B689B680022DA607B689B6876
:1025600000225A607B689B6800221A6000BF0C370B
:10257000BD465DF8047B704780B588B000AF7860D9
:1025800039603B68FB617B681B783B737B685B68E9
:102590003B617B681B7A3B757B68DB68BB61084AE3
:1025A000FB6952F823300749FA6951F8221007F104
:1025B0000C021046984700BF2037BD4680BD00BFC3
:1025C0008C0800209008002080B588B000AF7860AB
:1025D00039603B68FB617B681B783B737B685B6899
:1025E0003B617B689B68DBB23B757B68DB68BB61EA
:1025F000074AFB6952F823300649FA6951F822105C
:1026000007F10C021046984700BF2037BD4680BD39
:102610008C08002090080020B0B58EB000AFF860A4
:10262000B9607A60FB681B783B6329493B6B7A6829
:1026300041F82320BB681A6926493B6B41F82320E7
:10264000BB685B7F1946244A3B6B13440A461A70E9
:10265000BB6807F110041D460FCD0FC495E80F00AD
:1026600084E80F003B6B3B6200237B63FB681B78B5
:102670001A46194B9B5C002B0ED0FB68181D7B681B
:10268000002B01D0154A00E0002207F11003194683
:1026900002F094F8786315E0FB681B781A460E4B3D
:1026A0009B5C002B0ED1FB6803F10C007B68002BB8
:1026B00001D00B4A00E0002207F11003194601F097
:1026C000F5F978637B6B18463837BD46B0BD00BF5F
:1026D0008C080020900800206C0C00207925000058
:1026E000C925000080B500AF024B1B68984700BFAA
:1026F00080BD00BF9408002080B483B000AF786034
:102700007B68064A934201D1054B00E0002318463E
:102710000C37BD465DF8047B704700BF00200040C9
:102720009408002080B586B000AF78603960786882
:10273000FFF7E2FF38613B69002B1BD00023FB75DC
:102740000020FFF769F83B691B79002B02D00123B9
:10275000FB7505E03B693A681A603B6901221A7112
:102760000020FFF763F8FB7D002B03D01123FB60F3
:10277000FB6802E00023FB60FB6818461837BD4683
:1027800080BD80B584B000AF78607868FFF7B4FF93
:10279000F860FB68002B05D0FB6800221A60FB681C
:1027A00000221A7100BF1037BD4680BD80B483B0CF
:1027B00000AF0346FB71094997F907305B09FA79C5
:1027C00002F01F02012000FA02F241F8232000BFAC
:1027D0000C37BD465DF8047B704700BF00E100E0A8
:1027E00080B483B000AF0346FB71094997F9073005
:1027F0005B09FA7902F01F02012000FA02F260334D
:1028000041F8232000BF0C37BD465DF8047B7047BC
:1028100000E100E080B483B000AF03463960FB7193
:1028200097F90730002B0BDA0D49FB7903F00F0302
:10283000043B3A68D2B25201D2B20B441A7609E094
:10284000084997F907303A68D2B25201D2B20B4424
:1028500083F8002300BF0C37BD465DF8047B70474A
:1028600000ED00E000E100E080B483B000AF7860EC
:102870007B6803F06043B3F1005F0CBF01230023CA
:10288000DBB218460C37BD465DF8047B704780B458
:1028900083B000AF78607B681B0B5BB218460C37C7
:1028A000BD465DF8047B704780B582B000AF03463B
:1028B0000A46FB711346BB71BA7997F90730114686
:1028C0001846FFF7A7FF00BF0837BD4680BD80B59B
:1028D00082B000AF0346FB7197F907301846FFF747
:1028E0007FFF97F907301846FFF760FF00BF0837F2
:1028F000BD4680BD80B483B000AF78600B46FB70EE
:10290000FB787A68134401221A6000BF0C37BD4679
:102910005DF8047B704780B485B000AF78600B46EB
:102920007B807B887A68134400221A607B887A68EF
:1029300013441B68FB60FB6800BF1437BD465DF89D
:10294000047B704780B483B000AF78600B467B8017
:102950007B887A6813441B68002B14BF0123002373
:10296000DBB218460C37BD465DF8047B704780B477
:1029700083B000AF786039607B683A68C3F804239D
:1029800000BF0C37BD465DF8047B704780B483B050
:1029900000AF786039607B683A68C3F8082300BFED
:1029A0000C37BD465DF8047B704780B483B000AF40
:1029B00078607B680622C3F8002500BF0C37BD464F
:1029C0005DF8047B704780B485B000AFF860B960F3
:1029D0007A60FB68BA68C3F80825FB687A68C3F8B0
:1029E0000C2500BF1437BD465DF8047B704780B4EA
:1029F00083B000AF786039607B683A68C3F82425FB
:102A000000BF0C37BD465DF8047B704780B485B0CD
:102A100000AF78607B68D3F8C434FB607B68FA68E9
:102A2000C3F8C424FB6818461437BD465DF8047B20
:102A3000704780B483B000AF78600B46FB70FA78C3
:102A40007B68C3F8882500BF0C37BD465DF8047B62
:102A5000704780B485B000AFF860B9607A60BA683A
:102A6000FB68C3F84425FB687A68C3F8482500BFB3
:102A70001437BD465DF8047B704780B485B000AF65
:102A8000F860B9607A60BA68FB68C3F83425FB68FF
:102A90007A68C3F8382500BF1437BD465DF8047B5B
:102AA000704780B483B000AF786039607B683A6863
:102AB000C3F8002200BF0C37BD465DF8047B7047A9
:102AC00080B483B000AF78607B68D3F84C3518468B
:102AD0000C37BD465DF8047B704780B483B000AF0F
:102AE00078607B68D3F83C3518460C37BD465DF8F6
:102AF000047B704780B483B000AF78607B680122AC
:102B0000C3F8502500BF0C37BD465DF8047B704705
:102B100080B483B000AF78607B680022C3F8502592
:102B200000BF0C37BD465DF8047B704780B483B0AE
:102B300000AF78607B680122C3F8402500BF0C37E6
:102B4000BD465DF8047B704780B483B000AF786009
:102B50007B680022C3F8402500BF0C37BD465DF8F6
:102B6000047B704780B483B000AF78604FF0A0431F
:102B700018460C37BD465DF8047B704780B584B0BD
:102B800000AF7860084611461A460346FB700B46B4
:102B9000BB7013467B703B1D1846FFF7E3FFF860E0
:102BA0007A68F978BB785B0019437B789B001943FE
:102BB0003B7E1B0219433B7F1B041943FB6802F554
:102BC000E07243F8221000BF1037BD4680BD80B4CC
:102BD00085B000AF78600323FB607B6803F00203DD
:102BE000002B02D048F20123FB607B6803F0040352
:102BF000002B02D048F20223FB60FB681846143712
:102C0000BD465DF8047B704780B58AB002AFF860BE
:102C1000B9607A603B60FB681B791A46342303FB7A
:102C200002F3404A1344FB61FB6993F82D30002BFB
:102C300003D00823BB61BB6970E0FB681A68FB68BE
:102C40001B791946384B53F8213019461046FFF7C7
:102C500069FD0346002B03D01123BB61BB695DE016
:102C6000FB697A681A60FB693A685A60FB6900225E
:102C70009A60FB69002283F83020FB69002283F808
:102C80002F20BB685A7BFB6983F83220BB68186829
:102C90000023019306230093032300220021FFF762
:102CA0006DFFBB685868002301930623009303233C
:102CB00000220021FFF762FFFB681B687B61BB6895
:102CC0001968BB685B681A467869FFF77CFEBB68C9
:102CD0009B6819467869FFF78AFEFB691B68002B21
:102CE00015D0FB681B681846FFF7D1FD03461A464E
:102CF000BB681B7B19461046FFF7D6FDFB681B68B7
:102D00001846FFF7C4FD03461846FFF7E0FDFB69D0
:102D1000012283F82D200023BB61BB6918462037B0
:102D2000BD4680BD9C080020D0C7000080B584B09F
:102D300000AF78607B681B791A46342303FB02F3EB
:102D4000074A1344FB607B681B681846FFF72DFE9B
:102D5000FB68022283F82D2000BF1037BD4680BDDE
:102D60009C08002080B485B000AF78607B681B7938
:102D70001A46342303FB02F3064A1344FB60FB6844
:102D800093F82F30DBB218461437BD465DF8047B4C
:102D9000704700BF9C08002080B582B000AF78600B
:102DA00039603B6803F00103002B03D07868FFF71C
:102DB000A1FE02E07868FFF7ABFE3B6803F0020378
:102DC000002B03D07868FFF7B1FE02E07868FFF7C8
:102DD000BBFE00BF0837BD4680BD0000B0B588B05F
:102DE00000AFF860B9607A603B600023FB610823A4
:102DF000FB764FF482733B837B68DB681846FFF7F2
:102E000033FD034683F00103DBB2002B03D0102314
:102E1000FB61FB6977E1A049B868FFF7B7FDFB6884
:102E200093F82F30DBB2002B09D0FB689B68194662
:102E3000B868FFF79CFD1123FB61FB6963E13B6808
:102E400003F00403002B06D13B6803F01003002BB2
:102E500001D1012300E0002303F00103DAB2FB6893
:102E600083F82F20FB687A6803F10C0415460FCD18
:102E70000FC42B6823603B6803F01003002B14BFC2
:102E800001230023DAB2FB6883F830207B685B788B
:102E90001946B868FFF7CDFD4FF48271B868FFF7A7
:102EA0003AFD4FF49271B868FFF735FD3968B8689C
:102EB000FFF772FF7B681B78032B00F2C88001A22A
:102EC00052F823F0C72F00001F300000752F0000BC
:102ED000D52E00007B681B691846FFF7C5FC03462A
:102EE00083F00103DBB2002B03D01023FB61FB69ED
:102EF00009E14FF48071B868FFF7D3FD7B68D968AA
:102F00007B685B681A46B868FFF7A3FD4FF4A871A9
:102F1000B868FFF700FD4FF4B071B868FFF7FBFC2D
:102F20004FF4A471B868FFF7F6FC2021B868FFF7EA
:102F3000E1FC0821B868FFF7DDFC00BF4FF4A87181
:102F4000B868FFF7FFFC034683F00103DBB2002BF8
:102F5000F4D14FF4A871B868FFF7DDFC7B681969FC
:102F60007B689B681A46B868FFF773FDFB684B4A9D
:102F70009A606FE07B68D9687B685B681A46B868BE
:102F8000FFF767FD7B681B691846FFF76DFC03467A
:102F900083F00103DBB2002B03D01023FB61FB693C
:102FA000B1E07B6819697B689B681A46B868FFF7CF
:102FB00064FD4FF48451B868FFF773FDFB6840F27D
:102FC00002229A6046E07B68D9687B685B681A4693
:102FD000B868FFF73EFD3B6803F02003002B10D0DC
:102FE0004FF48071B868FFF75CFDFB682B4A9A606C
:102FF0004FF4A471B868FFF78EFC4FF4A4733B83C1
:1030000008E04FF40071B868FFF74BFDFB6840F231
:1030100002229A602021B868FFF76CFC1AE07B68F6
:10302000D9687B685B681A46B868FFF726FD4FF4DD
:103030008051B868FFF735FDFB6840F202229A60C4
:103040000023FB762021B868FFF754FC02E0072339
:10305000FB6100BF3B6803F00803002B08D17B68CD
:103060001B78032B04D0FB7E1946B868FFF742FC9F
:10307000FB681B68002B2BD03B6803F00403002B7C
:1030800003D0FB684FF400729A60FB689B68194696
:10309000B868FFF76CFC35E002029C0100020400F6
:1030A0004FF49271B868FFF74DFC0346002B0FD028
:1030B0004FF49271B868FFF72EFC2021B868FFF733
:1030C00019FC1421B868FFF715FC4FF482733B8399
:1030D0003B8B1946B868FFF735FC034683F00103C4
:1030E000DBB2002BDCD1B868FFF790FC7861FB689D
:1030F000002283F82F207B69002B03D07869FFF72B
:1031000066FDF861FB6918462037BD46B0BD00BFBB
:1031100080B586B000AFF860B9607A6000237B614B
:10312000FB681B791A46342303FB02F3074A134456
:103130003B61FB6819687B68BA683869FFF74EFE27
:1031400078617B6918461837BD4680BD9C08002011
:10315000B0B58AB000AF786039604FF4927178688A
:10316000FFF7F0FB0346002B27D04FF492717868ED
:10317000FFF7D1FB4FF482717868FFF7E3FB03465A
:1031800083F00103DBB2002B17D03B689B68194624
:103190007868FFF7FBFB3B6802229A603B689B68FC
:1031A00019467868FFF7E3FB20217868FFF7A2FB58
:1031B00014217868FFF79EFBC5E04FF482717868B0
:1031C000FFF7C0FB0346002B51D04FF482717868A3
:1031D000FFF7A1FB3B6807F1100403F10C050FCDCD
:1031E0000FC42B6823603B6893F82E30002B1BD054
:1031F0003B681B7B012B04D17868FFF76EFC03460C
:1032000003E07868FFF75CFC03467B613B681B7B4F
:10321000022B04D17868FFF760FC034603E078686E
:10322000FFF74EFC0346BB614FF4B0717868FFF7BF
:1032300072FB4FF4AE717868FFF76DFB3B6893F853
:10324000303083F00103DBB2002B04D13B6893F8EC
:103250002E30002B4DD000217868FFF722FC3B6810
:1032600000229A6039497868FFF790FB41E04FF4FB
:10327000A4717868FFF74FFB3B681B7B002B1CD1C8
:103280003B6807F1100403F10C050FCD0FC42B6848
:1032900023603B6893F8303083F00103DBB2002BEE
:1032A00027D000217868FFF7FCFB3B6800229A607A
:1032B00026497868FFF76AFB1BE04FF400717868D5
:1032C000FFF7EFFB3B6840F202229A601F497868E3
:1032D000FFF75CFB3B689B6819467868FFF747FB84
:1032E00008217868FFF706FB20217868FFF702FBCA
:1032F00029E07868FFF78AFB78627B6A03F00203B3
:10330000002B02D001233B7309E07B6A03F0040326
:10331000002B02D002233B7301E000233B733B6888
:1033200093F8303083F00103DBB2002B03D03B680D
:10333000002283F82F203B681B683A68516807F128
:103340000C02104698472837BD46B0BD02029C01CA
:1033500080B500AF02490348FFF7FAFE00BF80BD09
:103360009C0800200030004080B483B000AF0346CA
:10337000FB71094997F907305B09FA7902F01F02DE
:10338000012000FA02F241F8232000BF0C37BD46AD
:103390005DF8047B704700BF00E100E080B483B0BB
:1033A00000AF0346FB71094997F907305B09FA79C9
:1033B00002F01F02012000FA02F2203341F823201C
:1033C00000BF0C37BD465DF8047B704700E100E0AC
:1033D00080B483B000AF0346FB71094997F9073009
:1033E0005B09FA7902F01F02012000FA02F2603351
:1033F00041F8232000BF0C37BD465DF8047B7047C1
:1034000000E100E080B483B000AF03463960FB7197
:1034100097F90730002B0BDA0D49FB7903F00F0306
:10342000043B3A68D2B25201D2B20B441A7609E098
:10343000084997F907303A68D2B25201D2B20B4428
:1034400083F8002300BF0C37BD465DF8047B70474E
:1034500000ED00E000E100E080B483B000AF7860F0
:103460007B681B0B5BB218460C37BD465DF8047BCE
:10347000704780B582B000AF03460A46FB71134621
:10348000BB71BA7997F9073011461846FFF7BAFFB2
:1034900000BF0837BD4680BD80B582B000AF03468F
:1034A000FB7197F907301846FFF792FF97F907303D
:1034B0001846FFF759FF00BF0837BD4680BD80B5ED
:1034C00082B000AF0346FB7197F907301846FFF74B
:1034D00065FF00BF0837BD4680BD80B485B000AF32
:1034E00078600B467B807B887A68134400221A60E0
:1034F0007B887A6813441B68FB60FB6800BF143745
:10350000BD465DF8047B704780B483B000AF78603F
:103510000B467B807B887A6813441B68002B14BFA2
:1035200001230023DBB218460C37BD465DF8047B4F
:10353000704780B483B000AF786039607B683A68C8
:10354000C3F8042300BF0C37BD465DF8047B704709
:1035500080B483B000AF786039607B68D3F804230F
:103560003B681340002B14BF01230023DBB2184635
:103570000C37BD465DF8047B704780B483B000AF64
:10358000786039607B683A68C3F8082300BF0C375D
:10359000BD465DF8047B704780B485B000AF7860AD
:1035A0007B68D3F88034FB607B68FA68C3F88024BA
:1035B000FB6818461437BD465DF8047B704780B43D
:1035C00083B000AF78607B680422C3F8002500BF99
:1035D0000C37BD465DF8047B704780B483B000AF04
:1035E00078607B680022C3F8002500BF0C37BD4619
:1035F0005DF8047B704780B485B000AFF860B960B7
:103600007A60FB687A68C3F81425FB68BA68C3F867
:103610000C2500BF1437BD465DF8047B704780B5AC
:1036200082B000AF78604FF0FF324FF0FF31786822
:10363000FFF7E1FF00BF0837BD4680BD80B483B00F
:1036400000AF78607B68D3F80C3518460C37BD4660
:103650005DF8047B704780B483B000AF78607B680E
:10366000D3F8143518460C37BD465DF8047B704717
:1036700080B483B000AF78607B68D3F80835184613
:103680000C37BD465DF8047B704780B483B000AF53
:1036900078607B68D3F8103518460C37BD465DF866
:1036A000047B704780B485B000AFF860B9607A6081
:1036B000FB68BA68C3F80825FB687A68C3F8102568
:1036C00000BF1437BD465DF8047B704780B582B0FB
:1036D00000AF78604FF0FF324FF0FF317868FFF7AE
:1036E000E1FF00BF0837BD4680BD80B483B000AFA6
:1036F00078607B68D3F81835DBB218460C37BD46C6
:103700005DF8047B704780B483B000AF78600B46EF
:10371000FB70FA787B68C3F81C2500BF0C37BD46E8
:103720005DF8047B704780B483B000AF78600B46CF
:10373000FB70FB787A68134401221A6000BF0C37D3
:10374000BD465DF8047B704780B483B000AF7860FD
:103750000B46FB701346BB70FA78BB781343DBB2A1
:103760001A467B68C3F86C2500BF0C37BD465DF870
:10377000047B704780B483B000AF786039607B68A9
:103780003A68C3F8242500BF0C37BD465DF8047BBA
:10379000704780B483B000AF78604FF0A043184604
:1037A0000C37BD465DF8047B704780B584B000AF30
:1037B0007860084611461A460346FB700B46BB70FC
:1037C00013467B703B1D1846FFF7E3FFF8607A68ED
:1037D000F978BB785B0019437B789B0019433B7EEB
:1037E0001B0219433B7F1B041943FB6802F5E0727F
:1037F00043F8221000BF1037BD4680BD80B584B0AD
:1038000002AF78600023019300230093002301227C
:1038100001217868FFF7C9FF00BF0837BD4680BDAA
:1038200080B584B002AF78600B46FB70FA78002355
:103830000193002300931346002200217868FFF7CC
:10384000B4FF00BF0837BD4680BD80B584B002AF6D
:1038500078600023019300230093002301220021BC
:103860007868FFF7A2FF00BF0837BD4680BD80B56E
:1038700084B000AF78603B1D1846FFF78AFFF86000
:103880007B68012202FA03F31946F86800F004F895
:1038900000BF1037BD4680BD80B483B000AF7860F4
:1038A00039607B683A68C3F8082500BF0C37BD460D
:1038B0005DF8047B704780B582B000AF78603960F6
:1038C0003B681B68B3F1FF3F09D03B681B68184693
:1038D000FFF7CDFF3B681B681846FFF78FFF3B687B
:1038E0005B68B3F1FF3F05D03B685B680021184679
:1038F000FFF796FF7B681A683B689B69194610467C
:10390000FFF738FF7B6818683B68597D3B681B7D73
:103910001A46FFF719FF7B6818683B6819683B680F
:103920005B681A46FFF767FE3B681B7D012B22D1BF
:103930003B689B68B3F1FF3F05D03B689B68002163
:103940001846FFF76DFF3B68DB68B3F1FF3F09D016
:103950003B68DB681846FFF78AFF3B68DB68184660
:10396000FFF74CFF7B6818683B68D9683B689B6829
:103970001A46FFF797FE00BF0837BD4680BD00001E
:1039800080B582B000AF78600B46FB707B681B6827
:103990004FF48E711846FFF7A0FD7B681B684FF44B
:1039A000A2711846FFF799FD7B681B680E491846FF
:1039B000FFF7BFFD7B681B681846FFF74DFD034608
:1039C0001A46FB7819461046FFF753FD7B681B68C3
:1039D0001846FFF741FD03461846FFF75DFD00BF9F
:1039E0000837BD4680BD00BF8000020080B582B0B0
:1039F00000AF78607B681B6808491846FFF7BDFD7B
:103A00007B681B681846FFF727FD03461846FFF73B
:103A100056FD00BF0837BD4680BD00BF84020200CE
:103A200080B586B000AF78607B681B681846FFF7EA
:103A300005FE78617B681B681846FFF70CFE38614D
:103A40007B681B681846FFF713FEF8607B681B68ED
:103A50001846FFF71AFEB8607B681B681846FFF728
:103A6000DEFD7B681B681846FFF730FE7B69B3F10B
:103A7000FF3F02D07869FFF7E8FE3B69B3F1FF3FF3
:103A800002D03869FFF7E1FEBB68B3F1FF3F02D017
:103A9000B868FFF7DAFEFB68B3F1FF3F02D0F868C1
:103AA000FFF7D3FE00BF1837BD4680BD80B586B096
:103AB00000AFF860B9607A60FB681B791A462C2366
:103AC00003FB02F3284A13447B6100233B617B69BB
:103AD00093F82A30002B03D008233B613B693EE07A
:103AE000FB681A68FB681B791946204B53F8213094
:103AF00019461046FEF716FE0346002B03D011238D
:103B00003B613B692BE0B968F868FFF7D4FE7B693D
:103B10007A685A60BB681A697B691A607B695B685E
:103B2000002B05D0BB681B7F1946F868FFF728FFFC
:103B3000FB681B681846FFF742FD7B6900229A610B
:103B40007B690022DA617B69002283F829207B6986
:103B500000225A617B69012283F82A203B691846BA
:103B60001837BD4680BD00BFD0080020DCC700006C
:103B700080B584B000AF78607B681B791A462C232F
:103B800003FB02F3104A1344FB607B681B68184672
:103B9000FFF723FDFB685B68002B02D07868FFF716
:103BA00025FF7868FFF73CFF7B681B681846FEF727
:103BB000E8FDFB68002283F82A20FB6800225A6097
:103BC00000BF1037BD4680BDD008002080B584B04E
:103BD00000AF786039604FF48E717868FFF77DFC34
:103BE0003B689A683B681B6A13441B78FB733B680D
:103BF0001B6A5A1C3B681A62FB7B19467868FFF700
:103C000082FD00BF1037BD4680BD80B582B000AFD9
:103C10007860396016E03B6893F82830DBB2002BFF
:103C200001D0002315E04FF48E717868FFF76CFC2B
:103C3000034683F00103DBB2002BECD139687868CE
:103C4000FFF7C4FF3B681A6A3B685B699A42EAD394
:103C5000012318460837BD4680BD000080B586B0F8
:103C600000AFF860B9607A60FB681B791A462C23B4
:103C700003FB02F32E4A13443B61F86800F05AF844
:103C80000346002B03D011237B617B694CE03B6929
:103C90007A685A613B69BA689A603B6900221A6285
:103CA0003B69002283F8282000237B61FB681B68A6
:103CB0004FF48E711846FFF710FCFB681B68082153
:103CC0001846FFF730FDFB681B6839691846FFF797
:103CD0007DFF3B695B68002B25D1FB681B68396958
:103CE0001846FFF792FF034683F00103DBB2002B77
:103CF00002D00F237B6113E000BFFB681B684FF409
:103D00008E711846FFF700FC034683F00103DBB217
:103D1000002BF2D1FB681B680C211846FFF703FD4E
:103D20003B6900225A617B6918461837BD4680BD41
:103D3000D008002080B483B000AF78607B681B7926
:103D40001946094A2C2303FB01F3134414331B685F
:103D5000002B14BF01230023DBB218460C37BD46ED
:103D60005DF8047B704700BFD008002090B583B099
:103D700000AF786039603B689B69002B08D14FF435
:103D800084717868FFF7A9FB7868FFF7AEFC13E051
:103D90004FF484717868FFF7A0FB3B68DA683B68F2
:103DA0005B6AD4187868FFF7A0FC034623703B6871
:103DB0005B6A5A1C3B685A620C37BD4690BD80B5A1
:103DC00088B000AFF860B9607A6001233B74BB68CB
:103DD000BB617B687B61FB685B68FA68116807F10F
:103DE00010021046984700BF2037BD4680BD80B501
:103DF00086B000AF7860396000233B723B683B615E
:103E00007B689B68FB607B6800225A617B685B680B
:103E10007A68116807F108021046984700BF183702
:103E2000BD4680BD80B588B000AF786039604FF482
:103E300000717868FFF78CFB0346002B39D04FF4F4
:103E400092717868FFF760FB0346002B31D04FF486
:103E500092717868FFF741FB4FF401717868FFF7C2
:103E60008CFB3B6893F8293083F00103DBB2002B15
:103E700003D004217868FFF756FC02233B72786870
:103E8000FFF78AFB03467B613B689B693B613B68AC
:103E9000DB68FB603B6800229A613B680022DA61C4
:103EA0003B685B683A68116807F10802104698475A
:103EB00052E004217868FFF74BFB0346002B4BD000
:103EC0004FF484717868FFF71FFB0346002B43D043
:103ED00039687868FFF74AFF3B689A693B685B6A14
:103EE0009A4239D13B68DB69002B19D03B68DB680B
:103EF000FB613B685B6ABB613B68DA693B689A615E
:103F00003B681A693B68DA603B680022DA613B680B
:103F100000225A62FA69B9693868FFF750FF1BE05E
:103F20003B6893F8293083F00103DBB2002B03D008
:103F300004217868FFF7F7FB4FF401717868FFF709
:103F40001CFB3B6800229A613B68596A3B68DB684E
:103F50001A463868FFF733FF4FF48E717868FFF721
:103F6000D3FA0346002B22D03B681A6A3B685B6990
:103F70009A420DD23B6893F82830DBB283F00103FC
:103F8000DBB2002B04D039687868FFF71FFE0EE023
:103F90004FF48E717868FFF7A0FA3B685B69002BDD
:103FA00005D03B685B6919463868FFF720FF4FF47E
:103FB000A2717868FFF7A8FA0346002B1CD04FF4D3
:103FC000A2717868FFF789FA3B6893F82930002BD3
:103FD00003D000217868FFF7A6FB3B689B69002BA4
:103FE0000AD03B6800229A613B68596A3B68DB68EB
:103FF0001A463868FFF7E3FE00BF2037BD4680BD94
:1040000080B500AF02490348FFF70CFF00BF80BD39
:10401000D00800200020004080B483B000AF0346E9
:10402000FB71094997F907305B09FA7902F01F0221
:10403000012000FA02F241F8232000BF0C37BD46F0
:104040005DF8047B704700BF00E100E080B483B0FE
:1040500000AF0346FB71094997F907305B09FA790C
:1040600002F01F02012000FA02F2203341F823205F
:1040700000BF0C37BD465DF8047B704700E100E0EF
:1040800080B483B000AF0346FB71094997F907304C
:104090005B09FA7902F01F02012000FA02F2603394
:1040A00041F8232000BF0C37BD465DF8047B704704
:1040B00000E100E080B483B000AF03463960FB71DB
:1040C00097F90730002B0BDA0D49FB7903F00F034A
:1040D000043B3A68D2B25201D2B20B441A7609E0DC
:1040E000084997F907303A68D2B25201D2B20B446C
:1040F00083F8002300BF0C37BD465DF8047B704792
:1041000000ED00E000E100E080B483B000AF786033
:104110007B6803F06043B3F1005F0CBF0123002311
:10412000DBB218460C37BD465DF8047B704780B49F
:1041300083B000AF78607B681B0B5BB218460C370E
:10414000BD465DF8047B704780B582B000AF034682
:104150000A46FB711346BB71BA7997F907301146CD
:104160001846FFF7A7FF00BF0837BD4680BD80B5E2
:1041700082B000AF0346FB7197F907301846FFF78E
:104180007FFF97F907301846FFF746FF00BF083753
:10419000BD4680BD80B582B000AF0346FB7197F984
:1041A00007301846FFF752FF00BF0837BD4680BDF5
:1041B00080B485B000AF78600B467B807B887A68DE
:1041C000134400221A607B887A6813441B68FB60E2
:1041D000FB6800BF1437BD465DF8047B704780B4B0
:1041E00083B000AF78600B467B807B887A6813448D
:1041F0001B68002B14BF01230023DBB218460C37C9
:10420000BD465DF8047B704780B483B000AF786032
:1042100039607B68D3F800223B68DB431A407B6837
:10422000C3F8002200BF0C37BD465DF8047B704721
:1042300080B483B000AF786039607B683A68C3F8B7
:10424000042300BF0C37BD465DF8047B704780B483
:1042500083B000AF786039607B683A68C3F80823A0
:1042600000BF0C37BD465DF8047B704780B485B055
:1042700000AF78607B68D3F88034FB607B68FA68B5
:10428000C3F88024FB6818461437BD465DF8047BEC
:10429000704780B483B000AF78607B680822C3F8B1
:1042A000002500BF0C37BD465DF8047B704780B425
:1042B00083B000AF78607B680022C3F8002500BFA0
:1042C0000C37BD465DF8047B704780B485B000AF05
:1042D000F860B9607A60FB68BA68C3F80C25FB68BF
:1042E0007A68C3F8142500BF1437BD465DF8047B17
:1042F000704780B582B000AF78604FF0FF324FF06A
:10430000FF317868FFF7E1FF00BF0837BD4680BD89
:1043100080B483B000AF78607B68D3F80C35184662
:104320000C37BD465DF8047B704780B483B000AFA6
:1043300078607B68D3F8143518460C37BD465DF8B5
:10434000047B704780B483B000AF78607B68D3F89B
:10435000083518460C37BD465DF8047B704780B4BD
:1043600083B000AF78607B68D3F8103518460C37FF
:10437000BD465DF8047B704780B485B000AFF8603F
:10438000B9607A60FB68BA68C3F80825FB687A6888
:10439000C3F8102500BF1437BD465DF8047B704795
:1043A00080B582B000AF78604FF0FF324FF0FF3140
:1043B0007868FFF7E1FF00BF0837BD4680BD80B4D5
:1043C00083B000AF78600B46FB70FB787A681344CB
:1043D00001221A6000BF0C37BD465DF8047B7047B0
:1043E00080B483B000AF78600B46FB701346BB709F
:1043F000FA78BB781343DBB21A467B68C3F86C25A6
:1044000000BF0C37BD465DF8047B704780B483B0B5
:1044100000AF786039607B683A68C3F8242500BF34
:104420000C37BD465DF8047B704780B485B000AFA3
:10443000F860B9607A60BA68FB68C3F84425FB6825
:104440007A68C3F8482500BF1437BD465DF8047B81
:10445000704780B483B000AF78607B68D3F84C3588
:1044600018460C37BD465DF8047B704780B483B0B6
:1044700000AF78607B68D3F83C3518460C37BD46F2
:104480005DF8047B704780B483B000AF78604FF074
:10449000A04318460C37BD465DF8047B704780B5D5
:1044A00084B000AF7860084611461A460346FB7098
:1044B0000B46BB7013467B703B1D1846FFF7E3FFAE
:1044C000F8607A68F978BB785B0019437B789B00C9
:1044D00019433B7E1B0219433B7F1B041943FB68B6
:1044E00002F5E07243F8221000BF1037BD4680BDD0
:1044F00080B584B002AF786000230193002300935D
:104500000023012201217868FFF7C9FF00BF0837A7
:10451000BD4680BD80B584B002AF78600B46FB70AD
:10452000FA78002301930023009313460022002110
:104530007868FFF7B4FF00BF0837BD4680BD80B57F
:1045400084B002AF7860002301930023009300231E
:10455000012200217868FFF7A2FF00BF0837BD469F
:1045600080BD80B584B000AF78603B1D1846FFF772
:104570008AFFF8607B68012202FA03F31946F868A3
:1045800000F004F800BF1037BD4680BD80B483B092
:1045900000AF786039607B683A68C3F8082500BFCF
:1045A0000C37BD465DF8047B704780B582B000AF24
:1045B000786039603B681B68B3F1FF3F09D03B6806
:1045C0001B681846FFF7CDFF3B681B681846FFF7CE
:1045D0008FFF3B685B68B3F1FF3F05D03B685B68CA
:1045E00000211846FFF796FF7B681A683B689B69B5
:1045F00019461046FFF70AFF7B6818683B68597D2B
:104600003B681B7D1A46FFF7EBFE7B6818683B682A
:1046100019683B685B681A46FFF757FE3B681B7DCD
:10462000012B22D13B689B68B3F1FF3F05D03B686B
:104630009B6800211846FFF76DFF3B68DB68B3F10C
:10464000FF3F09D03B68DB681846FFF78AFF3B68ED
:10465000DB681846FFF74CFF7B6818683B68D96831
:104660003B689B681A46FFF787FE00BF0837BD46C8
:1046700080BD000080B582B000AF78600B46FB7053
:104680007B681B684FF488711846FFF791FD7B68C3
:104690001B684FF490711846FFF78AFD7B681B6812
:1046A0004FF492711846FFF783FD7B681B684FF447
:1046B000A2711846FFF77CFD7B681B680E491846FF
:1046C000FFF7B6FD7B681B681846FFF730FD034611
:1046D0001A46FB7819461046FFF736FD7B681B68C3
:1046E0001846FFF724FD03461846FFF740FD00BFBC
:1046F0000837BD4680BD00BF1003020080B582B000
:1047000000AF78607B681B6808491846FFF79FFD7B
:104710007B681B681846FFF70AFD03461846FFF73B
:1047200039FD00BF0837BD4680BD00BF1003020041
:1047300080B586B000AF78607B681B681846FFF7CD
:10474000E7FD78617B681B681846FFF7EEFD38616E
:104750007B681B681846FFF7F5FDF8607B681B68EF
:104760001846FFF7FCFDB8607B681B681846FFF72A
:10477000C0FD7B681B681846FFF712FE7B69B3F12A
:10478000FF3F02D07869FFF7DAFE3B69B3F1FF3FE4
:1047900002D03869FFF7D3FEBB68B3F1FF3F02D008
:1047A000B868FFF7CCFEFB68B3F1FF3F02D0F868B2
:1047B000FFF7C5FE00BF1837BD4680BD80B586B087
:1047C00000AFF860B9607A60FB681B791A4613463F
:1047D000DB0013449B00264A13447B6100233B61AA
:1047E0007B6993F82030002B03D008233B613B69A1
:1047F0003AE0FB681A68FB681B7919461D4B53F8B1
:10480000213019461046FDF78DFF0346002B03D0DB
:1048100011233B613B6927E0B968F868FFF7C5FEE3
:104820007B697A685A60BB681A697B691A607B6920
:104830005B68002B05D0BB681B7F1946F868FFF743
:1048400019FFFB681B681846FFF723FD7B690022F0
:104850009A617B690022DA617B6900225A617B6977
:10486000012283F820203B6918461837BD4680BDD9
:10487000FC080020E8C7000080B584B000AF786075
:104880007B681B791A461346DB0013449B00114AD0
:104890001344FB607B681B681846FFF708FDFB6844
:1048A0005B68002B02D07868FFF728FF7868FFF775
:1048B0003FFF7B681B681846FDF763FFFB6800221B
:1048C00083F82020FB6800225A6000BF1037BD46E5
:1048D00080BD00BFFC08002080B588B000AFF86044
:1048E000B9607A60FB681B791A461346DB001344F3
:1048F0009B00374A1344BB61B868FFF705FC0346C9
:1049000083F00103DBB2002B03D01023FB61FB69B2
:1049100059E0F86800F05EF80346002B03D011233D
:10492000FB61FB694FE0BB697A685A61BB69BA6891
:104930009A600023FB61FB681B684FF49071184676
:10494000FFF736FCFB681B684FF4AC711846FFF7A5
:104950002FFCFB681868BB699968BB695B691A46DC
:10496000FFF763FDFB681B6808211846FFF727FD6A
:10497000BB695B68002B25D1FB681B684FF4907105
:104980001846FFF72CFC0346FB75FB681B684FF4C9
:10499000AC711846FFF723FC0346BB75FB7D83F023
:1049A0000103DBB2002B05D0BB7D83F00103DBB23A
:1049B000002BE1D1BB7D002B01D00F23FB61BB6934
:1049C00000225A61FB6918462037BD4680BD00BFF2
:1049D000FC08002080B483B000AF78607B681B794E
:1049E0001946094A0B46DB000B449B001344143361
:1049F0001B68002B14BF01230023DBB218460C37C1
:104A0000BD465DF8047B7047FC08002080B588B087
:104A100000AFF860B9607A6001233B74BB68DBB219
:104A20003B767B687B61FB685B68FA68116807F11D
:104A300010021046984700BF2037BD4680BD80B5A4
:104A400086B000AF7860396000233B723B68DBB210
:104A50003B747B689B68FB607B6800225A617B68C3
:104A60005B687A68116807F108021046984700BF32
:104A70001837BD4680BD80B588B000AF786039601A
:104A80004FF492717868FFF7AAFB0346002B23D0FE
:104A90004FF492717868FFF78BFB02233B727868C2
:104AA000FFF7E4FB03467B617868FFF7DFFC034612
:104AB000DBB23B743B68DB68FB603B6800229A61B9
:104AC0003B680022DA613B685B683A68116807F16D
:104AD0000802104698473BE04FF488717868FFF76A
:104AE0007EFB0346002B33D04FF488717868FFF7C4
:104AF0005FFB7868FFF7BAFCF8613B689A69FB696D
:104B00009A4225D13B68DB69002B17D03B68DB68F4
:104B1000BB6120217868FFF777FB3B68DA693B6867
:104B20009A613B681A693B68DA603B680022DA6187
:104B3000BA69F9693868FFF769FF09E03B68002244
:104B40009A613B68DB681A46F9693868FFF75EFFCF
:104B50004FF4A2717868FFF742FB0346002B15D093
:104B60004FF4A2717868FFF723FB3B689B69002B29
:104B70000CD03B6800229A617868FFF777FC014609
:104B80003B68DB681A463868FFF740FF4FF49071C6
:104B90007868FFF724FB0346002B10D04FF4907188
:104BA0007868FFF705FB3B685B69002B07D07868E6
:104BB000FFF74FFC034619463868FFF740FF00BF78
:104BC0002037BD4680BD000080B500AF02490348D4
:104BD000FFF751FF00BF80BDFC080020002000400F
:104BE00080B582B002AFAC4BD3ED007AB6EE007A5E
:104BF000F4EEC77AF1EE10FA00DCD8E1A74AA84B30
:104C0000D31ADB081B0443F00500A64B1B68D3ED49
:104C1000007AF5EEC07AF1EE10FA0CD5A14B1B68C4
:104C2000D3ED007ABFEE007AF4EEC77AF1EE10FA17
:104C300001DD9D4A00E09D4A9A4B1B68D3ED007A46
:104C4000FDEEE77A17EE901A964B1B68D3ED007ACB
:104C5000F5EEC07AF1EE10FA16DD924B1B6893ED7B
:104C6000007A904B1B68D3ED007AFDEEE77AF8EE00
:104C7000E77A77EE677A9FED8E7A67EE877AFDEEB8
:104C8000E77A17EE903A15E0864B1B68D3ED007A71
:104C9000FDEEE77AB8EEE77A824B1B68D3ED007A37
:104CA00077EE677A9FED827A67EE877AFDEEE77A94
:104CB00017EE903A00930B467E49FCF701F9774ACC
:104CC000774BD31ADB081B0443F00500754B1B68B8
:104CD000D3ED017AF5EEC07AF1EE10FA0CD5714BF6
:104CE0001B68D3ED017ABFEE007AF4EEC77AF1EEDD
:104CF00010FA01DD6C4A00E06C4A6A4B1B68D3ED88
:104D0000017AFDEEE77A17EE901A664B1B68D3ED39
:104D1000017AF5EEC07AF1EE10FA16DD614B1B68F0
:104D200093ED017A5F4B1B68D3ED017AFDEEE77AD4
:104D3000F8EEE77A77EE677A9FED5D7A67EE877A2D
:104D4000FDEEE77A17EE903A15E0564B1B68D3ED6F
:104D5000017AFDEEE77AB8EEE77A524B1B68D3EDA5
:104D6000017A77EE677A9FED527A67EE877AFDEEE9
:104D7000E77A17EE903A00930B464F49FCF7A0F8FC
:104D8000464A474BD31ADB081B0443F00500454B4A
:104D90001B68D3ED027AF5EEC07AF1EE10FA0CD56D
:104DA000404B1B68D3ED027ABFEE007AF4EEC77A6F
:104DB000F1EE10FA01DD3C4A00E03C4A394B1B6839
:104DC000D3ED027AFDEEE77A17EE901A354B1B68A9
:104DD000D3ED027AF5EEC07AF1EE10FA16DD314B22
:104DE0001B6893ED027A2F4B1B68D3ED027AFDEE20
:104DF000E77AF8EEE77A77EE677A9FED2D7A67EE3D
:104E0000877AFDEEE77A17EE903A15E0254B1B689E
:104E1000D3ED027AFDEEE77AB8EEE77A214B1B6814
:104E2000D3ED027A77EE677A9FED217A67EE877A83
:104E3000FDEEE77A17EE903A00930B461F49FCF718
:104E40003FF8164A164BD31ADB081B0443F0050043
:104E50001B4B1B6807EE903AF8EE676A0E4B93ED1A
:104E6000007AC6EE877AF5EEC07AF1EE10FA29D50F
:104E7000134B1B6807EE903AF8EE676A064B93ED0A
:104E8000007AC6EE877ABFEE007AF4EEC77AF1EECA
:104E900010FA17DD044A16E028090020ACCD000006
:104EA00074CD000020090020F0C70000F4C7000006
:104EB0000000C842F8C700000CC8000020C800006D
:104EC000240900203B4A3C4B1B6807EE903AF8EE61
:104ED000676A3A4B93ED007AC6EE877AFDEEE77A81
:104EE00017EE901A344B1B6807EE903AF8EE676A9B
:104EF000324B93ED007AC6EE877AF5EEC07AF1EE8A
:104F000010FA24DD2C4B1B6807EE903AF8EE676A26
:104F10002A4BD3ED007A86EEA77A274B1B6807EE63
:104F2000903AB8EE676A254BD3ED006AC6EE267A52
:104F3000FDEEE77AF8EEE77A77EE677A9FED207A72
:104F400067EE877AFDEEE77A17EE903A23E01A4B88
:104F50001B6807EE903AF8EE676A184B93ED007AFB
:104F6000C6EE877AFDEEE77AB8EEE77A124B1B6859
:104F700007EE903AB8EE676A104BD3ED006AC6EEC2
:104F8000267A77EE677A9FED0E7A67EE877AFDEEE6
:104F9000E77A17EE903A00930B460A49FBF790FF29
:104FA000054B00221A60054B4FF000021A6000BF4B
:104FB000BD4680BDF4C70000240900202809002058
:104FC0000000C84234C80000F0B52DED048B89B054
:104FD00000AF00210020FBF785FCB861BB69002B06
:104FE00002D0B869FCF78EFBFBF7F8FBAC4AAD4B7F
:104FF000D31ADB081B0443F00303AB491846FBF745
:1050000027FFA74AA74BD31ADB081B0443F003036F
:10501000A6491846FBF71CFF02F036FE00F0DAFE48
:105020000346FB759E4A9F4BD31ADB081B0443F0D3
:105030000303FA7D9E491846FBF719FFFB7D712B90
:1050400040F02181964A974BD31ADB081B0443F0AA
:10505000030398491846FBF7FBFE00F0E1FE904A77
:10506000904BD31ADB081B0443F003039249184604
:10507000FBF7EEFE01F0ACFC0123012B0DD1884AB9
:10508000884BD31ADB081B0443F003038B491846F3
:10509000FBF7DEFE1C2003F013FC814A814BD31A80
:1050A000DB081B0443F0030385491846FBF7D0FED9
:1050B000844802F013FA7A4A7A4BD31ADB081B04AD
:1050C00043F0030380491846FBF7C2FE0123002B7F
:1050D00004D14FF4487003F07DFB05E00123012B60
:1050E00002D1C82003F076FB00F086FE0346BB75B4
:1050F0006B4A6C4BD31ADB081B0443F00303BA7DE5
:1051000072491846FBF7B3FE654A664BD31ADB08B3
:105110001B0443F003036E491846FBF799FE02F0A7
:10512000C1FA5F4A5F4BD31ADB081B0443F0030349
:1051300068491846FBF78CFE00BFFBF7EBFE034601
:10514000002BFAD120BF0123002B04D102F0DAFB9F
:105150000346FB7706E00123012B03D103F0E2FBBA
:105160000346FB77FB7F83F00103DBB2002BE9D121
:1051700002F0E0FB386102F049FCF86002F0B2FC9A
:10518000B86003F03DFB87ED010A534B93ED007AC5
:10519000D7ED017A77EE277A4F4BC3ED007A4F4B6C
:1051A0001B6801334D4A13603B6993ED018A3B69EB
:1051B000D3ED028A3B6993ED039AFB685B6818465E
:1051C00006F0E6FE34A3D3E9002306F035FF0346DC
:1051D0000C461846214607F0DFF90546FB689B6838
:1051E000184606F0D5FE2CA3D3E9002306F024FFD1
:1051F00003460C461846214607F0CEF90646FB68E2
:10520000DB68184606F0C4FE23A3D3E9002306F0AA
:1052100013FF03460C461846214607F0BDF9024627
:10522000BB6893ED027ABB68D3ED016ABB68D3ED2E
:10523000037AF1EE677AD7ED014AB0EE674AF0EEF5
:10524000663AB0EE473A02EE902A02EE106A01EE9C
:10525000905AB0EE491AF0EE680AB0EE480A02F031
:1052600077FE03F0ADFA0346184603F071FB0246E1
:105270001B4B1A60FFF7B4FC00BFFBF74BFE034665
:10528000002BFAD15EE7002318462437BD46BDEC5B
:10529000048BF0BDAFF30080399D52A246DF913FF1
:1052A000ACCD000074CD000048C8000060C800000C
:1052B0006CC8000094C80000A0C80000ACC8000082
:1052C000B8C80000ECC70000C4C80000D8C800007F
:1052D00000C900000CC90000280900202409002092
:1052E0002009002080B582B000AF1F4B7B607B6837
:1052F00002221A617B6802225A617B681B4A9A610A
:105300007B681B4ADA617B684FF400721A627B6823
:1053100000229A627B6800225A627B680022DA626D
:105320007B68124A9A647B68124ADA647B681022AE
:105330001A657B6800229A657B6800225A657B6843
:105340000022DA657B6807330B49184604F0F5FD47
:105350007B680A49184604F0F0FD7B6820229A71A8
:1053600000BF0837BD4680BD700C002020C900007A
:105370002C0900202C0B00202CC9000030C9000093
:1053800080B588B000AFF860B9607A600023BB6177
:10539000FB68DB687B61FB681B693B613A697B6981
:1053A0009A4205D93A697B69D31A013BFB6107E050
:1053B000FB689A6839697B69CB1A1344013BFB612E
:1053C000FB689A687B69D31AFA69934228BF13462F
:1053D000FB61FA697B68934228BF1346FB61FB6857
:1053E0005A687B691344FA69B968184604F092FD5B
:1053F000BA69FB691344BB61BA68FB691344BB60BB
:105400007A68FB69D31A7B607A69FB6913447B6114
:10541000FB689A687B699A4201D100237B61FB6833
:105420007A69DA607B68002BB5D1BB6918462037F2
:10543000BD4680BD80B588B000AFF860B9607A60C5
:10544000FB68DB68FB61FB689A68FB69D31ABB6188
:10545000BA697B689A420ED9FB685A68FB691344A3
:105460007A68B968184604F055FDFA697B681A44F1
:10547000FB68DA601AE0BB697B61FB685A68FB690C
:1054800013447A69B968184604F044FD7A68BB6928
:10549000D31A7B61FB685868BA68BB6913447A69A0
:1054A000194604F037FDFB687A69DA6000BF2037DF
:1054B000BD4680BD80B487B000AF78607B681B6953
:1054C0003B617B68DB68FB603A69FB689A4208D8FD
:1054D0007B689A68FB68D21A3B691344013B7B6185
:1054E00004E03A69FB68D31A013B7B617B6918468B
:1054F0001C37BD465DF8047B7047000080B588B05E
:1055000000AFF860B9607A60BB68BB61FB685A1C89
:1055100013465B001344DB001E4A13447B617B6926
:105520005B69012B17D0012B02D3022B23D029E07A
:105530007869FFF7BFFF38613A697B689A4202D207
:105540000023FB6121E07B68FB617A68B9697869B7
:10555000FFF770FF19E07869FFF7ACFF38617A68F0
:105560003B69934228BF1346FB61FA69B9697869C0
:10557000FFF760FF09E07A68B9697869FFF700FF13
:10558000F86102E00023FB6100BFFB691846203789
:10559000BD4680BD700C002080B500AFFFF7A2FEB5
:1055A00000BF80BD80B400AFBFF34F8F0549054BEE
:1055B000DB6803F4E062044B1343CB60BFF34F8F0F
:1055C00000BFFDE700ED00E00400FA0580B400AF85
:1055D000034B044A1A6000BFBD465DF8047B704768
:1055E0005C0000200090D00380B500AF00F068F9A7
:1055F0000346002B06D0A04AA04B1B681B0A03F0F1
:105600001F03136000F08EF90346002B02D09C4B61
:105610009C4A1A6000F0A8F90346002B06D09A4A6B
:105620009A4B1B685B0B03F00703136000F0CEF985
:105630000346002B05D0964A954BDB6823F0807318
:10564000D36000F0E5F90346002B0ED04FF0804305
:105650000022C3F80C214FF080430022C3F8102130
:105660004FF080430022C3F8382500F003FA0346C8
:10567000002B02D0874B03221A6000F01DFA03466C
:10568000002B0BD0844B05221A60844B01221A6038
:10569000834B00221A60834B3F221A6000F02EFADF
:1056A0000346002B76D0804A4FF08053D3F8043461
:1056B000C2F820357C4A4FF08053D3F80834C2F842
:1056C0002435794A4FF08053D3F80C34C2F828358A
:1056D000754A4FF08053D3F81034C2F82C35724A13
:1056E0004FF08053D3F81434C2F830356E4A4FF07F
:1056F0008053D3F81834C2F834356B4A4FF08053D6
:10570000D3F81C34C2F84035674A4FF08053D3F8C1
:105710002034C2F84435644A4FF08053D3F824341F
:10572000C2F84835604A4FF08053D3F82834C2F8A5
:105730004C355D4A4FF08053D3F82C34C2F85035C5
:10574000594A4FF08053D3F83034C2F85435564A92
:105750004FF08053D3F83434C2F86035524A4FF0DA
:105760008053D3F83834C2F864354F4A4FF0805331
:10577000D3F83C34C2F868354B4A4FF08053D3F825
:105780004034C2F86C35484A4FF08053D3F8443463
:10579000C2F8703500F0D4F90346002B05D0434A17
:1057A000434B1B6803F04F03136000F0FBF9034603
:1057B000002B0DD04FF08043D3F8003403F00103E9
:1057C000002B05D04FF080436FF00102C3F8002496
:1057D00000F01AFA0346002B05D0364A354B1B68F9
:1057E00043F480631360344A334BD3F8883043F476
:1057F0007003C2F88830BFF34F8FBFF36F8F4FF045
:105800001023D3F80032002B05DB4FF01023D3F820
:105810000432002B2BDA294B0122C3F8042500BFE8
:10582000264BD3F80034002BFAD04FF0102315226A
:10583000C3F8002200BF214BD3F80034002BFAD06C
:105840004FF010231522C3F8042200BF1B4BD3F8DE
:105850000034002BFAD0194B0022C3F8042500BFF6
:10586000164BD3F80034002BFAD0FFF79BFEFFF75E
:10587000ADFE00BF80BD00BF4035014024030010D5
:1058800074C007400DF0ADBA3C0500404402001062
:10589000F0ED00E0A00500401056004088560040A2
:1058A000185600401456004000C00040E40E00406E
:1058B000580200103C17004000ED00E000E00140FD
:1058C00080B400AF144B1B68DBB2062B1DD1134B09
:1058D0001B6803F00F03002B17D1114B1B6803F05B
:1058E000F003302B01D1012310E00D4B1B6803F0B6
:1058F000F003402B01D1012308E0094B1B6803F0A2
:10590000F003502B01D1012300E000231846BD46CF
:105910005DF8047B704700BFE00F00F0E40F00F07B
:10592000E80F00F080B400AF0C4B1B68DBB2062B15
:105930000DD10B4B1B6803F00F03002B07D1094B54
:105940001B6803F0F003302B01D1012300E000239A
:105950001846BD465DF8047B704700BFE00F00F0BD
:10596000E40F00F0E80F00F080B400AF144B1B68A8
:10597000DBB2062B1DD1134B1B6803F00F03002B6A
:1059800017D1114B1B6803F0F003302B01D1012319
:1059900010E00D4B1B6803F0F003402B01D10123F5
:1059A00008E0094B1B6803F0F003502B01D10123E1
:1059B00000E000231846BD465DF8047B704700BF39
:1059C000E00F00F0E40F00F0E80F00F080B400AF4B
:1059D0000C4B1B68DBB2062B0DD10B4B1B6803F085
:1059E0000F03002B07D1094B1B6803F0F003302B8A
:1059F00001D1012300E000231846BD465DF8047B79
:105A0000704700BFE00F00F0E40F00F0E80F00F077
:105A100080B400AF144B1B68DBB2062B1DD1134BB7
:105A20001B6803F00F03002B17D1114B1B6803F009
:105A3000F003302B01D1012310E00D4B1B6803F064
:105A4000F003402B01D1012308E0094B1B6803F050
:105A5000F003502B01D1012300E000231846BD467E
:105A60005DF8047B704700BFE00F00F0E40F00F02A
:105A7000E80F00F080B400AF0C4B1B68DBB2062BC4
:105A80000DD10B4B1B6803F00F03002B07D1094B03
:105A90001B6803F0F003302B01D1012300E0002349
:105AA0001846BD465DF8047B704700BFE00F00F06C
:105AB000E40F00F0E80F00F080B400AF0C4B1B685F
:105AC000DBB2062B0DD10B4B1B6803F00F03002B31
:105AD00007D1094B1B6803F0F003302B01D10123E0
