:1000000000000120E1020000090300000B030000D2
:100010000D0300000F0300001103000000000000AA
:1000200000000000000000000000000013030000BA
:100030001503000000000000170300001903000072
:10004000155200001B030000CD1B00002D1C0000FA
:100050001B0300001B0300001B0300001B03000028
:100060001B0300001B0300001B0300001B03000018
:100070001B0300001B0300001B0300001B03000008
:100080001B0300001B0300001B0300001B030000F8
:100090001B0300001B0300001B0300001B030000E8
:1000A0001B0300001B0300001B0300001B030000D8
:1000B0001B0300001B030000000000000000000004
:1000C0001B0300001B0300001B0300001B030000B8
:1000D000495000001B0300001B030000000000004B
:1000E0000000000000000000000000000000000010
:1000F0000000000000000000000000000000000000
:1001000000000000000000000000000000000000EF
:1001100000000000000000000000000000000000DF
:1001200000000000000000000000000000000000CF
:1001300000000000000000000000000000000000BF
:1001400000000000000000000000000000000000AF
:10015000000000000000000000000000000000009F
:10016000000000000000000000000000000000008F
:10017000000000000000000000000000000000007F
:10018000000000000000000000000000000000006F
:10019000000000000000000000000000000000005F
:1001A000000000000000000000000000000000004F
:1001B000000000000000000000000000000000003F
:1001C000000000000000000000000000000000002F
:1001D000000000000000000000000000000000001F
:1001E000000000000000000000000000000000000F
:1001F00000000000000000000000000000000000FF
:1002000010B5054C237833B9044B13B10448AFF350
:1002100000800123237010BD1802002000000000A0
:10022000E08000000C4B43B10C480D4910B5AFF312
:1002300000800C48036823B910BD0A48036833B92D
:100240007047094B002BF7D0BDE810401847064B0C
:10025000002BF5D0184700BF00000000E080000030
:100260001C0200201402002000000000154B002B8F
:1002700008BF134B9D46A3F5803A00218B460F46DD
:100280001348144A121A05F058F80F4B002B00D0EF
:1002900098470E4B002B00D0984700200021040007
:1002A0000D000D48002802D00C48AFF3008004F088
:1002B000F5FF2000290002F021FC04F0DBFF00BF65
:1002C0000000080000000120000000000000000005
:1002D000180200203C0C002000000000000000007C
:1002E0000649074A074B9B1A03DD043BC858D05008
:1002F000FBDC02F047FDFFF7B9FF00006081000062
:100300000000002018020020FEE7FEE7FEE7FEE7FF
:10031000FEE7FEE7FEE7FEE7FEE7FEE7704700BF09
:1003200000B583B0044B0093044A402300F036F834
:1003300003B05DF804FB00BF410300003802002059
:1003400002B32DE9F843114B114E8846144643F091
:10035000010903270025224608EB0501002002F0D1
:100360001DFC03461D444FF47A40E41A23B9337848
:1003700033B1C847013F06D001233370002CEAD1C6
:10038000BDE8F88370473770BDE8F883707A0000E5
:1003900034020020704700BF02F0C4BCF0B595B035
:1003A000002415460F4608461E4601F0FBFA384663
:1003B00023460822089505A91A9D09960D950A94C9
:1003C0008DF82C400C9401F049FB9DF814300798EF
:1003D00006998DF8114003F00302012A029003915F
:1003E00028D0022A04D0384601F0E0FA15B0F0BD5A
:1003F000BDF81650C3F3C2038DF81030C5F389154C
:100400000826082D2C4628BF0824334622460EA96C
:10041000384601F023FB2D1B214608AB02AA0EA88B
:10042000264400F0A3FD002DEBD1384601F0BEFAC2
:1004300015B0F0BDBDF81460059DC6F38316C3F377
:10044000C204B2000EA9384608238DF81040C5F347
:10045000952501F003FB08AB0093324628460EA910
:1004600002AB00F0DDFCBEE7014B01221A707047C1
:10047000BC020020704700BF00B583B0044B00935E
:10048000044A4023FFF78AFF03B05DF804FB00BF76
:10049000990400007C02002038B50E480E4D037808
:1004A0000E4CEB5C00252570D2B253B90C3002F033
:1004B00085F858B90A4B1B7813B12378002BFCD070
:1004C00038BD043002F0CCFA0028F3D000F0FCFD77
:1004D000F0E700BF00000020C00B0020BC0200209D
:1004E0007802002070B51348134A0378D35C88B0B3
:1004F000DBB90C3001F0FCFF104D0FCD6C460FC482
:1005000095E80F0008AD062645F8206D84E80F0039
:1005100029460022074801F019FB08B100F0D4FD7C
:10052000074B00221A7008B070BD043002F030FA98
:10053000E2E700BF00000020C00B0020847A00002A
:100540007802002070B50D4D0FCD88B06C460FC4F9
:1005500095E80F0008AD062645F8206D84E80F00E9
:100560002946074A074801F0F1FA08B100F0ACFD4E
:10057000054B01221A7008B070BD00BF847A0000DC
:1005800069040000000000207802002038B50A4D00
:10059000FFF702FF0421284600F0FAFB074B012475
:1005A0005C71FFF7CFFF05F11000042100F0F0FBB4
:1005B000034B5C7138BD00BF248100001400002093
:1005C0001C000020F0B5334D85B005F5836000F0C8
:1005D000FDFD05F2144000F0F9FD6B68AE6803EA1A
:1005E0000600C11C05EB810215F8214014F004043B
:1005F0000ED0117801F0030101293BD0022903F14B
:10060000020700F1030126D005EB8102002CF0D196
:1006100005EB80005A1CC1680191324005EB820253
:1006200001F00301D2680292012903F1020429D0EA
:10063000022925D1BDF80630BDF80A60C3F389133D
:10064000033304EB9304144800F0CEFD00B16C605A
:10065000304605B0F0BD538807EB931306EA03005C
:10066000C11C05EB810215F8214004F00404002CA4
:10067000BFD1CDE711880233C1F383110B44EDE7FD
:100680000026E0E7BDF80430BDF80A60C3F3831329
:100690001C44D8E790030020A40700200B4B0C4813
:1006A00010B50022FF21C3F8182499601A605A601F
:1006B000C3F8142483F8202401F02AF9044610B961
:1006C000044801F001FA204610BD00BF900300204D
:1006D00044810000D47A000021B9114B03EBC00023
:1006E0000068704730B40F4A0D4C121BD2080CD072
:1006F0000D4D2B88834210D0002303E035F82310E2
:10070000814205D001339A42F8D1002030BC7047B5
:1007100004EBC300006830BC70472046FAE700BF16
:10072000E48000002481000018020020094B0139F8
:1007300003EBC00003290BD8DFE801F00208060430
:100740000220704740797047007970470420704755
:1007500000207047E48000002DE9F047914C94E8B8
:100760000C009A4284B000F0B6800023C4F818341C
:10077000BFF34F8F6368A56803EA0501CA1C04EB49
:10078000820614F8222050071AD52768327802F022
:100790000302012A43D0022A03F1020202D1738824
:1007A00002EB931305EA0301D4F81804CA1C04EB06
:1007B000820628B99F4238D914F822205207E5D47E
:1007C00004EB81015A1CC96801912A4004EB8202A2
:1007D00001F00301D2680292022903F1020828D035
:1007E00001297CD0D4F810543DB12B6828469B6871
:1007F0009847EB681D68002DF7D16B486B4B6C492F
:10080000C01AC008000440F0020000F0D7F8606889
:100810002368C01A18BF012004B0BDE8F0873288F1
:100820000233C2F383121344BCE7676004B0BDE82F
:10083000F087BDF806305F48C3F389194F46502F43
:10084000A8BF502767F38F1307F10801ADF80630F2
:1008500001F060F806460028C4D025EA080A0AF12B
:10086000010A01F09FF84FEA8A0A0023082201A931
:10087000304601F0BDF857456ED9BAF1000F7AD174
:100880003A4608234C49304601F0B2F809F1030713
:1008900008EB9707D4F81834002B68D1D4F810541B
:1008A0005DB1EB685A79314628461AB12B681B684E
:1008B0009847EB681D68002DF3D1304601F076F8BB
:1008C000002000F049FCD4F8183403B96760002018
:1008D00000F04AFC9BE7002004B0BDE8F087BDF8BB
:1008E00004303448C3F38312062A28BF0622911C21
:1008F00062F389138900ADF8043001F00BF8064665
:1009000000283FF46FAF01F04DF80023082201A941
:10091000304601F06DF8BDF8043013F4707F3FD01D
:100920004FF0000A4FF0080905EA080103314B4671
:1009300004EB81010422304601F05AF8BDF804307E
:100940000AF1010AC3F3831308F10107534509F1C2
:100950000409B846E8D89DE705EA0801033104EB2D
:1009600081013A460823304601F042F88EE73046CE
:1009700001F01CF84BE705EA08010331A7EB0A0573
:1009800004EB810152463046EDB2082301F030F805
:100990002A460AF108030849304601F029F875E7AC
:1009A000474677E79003002014810000E4800000B0
:1009B000E07A0000448100009C0300202DE9F84308
:1009C000DFF8D890074600208846D9F8085000F094
:1009D000C3FBD9F80820D9F80430D9F800601344D3
:1009E00001339B1B012B55D809F21C4401212046E1
:1009F00000F0D0FBFFF7E6FD0146204600F0CAFB01
:100A000099E80A00D9F80820134401335B1A012B36
:100A1000ECD901240A40033244F004036FF3891334
:100A200049F8223002310020C9F8001000F09CFB88
:100A30000021194800F0A2FB80F3100033192B406D
:100A400009EB830300043540033540EA1740D860C2
:100A500019F8253067F3C50309F8253039F8253032
:100A60006FF3891329F8253059F8252068F39F2260
:100A7000134664F301036FF3820349F8252009F854
:100A8000253099F820341BB1FFF766FE0028FBD112
:100A9000BDE8F8833146BCE7AC0700209003002096
:100AA0002DE9F047354C8046002092468946A568DE
:100AB00000F052FBA2686368276813440133DB1B14
:100AC000022B59D804F21C460121304600F062FB8B
:100AD000FFF778FD0146304600F05CFB94E80A0021
:100AE000A268134401335B1A022BEDD901260A4098
:100AF000033246F0040366F3891344F822300331CD
:100B00000020216000F030FBBB1C2B4004EB830372
:100B100000211B48C3F80CA000F030FB80F310004C
:100B2000BB192B4004EB830300043D40033540EA2E
:100B30001840D86014F8253068F3C50304F8253050
:100B400034F8253066F3891324F8253054F825202D
:100B500069F39F22134666F301036FF3820344F89F
:100B6000252004F8253094F820341BB1FFF7F4FD5C
:100B70000028FBD1BDE8F0873946B7E79003002095
:100B8000AC0700202DE9F04F3C4C83B0804600209C
:100B9000934601938946A66800F0DEFAA26863686E
:100BA000276813440133DB1B032B64D804F21C4574
:100BB0000121284600F0EEFAFFF704FD0146284621
:100BC00000F0E8FA94E80A00A268134401335B1AC3
:100BD000032BEDD901250A4003324FF0020A45F0FC
:100BE000040304316AF38913002044F822302160A1
:100BF00000F0BAFA07EB0A0EFA1C0EEA060E3240B3
:100C000004EB820204EB8E0E019B1D48CEF80CB063
:100C10000021D36000F0B2FA80F310007A1932405C
:100C200004EB820200043E40033640EA1840D060E4
:100C300014F8262068F3C50204F8262034F826208C
:100C40006AF3891224F8262054F8262069F39F229B
:100C5000134665F301036FF3820344F8262004F87A
:100C6000263094F820341BB1FFF776FD0028FBD125
:100C700003B0BDE8F08F3946ACE700BF9003002019
:100C8000AC0700202DE9F04F3F4C83B08046002098
:100C900089460193A668934600F05EFAA1686368EE
:100CA00027680B440133DB1B042B6BD804F21C4573
:100CB0000121284600F06EFAFFF784FC0146284621
:100CC00000F068FA94E80C00A1680B4401339B1A09
:100CD000042BEDD9012511404FF0030A033145F0F3
:100CE000040305326AF38913002044F8213022609E
:100CF00000F03AFAB81C07EB0A0E30400EEA060E76
:100D00003A1D324004EB800004EB8E0E04EB8202AD
:100D1000019BC0F80CB00021CEF80C301B480C9B96
:100D2000D36000F02BFA80F310007A19324004EB04
:100D3000820200043E40564440EA1840D06014F855
:100D4000262068F3C50204F8262034F826206AF32A
:100D5000891224F8262054F8262069F39F2213468E
:100D600065F301036FF3820344F8262004F826306C
:100D700094F820341BB1FFF7EFFC0028FBD103B03F
:100D8000BDE8F08F3A46A5E790030020AC070020AD
:100D900030B4174DD5F8104400215CB1E3681A79DE
:100DA0008A4204D116E0DB681A798A4212D01B68A5
:100DB000002BF8D1C3681971D5F8103493B1DA68F3
:100DC000C36812681A60D5F81034DB6818600846EA
:100DD00030BC704701310A29DFD14FF0FF3108469E
:100DE00030BC7047C5F81004C2681360EFE700BF5D
:100DF0009003002038B5094BD3F81044012583F83F
:100E000020544CB1E3685D71236820465B689847C5
:100E1000E3681C68002CF5D138BD00BF90030020AA
:100E20002DE9F04784B01D460C9C002394F80C80FB
:100E30002373EB8881460E461746002B3BD1297A57
:100E400005290FD06B7A002B3DD1404BA88853F871
:100E500021A00021FFF740FC524603463C492046B2
:100E600000F034FA062F0FD8DFE807F0484D535A48
:100E700004633900F168B06896E80C0001910090B5
:100E80004946204600F022FA2B7A052B05D06B7AD2
:100E90005BB93049204600F019FA204600F00AFA02
:100EA00084F80C8004B0BDE8F0872B4A2B4920461B
:100EB00000F00CFAEDE7284A00922949294A204619
:100EC00000F004FABBE7A888FFF730FC264B234963
:100ED00053F82020204600F0F9F9297AB5E7706927
:100EE000316996E80C000390B068F76802918DE8CC
:100EF00081004946204600F0E9F9C5E74946204609
:100F000000F0E4F9C0E732684946204600F0DEF917
:100F1000BAE7494696E80C00204600F0D7F9B3E757
:100F2000B16896E80C0020460091494600F0CEF9E1
:100F3000AAE7B068F768316996E80C0002918DE87D
:100F400081004946204600F0C1F99DE76C7B000016
:100F50005C7B0000687B0000507B0000587B000039
:100F6000387B0000307B0000F87A0000082900D9A7
:100F700070472DE9F04F1D46904600232A7B2B73C6
:100F800085B0B8F80630039207460E46002B6BD1A9
:100F900098F80810052911D098F80930002B6BD16A
:100FA0003C4BB8F8040053F821400021FFF794FBB4
:100FB000224603463849284600F088F9DFF8F8B0A1
:100FC000DFF8F8900024A642494628463ED93A5D0B
:100FD000013400F07BF9082CF5D13049DFF8E090BE
:100FE000DFF8E0B0284600F071F9002411E017F8AE
:100FF00004A004F077F950445946437813F0970F52
:1010000014BF52462E222846013400F05FF9082C06
:1010100008D0A64249462846E9D8013400F056F9DE
:10102000082CF6D198F80830052B02D098F8093032
:10103000A3B91B49284600F049F9284600F03AF9BF
:101040009DF80C302B7305B0BDE8F08F0134594684
:10105000284600F03BF9082CB5D1BEE7114A1249E9
:10106000284600F033F9E4E70E4A00920F49104A8F
:10107000284600F02BF98BE7B8F80400FFF756FB81
:101080000C4B094953F82020284600F01FF998F826
:10109000081085E76C7B00005C7B0000287B00006B
:1010A000687B0000507B0000587B0000387B00000C
:1010B000307B0000F87A0000247B00001C7B0000DD
:1010C000647B00002C7B000000B585B000230390FA
:1010D000194601AA44F201000193029300F004F8BA
:1010E00005B05DF804FB00BF10B572B6FFF782FED5
:1010F000FFF732FB0028FBD1104B114C1149E41AC9
:10110000E408240444F00100FFF758FC0E4B1B6870
:10111000DB0700D500BE44F002000C49FFF74EFC8F
:10112000BFF34F8F0A490B4BCA6802F4E0621343C6
:10113000CB60BFF34F8F00BFFDE700BFE48000002E
:1011400014810000D87B0000F0ED00E0E47B00009B
:1011500000ED00E00400FA0572B6024A136801339C
:10116000136070474C080020034A1368013B13606A
:1011700003B962B6704700BF4C08002000B550E8C4
:10118000002F0B4640E8003E9EF0000FF7D11046BE
:101190005DF804FB00B550E8003F03EB010240E8B6
:1011A000002E9EF0000FF6D110465DF804FB00BF44
:1011B00000B550E8003FA3EB010240E8002E9EF08E
:1011C000000FF6D110465DF804FB00BF00B5012307
:1011D00050E8002F42EA030E40E800E191F0000FD2
:1011E000F6D170465DF804FB00B5002350E800EF2F
:1011F0000EEA030240E8002191F0000FF6D170469C
:101200005DF804FBB8B130B4416882680468521AD2
:10121000D2B2531E2160DBB242B101680A685C1E83
:10122000551C0D601370E3B2FF2BF6D1036800204C
:10123000187130BC70470E20704700BF70B504466F
:101240000020FFF789FF236861681A688A4215D970
:10125000511E19602168A3680D680879268A12F862
:10126000012CE4685B1BDBB2984206FB024400D20F
:101270000B710020FFF778FF204670BD002400208E
:10128000FFF772FF204670BD38B5054600200C46BA
:10129000FFF762FF2A681368591C1160E9682A8AFF
:1012A000641AB4FBF2F41C700020BDE83840FFF76C
:1012B0005BBF00BF826802B9704710B5044643693E
:1012C0000168006998470023A36010BD0EB400B503
:1012D00082B0039929B102AA04AB42F8043D00F0A0
:1012E00095F802B05DF804EB03B070472DE9F84FB4
:1012F0001746B942884606461D46DDF828B00B9AC7
:101300007DD30B464FF00109B3FBF7F39F4209F180
:101310000109F9D9A94538BFA94612F0010A02D13D
:10132000BBF1000F49D1B268012402E0013D07FB87
:1013300004F4012DFAD8B8FBF4F18F42F7D9324DFD
:1013400005E0B4FBF7F4A4B1B8FBF4F1B268685C53
:10135000531CB36033689854B26873689A4204FBB4
:101360001188EED33046FFF7A5FFB4FBF7F4002C4D
:10137000EAD1BAF1000F16D0BBF1000F33D0CB4544
:1013800088BF20243ED9B3683268591CB160D45458
:10139000B26873689A420BF1FF3B06D2BBF1000FB3
:1013A00009D0D945EFD1BDE8F88F3046FFF782FF6D
:1013B000BBF1000FF5D1BDE8F88F93071AD42024B4
:1013C000CB45B0D9B2683368511CB1609C54B26847
:1013D00073689A420BF1FF3B07D2BBF1000FA3D019
:1013E000CB45F0D1A0E7BDE8F88F3046FFF762FFAC
:1013F000B268F2E7002D0CBF30242024E0E74FF064
:10140000010987E7BDE8F88FF47B0000002900F0B0
:101410006F822DE9F04F064685B093460C460B7857
:101420000DE0B2683168501CB0608B54B2687368CC
:101430009A4280F0D3802378002B00F0BA800134E8
:10144000002B00F0B680252BEBD14FF0000823468F
:1014500014F8012B2D2A00F0BB80302A00F0BB804D
:101460002B2A00F0AD802A2A00F0BC80A2F13005C2
:10147000E9B2092998BF013302D9A9E1A1F13005E8
:101480001C4613F8012BA2F1300005EB8501092859
:1014900002EB4101F2D92E2A00F0B080002701E0D2
:1014A00014F8012F02F0FB03682BF9D0253A532AD8
:1014B0007AD8DFE812F07A017900790079007900B2
:1014C0007900790079007900790079007900790054
:1014D0007900790079007900790079007900790044
:1014E0007900790079007900790079007900790034
:1014F0007900790079007900790079007900790024
:101500007900790079007900790079007900790013
:101510007900790079007900790079006A01790011
:1015200079007900790079007900790079007900F3
:1015300079005501FC007900790079007900FC0000
:1015400079007900790079007900790054007900F8
:101550007900CA007900BA00790079006A01DBF8E5
:101560000020131DCBF80030B368156831685A1C91
:10157000B2604FF03002CA54B3687268934280F090
:10158000A0813268581C7821B060D154B268736869
:101590009A4280F09281002208230192294600930A
:1015A00010223046FFF7A2FE01342378002B7FF48F
:1015B00046AF337B002B40F0058105B0BDE8F08FCE
:1015C000234614F8012B2D2A48F004087FF445AF78
:1015D00048F001083BE748F0020838E73046FFF7DB
:1015E00069FE28E7DBF80020111DCBF80010156814
:1015F0005A782E2A03F101047FF450AF6278A2F1E9
:101600003003092B04F101044FF000073FF64AAF05
:1016100007EB870702EB470714F8012FA2F130030D
:10162000092BA7F13007F3D93CE7DBF800301A1D8E
:10163000CBF800201968CDF804803B4600950A22BB
:101640003046FFF753FE0134AFE7DBF800301A1DD8
:10165000CBF8002018F0010FD3F8009040F0BB80C9
:10166000B9F1000F00F04781484603F076FE0746C7
:10167000BD4240F2F180002D00F0EE804FF02008D6
:1016800005E0BD4200F0E880002D00F0E580B36881
:101690003268591CB16002F80380B26873689A42DC
:1016A00005F1FF35EDD33046FFF704FEE9E7DBF83F
:1016B00000301A1DCBF80020D3F8009089EAE973B6
:1016C000A3EBE973092B4FF0010A09DD8F4A82FB76
:1016D0000312DB17C3EBA203092B0AF1010AF5DCA5
:1016E000BA4538BFBA462DB3B9F1000F02DB18F086
:1016F000040F00D0013D18F0020F40F0F58018F003
:10170000010F17D1002D00F0FE80AA4538BF20211F
:1017100010D2B2683368501CB0609954B2687368D4
:101720009A4205F1FF3580F0E880002D00F0EB8053
:10173000AA45EED1B9F1000FC0F2C88018F0040F2D
:101740007BD108F00303022B00F09A808DE8200182
:101750003B4649460A223046FFF7C8FD013424E7DC
:10176000DBF80020131DCBF80030B3683168127825
:10177000581CB060CA54B26873689A42FFF414AF40
:101780003046FFF797FD01340FE7DBF800301A1DF4
:10179000CBF800201968CDF804803B460095102254
:1017A0003046FFF7A3FD0134FFE6B3683268591CE9
:1017B000B1604FF02501D154B26873689A42DFD20C
:1017C0000134F2E6304605B0BDE8F04FFFF772BDD8
:1017D0001C4600255FE64F46A7EB090817F8013BBA
:1017E0008BB1B2683168501CB0608B54B2687368BA
:1017F0009A42F1D33046FFF75DFDA7EB090817F8D1
:10180000013B002BEDD145457FF6CEAE202705E00C
:1018100045453FF4C9AE002D3FF4C6AEB36832680B
:10182000591CB160D754B26873689A4205F1FF350C
:10183000EED33046FFF73EFDEAE7B2683368501C4E
:101840002B21B0609954B26873689A42FFF479AF63
:101850003046FFF72FFD74E709F1FF3919F8013F12
:10186000002B3FF4A1AEB2683168501CB0608B54BD
:10187000B26873689A42F1D33046FFF71BFDEDE77B
:10188000002F7FF463AF002D33D0AA45BFF45EAFC5
:10189000B2683368511CB1604FF030019954B2689E
:1018A00073689A4205F1FF3503D215B3AA45EFD10B
:1018B0004CE73046FFF7FEFCF7E73046FFF7FAFC4F
:1018C00069E63046FFF7F6FCB3685AE6B26833685B
:1018D000501C2D21B0609954B26873689A42C9F1C6
:1018E0000009FFF42EAFB3E7002F3FF423AF06E764
:1018F000704700252AE74F46BAE630460391FFF7C6
:10190000D9FC039911E7002514E700BF67666666F6
:10191000FFF778BC2DE9F041B0F81080CF1CA8F19A
:10192000040847440646B7FBF8F7FFF787FC80B387
:10193000FFB200250123013F0446A0F8068006609F
:101940000571437128D0804609E06379AF4203F105
:1019500001036371C8F80000066080461CD0304661
:10196000FFF76CFC01350028EFD16679721E16D0A6
:101970002346013082421B68FBD81F684EB12146C6
:1019800000250C6801353846FFF77EFCAE42214643
:10199000F7D10020BDE8F0812046BDE8F08127683E
:1019A000EDE700BF04300121FFF7F4BBF8B50121DA
:1019B00004460430FFF7FCFBC0B200B1F8BD667905
:1019C000721E12D02346013082421B68FBD81F686A
:1019D000002EF3D0214600240D6801343846FFF76D
:1019E00053FCA6422946F7D1F8BD2768F2E700BFAD
:1019F0002DE9F843C78890F805E0154607FB0EFE71
:101A0000EC18AEF1040E1A1DA6458846B2FBF7F697
:101A100038BFAEEB030507FB1621044616B1013EA5
:101A20002468FCD17E1AAE4228BF2E469DB14FF0ED
:101A30000009081DAD1B08EB09012044324603F0E4
:101A400071FCAF42B14424683E464FF0000128BF0C
:101A50002E46002DEDD1BDE8F88300BF2DE9F843F7
:101A6000C78890F805E0154607FB0EFEEC18AEF1AE
:101A7000040E1A1DA6458846B2FBF7F638BFAEEB3A
:101A8000030507FB1621044616B1013E2468FCD16C
:101A90007E1AAE4228BF2E469DB14FF00009043198
:101AA0002144AD1B324608EB090003F03BFCAF427A
:101AB000B14424683E464FF0000128BF2E46002D59
:101AC000EDD1BDE8F88300BF82680023936082688F
:101AD0001361826853618268D36082685360826850
:101AE0001360704770B50A4A0A4B06784568047A55
:101AF000C06853F8213052F8211084B003908DF85B
:101B0000006001958DF808406846984704B070BDA4
:101B1000500800205408002070B50A4A0A4B067885
:101B200045688468C06853F8213052F8211084B0A9
:101B300003908DF8006001958DF80840684698473D
:101B400004B070BD5008002054080020F0B51A4BB6
:101B500006781A4D0C6991F81DC045F826400746D5
:101B6000174803F806C040F826200C4696460FCCCE
:101B700089B06D460FC594E80F0085E80F00049604
:101B8000BCF1000F0BD0BEF1000F0E4A694607F101
:101B9000040008BF002200F00FFE09B0F0BDBEF146
:101BA000000F094A694607F10C0008BF002200F047
:101BB000D3FB09B0F0BD00BFC00B002050080020CF
:101BC00054080020E51A0000191B0000014B1B6897
:101BD000184700BF5808002038B50C4B984201D078
:101BE000002038BD00200D46FFF7B6FA084B1C79DF
:101BF00024B10020FFF7B8FA112038BD0122204699
:101C00001D601A71FFF7B0FA204638BD0020004071
:101C100058080020034B984203D1034B00221A605E
:101C20001A7170470020004058080020F0B55B4B47
:101C3000D3F824218DB0BAB10022C3F82421D3F8FF
:101C400024210592059AD3F804216AB9544A022145
:101C50009068C3F8080391609268C3F804230122D6
:101C60001A625A610DB0F0BD4C4C4D4DD4F80431A0
:101C7000002B2FD00023C4F8043105F10C070FCF3F
:101C800007AED4F804E13F68CDF810E00FC695F830
:101C90002E30049A3760002B36D02B7B012B79D065
:101CA000D4F84C250892022B71D03C4BD3F84C252C
:101CB0003A4B09920022C3F86021D3F860110291D7
:101CC0000299C3F85C21D3F85C310393039B95F828
:101CD000302028E0C4F84831D4F848212B7B019209
:101CE000019A002B3AD105F10C070FCF07AE0FC6B2
:101CF00095F830203B683360EAB92A4BC4F80022DB
:101D0000AA60C4F8083316E0C4F86031D4F8602142
:101D10000292029AC4F85C31D4F85C3195F8302014
:101D20000393039B3AB91D4B1E480021C3F80012D0
:101D3000A960C3F808031949D1F8C434C1F8C43400
:101D400099071DD501238DF818300AB985F82F2081
:101D50002B68696806A898470DB0F0BD4FF4007174
:101D600040F202220F4BC4F80012AA60C4F80833F4
:101D7000AB68C4F804330123A36023620DB0F0BD47
:101D800013F0040318BF02238DF81830DDE7D4F8F0
:101D90003C258DE7D4F83C35089386E700300040B9
:101DA0006008002002029C012DE9F84F0779DFF856
:101DB000FC80342404FB07F408EB040595F82D603F
:101DC00016B10820BDE8F88F8A4683463549006879
:101DD00099461646FFF700FF10B11120BDE8F88FB5
:101DE00048F80460A860C5F8049085F82F0085F8CD
:101DF00030009AF80D3085F83230DAF800304FF0C4
:101E0000A04203F5E07340F20C6142F82310DAF8C7
:101E1000043003F5E07342F82310DBF80030DAF801
:101E20000020DAF80410C3F80825C3F80C15DAF816
:101E30000820C3F8242526B3DBF800109AF80C30EC
:101E4000090B4AB2002A24DB02F1604202F561422A
:101E50005B01DBB282F80033DBF80020120B42F3A7
:101E6000C40323F0604323F0030303F1604303F54D
:101E7000614302F01F02012101FA02F2C3F880213E
:101E80001A60342303FB0783012283F82D20BDE869
:101E9000F88F054A01F00F015B010A44DBB21376AB
:101EA000DAE700BF2D1C0000FCEC00E06008002019
:101EB000037906490268342000FB0313022006213F
:101EC00083F82D00C2F80015704700BF600800209D
:101ED0000379034A342101FB032393F82F00704751
:101EE00060080020CB6803F06043B3F1005F01D0CD
:101EF000102070472DE9F047DFF894E290F8048055
:101F00000668A14BC6F80833342707FB08E788B0FA
:101F100097F82F3003F0FF0A33B1BB68C6F80433DB
:101F2000112008B0BDE8F08712F0140F0CBF012398
:101F3000002387F82F30894615460C46B9E80F0074
:101F400007F10C0CACE80F00C5F30013D9F8002022
:101F5000CCF8002087F830306378C6F88835C6F8AA
:101F600004A1D6F804310593059BC6F824A1D6F840
:101F700024310693069B15F0010318BF0123C6F810
:101F8000503515F0020318BF0123C6F840352378F9
:101F9000032B00F2F480DFE803F049690D022369A6
:101FA00003F06043B3F1005F00F0AF80102008B091
:101FB000BDE8F0876368E268C6F84425C6F848358E
:101FC000236903F06042B2F1005FEFD1342202FBDB
:101FD00008E2A068C6F8343540F202214FF4845379
:101FE000C6F83805C6F800320020916008234FF487
:101FF00082712A0704D42278032A1CBF0122F250DE
:10200000342303FB08F30EEB03025EF80330002BCE
:1020100043D06B0744BF4FF400739360342303FB3A
:1020200008EEDEF80830C6F804337AE76368E26841
:10203000C6F84425A906C6F848354FF0340303FB1B
:1020400008E34DD54FF48072C6F800224F499960DD
:102050000022C6F84821D6F848310093009B4FF47F
:10206000A4710123336200200823C2E7E36861689A
:10207000C6F8343534224FF4805302FB08E2C6F828
:10208000381540F20220C6F800320121002390608A
:10209000316218464FF48271ABE70124314402E00B
:1020A000D6F8242132BB0B68002BF9D0342303FB74
:1020B00008EED6F8C434C6F8C43400228EF82F20B7
:1020C000002B3FF42EAF13F0020F48F2012048F22C
:1020D000022208BF032013F0040F18BF104620E7A8
:1020E0004FF4007140F20222C6F800129A604FF4D9
:1020F0008271B6E7C6F82431D6F824310793079BDE
:1021000034624FF482717461C8E74FF48073C6F88B
:102110000032E3686268C6F844350023C6F84825F3
:10212000C6F85031D6F850210292029AC6F86031B2
:10213000D6F860210392039AC6F84831D6F84831A0
:1021400004930123049A3362B360D6F85031002B14
:10215000FBD00020C6F85001D6F85021019234235C
:102160002269A168019FC6F8442503FB08E3074ADA
:10217000C6F848159A604FF48271082339E708239E
:102180004FF48271072034E702029C010002040030
:102190006008002030B56E4AD2F8043399058BB040
:1021A0005BD5D2F82431002B57D00023C2F824315C
:1021B000D2F8243103934FF40171664B0398C2F8AF
:1021C000081393F8291009B90121516060490222CE
:1021D0008DF81820D1F88024C1F880249869D96836
:1021E00009920022089007919A6193E81200DA613F
:1021F00006A8A047564AD2F81C31C3B1554B186AFD
:102200005969884265D293F8280000F0FF0400283D
:102210005FD1C2F81C41D2F81C11029102999C684E
:10222000186A196A205C01311962C2F81C05484A13
:10223000D2F844317BB10021464BC2F84411D2F8A8
:10224000440193F829100090009809B10121116010
:102250009A69002A52D10BB030BD3D4AD2F80433FE
:102260005B07C7D5D2F80831002BC3D0394B996929
:10227000002952D00021C2F80811D2F808110491A7
:102280000499D868596AD2F8182542545A6A99694B
:1022900001325A625A6A8A42ACD1DA69002A45D1BF
:1022A00093F8292012B92A4A01215160284A4FF493
:1022B0000171C2F80813596ADA68089100240120F4
:1022C00007928DF8180093E806009C6106A89047D5
:1022D00090E71F4A0020C2F81C01D2F81C2101928D
:1022E000019A0029A3D09A688DF8180008915861C6
:1022F000079206A893E80600904798E70022586ADC
:10230000D9689A610122089007918DF8182006A8D3
:1023100093E8060090470BB030BDC2F80811D2F820
:10232000080105900598D2F81825B3E7DD685C6AC6
:1023300018699A6101210022D860DA615A628DF829
:1023400018100795089493E8060006A8904751E7EF
:1023500000200040940800202DE9F041604E0579EE
:102360002C2303FB056382B093F82A301BB10820AD
:1023700002B0BDE8F0810F4604465A490068904615
:10238000FFF72AFC18B1112002B0BDE8F0813A68CD
:10239000511C0BD04FF0A04101239340C1F80835E8
:1023A0003B6803F5E073032241F823207B685A1C45
:1023B00006D003F5E0734FF0A042002142F823104D
:1023C0002368BA69C3F82425397D7B7D22680B43D5
:1023D000C2F86C3597E806002368C3F81425C3F8E3
:1023E0000C153B7D012B51D02C2303FB05F3F21878
:1023F000C2F804803A69F250B8F1000F35D0236872
:102400003A7F394F0021C3F81C11D3F81C310093D7
:102410002368DDF800E0C3F84411D3F844112368C1
:1024200001910199C3F804732168090B4BB2002B89
:102430004EDB03F1604303F561435201D2B283F8EE
:1024400000232268120B42F3C40323F0604323F0FD
:10245000030303F1604303F5614302F01F0201210E
:1024600001FA02F2C3F880211A602C23246803FBCE
:102470000563002204250121C4F8005583F82A10C1
:102480009A61DA6183F829205A6171E7BB68591CA7
:1024900006D003F5E0734FF0A042002142F823106C
:1024A000FB685A1C0DD001224FF0A04102FA03F341
:1024B000C1F80835FB6803F5E073032241F82320D7
:1024C000FB682268B968C2F80835C2F810158BE7B6
:1024D000064B01F00F0152010B44D2B21A76B0E75D
:1024E000940800209521000080000200FCEC00E030
:1024F000F8B52F4D047902682C2303FB0453002107
:102500005B68C2F8001583B103682A4AC3F8082340
:102510000368294E1B0B5AB25209203203F01F03E5
:10252000012101FA03F346F8223003684FF0FF322D
:10253000D3F80CE5D3F81475D3F80815D3F8106563
:10254000C3F81425C3F80C2503689645C3F808257D
:10255000C3F8102506D00EF5E07E4FF0A04302220E
:1025600043F82E207B1C06D007F5E0774FF0A04300
:10257000022243F82720721C06D006F5E0764FF0C1
:10258000A043022243F826204B1C06D001F5E0713F
:102590004FF0A043022243F821200068FFF73AFBE6
:1025A0002C2303FB0454002384F82A306360F8BD15
:1025B000940800208402020000E100E0F0B5304EF3
:1025C00005792C2303FB056385B05C6914B11120E8
:1025D00005B0F0BD1C62996083F828405A6102681A
:1025E000C2F81C41D2F81C11026802910121029F1D
:1025F00091600268D3F808E0C2F81C41D2F81C11BF
:1026000001910199D3F820C0196A5F681EF80CC0C7
:1026100001311962C2F81CC517B1204605B0F0BDE2
:102620001A6A5C690168944203D819E093F828207B
:10263000F2B9D1F81C21002AF8D0C1F81C71D1F8E8
:102640001C210392039AD3F820C01A6A1EF80CC00A
:1026500001321A62C1F81CC51A6AA242E9D30168A4
:10266000D1F81C31002BFBD00123CB60002000E00F
:102670000F202C2303FB056300225A61A8E700BF4B
:102680009408002070B54A4BD3F8242188B0002A62
:1026900055D1D3F81011F1B9454BD3F8442152B1BB
:1026A0000020444AC3F84401D3F84441916901949D
:1026B000019C002960D13E4BD3F820214AB1002172
:1026C0003C4AC3F82011D3F8204150690094009C83
:1026D00030BB08B070BDC3F81021D3F810113548D5
:1026E000039103998169D3F83C458C42D4D1C569E3
:1026F000002D50D0D3F80012C668856121F020016A
:10270000C3F800120369C26101220168C3608DF839
:102710001840436805968DF8102004A89847BBE739
:10272000D3F84C0593688DF818008DF8101051619E
:10273000059304A892E80A00984708B070BD0021EC
:10274000C3F82411D3F82421029202228DF810201C
:10275000029AD3F88004174AC3F880040790D3F88C
:102760003C05D3688DF818009161D161059311681B
:10277000536804A898478FE7D3F83C458DF8184074
:10278000D368906101240593116853688DF8104057
:1027900004A898478FE7C368016885610122059303
:1027A0008DF8184043688DF8102004A8984773E707
:1027B00000200040C00800202DE9F0430479704E4D
:1027C000E7003B1906EB830385B093F820301BB17B
:1027D000082005B0BDE8F0838946054669490068D0
:1027E0009046FFF7F9F918B1112005B0BDE8F08364
:1027F000D9F80020511C0CD04FF0A0410123934088
:10280000C1F80835D9F8003003F5E073032241F828
:102810002320D9F804305A1C06D003F5E0734FF09A
:10282000A042002142F823102B68D9F81820C3F8E1
:10283000242599F8141099F815202B680A43C3F839
:102840006C252A68D9F80030D9F80410C2F80C3584
:10285000C2F8141599F81430012B61D03A1992007E
:10286000B318C3F80480D9F81030B350B8F1000F92
:1028700047D0296899F81C20DFF810E10023C1F83F
:102880001031D1F8101100912968DDF800C0C1F8AD
:102890002031D1F8201101912968DDF804C0C1F878
:1028A0002431D1F8241102912968DDF808C0C1F85B
:1028B0004431D1F844112B6803910399C3F804E320
:1028C0002968090B4BB2002B51DB03F1604303F580
:1028D00061435201D2B283F800232A68120B42F3FB
:1028E000C40323F0604323F0030303F1604303F5C3
:1028F000614302F01F02012101FA02F2C3F88021B4
:102900001A603C442A6806EB840400230125082150
:1029100084F82050C2F80015A361E361636158E7B1
:10292000D9F80830591C06D003F5E0734FF0A042E7
:10293000002142F82310D9F80C305A1C0FD0012284
:102940004FF0A04102FA03F3C1F80835D9F80C3072
:1029500003F5E073032241F82320D9F80C302A68EC
:10296000D9F80810C2F80835C2F8101576E7064BFA
:1029700001F00F0152010B44D2B21A76ADE700BF4D
:10298000C008002085260000FCEC00E010030200D7
:10299000F8B506792F4C0268F500AB1904EB8303F8
:1029A00000215B68C2F8001583B103682A4AC3F8A6
:1029B00008230368294F1B0B5AB25209203203F037
:1029C0001F03012101FA03F347F8223003684FF097
:1029D000FF32D3F80CC5D3F814E5D3F80815D3F8B3
:1029E0001075C3F80C25C3F8142503689445C3F883
:1029F0000825C3F8102506D00CF5E07C4FF0A04365
:102A0000022243F82C20BEF1FF3F06D00EF5E07EF7
:102A10004FF0A043022243F82E207A1C06D007F57F
:102A2000E0774FF0A043022243F827204B1C06D04A
:102A300001F5E0714FF0A043022243F82120354414
:102A400004EB85040068FFF7E5F8002384F82030E4
:102A50006360F8BDC00800201003020000E100E040
:102A600001F06043B3F1005F01D010207047F0B572
:102A70000579214EEF007C1906EB840483B063696D
:102A800013B1112003B0F0BDA1606261D0F800E085
:102A9000CEF82031DEF820C1D0F800E0CDF804C037
:102AA000DDF804C0CEF85831DEF858C1D0F800E0A7
:102AB000CDF800C0DDF800C0CEF84415CEF84825AA
:102AC00002680121916062680AB11846DAE703687A
:102AD00000E079B9D3F82021D3F85811002AF8D0B2
:102AE000002914BF0F2000207B1906EB830300226E
:102AF0005A61C7E70F20F7E7C0080020002138B56A
:102B00000846FDF7CBFD08B1FEF7DEFAFDF73EFD06
:102B10001C4C1D4B1D49E41AE408240444F0030432
:102B20002046FDF74BFF01F06BFF00F011FB184949
:102B3000054602462046FDF7B3FF712D01D0002067
:102B400038BD00F021FB00F01DFF01F069FA00F034
:102B50000DFB104902462046FDF7A2FF01F0F0FAF6
:102B600020460D49FDF72AFF20BF01F0F1FB0028A8
:102B7000FAD001F087FC01F023FDFDF7EDFD002800
:102B8000FBD1F1E714810000E4800000207C00000C
:102B90003C7C0000647C00008C7C00002DE9F84F38
:102BA0004400DFF87CA126180AEBC6068146D6F859
:102BB0002C80B8F1010F8B46174661D038D3B8F19D
:102BC000020F30D100F1010909EB4909756A4FEA9A
:102BD000C9094FF000081CE0326A641BBC420AEBD2
:102BE00009012346A2EB050428BF3B469C424868E6
:102BF00028BF1C4628445946224602F093FB336AFC
:102C000025449D4208BF00253F1BA044A344756294
:102C10000BD0B36AAB4203F1FF34DDD8326A134400
:102C2000013B5C1BDAE74FF000084046BDE8F88F37
:102C3000B36A756AAB429CBF326A9B18013B5B1B4F
:102C40009F42F2D804440AEBC40400F10109266A49
:102C5000761B09EB4909B7420AEBC90A56D3DAF8E1
:102C6000040032462844BD1B02F05CFBDAF8040085
:102C70000BEB06012A4602F055FBB8466562D4E725
:102C8000B36A756AAB4226D903F1FF38366AA8EBFE
:102C90000508B84528BFB846761BB04523D309F1CF
:102CA000010707EB47070AEBC707A14478683246DC
:102CB000594628440AEBC90AA8EB060502F032FB84
:102CC00078680BEB06012A4602F02CFBCAF8245068
:102CD0004046BDE8F88F366A03EB060808F1FF3876
:102CE000A8EB0508D5E709F1010303EB43030AEB61
:102CF000C303A14458680AEBC90A2844594642460E
:102D0000454402F00FFBCAF824508EE7DAF80400BD
:102D10003A4628443D4402F005FBB846656284E724
:102D2000C40B0020F8B5114C114B124AE3614FF46B
:102D300000750023104FA36210266362E362A3654F
:102D40006365E3650D492562A2610225A264E01D69
:102D5000E76426652561656102F0F7FA20460849B7
:102D600002F0F3FA2023A371F8BD00BFC40B0020CA
:102D7000F4080020A07C0000E4080020AC7C0000E7
:102D8000B07C0000F0B4B44B1A78062A20D0B34BC4
:102D90001B68062B00F08A80B14AD2F8883043F4D1
:102DA0007003C2F88830BFF34F8FBFF36F8F4FF0BF
:102DB0001023D3F80022002AC0F28A81D3F804320B
:102DC000002BC0F28581A74BA74A1A60F0BC704760
:102DD00004331B681807DAD1A44B1B6803F0F00218
:102DE000302A00F0658103F0E003402B00F06081A1
:102DF0009E4B1B6803F0F003302B00F01E819B4BB1
:102E00001B6803F0F002302A00F0078103F0E003B2
:102E1000402B00F00281954B1B6803F0F003302B30
:102E200000F0EB80914B1B6803F0F002302A00F0B9
:102E3000D08003F0E003402B00F0CB808B4B1B686D
:102E400003F0F003302B00F0B680884B1B6803F0D2
:102E5000F003302B00F09880844B1B6803F0F003E4
:102E6000502B3FD0814B1B6803F0F002302A28D052
:102E700003F0E003402B24D07C4B1B6803F0F002EE
:102E8000302A03D003F0E003402B80D14FF0804381
:102E9000D3F80024D2077FF57AAF6FF00102C3F8B0
:102EA00000246E4B1B68062B7FF476AF704B1B68BB
:102EB000062B7FF471AF6F4A136843F4806313608D
:102EC0006AE76D4B6D4A1B6803F04F031360624B5A
:102ED0001B78062B7FF45BAF694B1B6818077FF4E8
:102EE00056AFC9E74FF08052664BD2F80414C3F8CE
:102EF0002015D2F80814C3F82415D2F80C14C3F81E
:102F00002815D2F81014C3F82C15D2F81414C3F8ED
:102F10003015D2F81814C3F83415D2F81C14C3F8BD
:102F20004015D2F82014C3F84415D2F82414C3F87D
:102F30004815D2F82814C3F84C15D2F82C14C3F84D
:102F40005015D2F83014C3F85415D2F83414C3F81D
:102F50006015D2F83814C3F86415D2F83C14C3F8DD
:102F60006815D2F840143C48C3F86C15D2F84414E4
:102F70000278C3F87015062A7FF409AF404B1B682E
:102F80001C077FF404AF6DE73F4E404C4049414B76
:102F90000527012500203F223760256008601A6060
:102FA0002D4B1B78062B7FF4F2AE354B1B681D07AB
:102FB0007FF4EDAE50E7284B374A1B780321062BF0
:102FC00011607FF4E4AE2E4B1B681E077FF4DFAE6A
:102FD0003BE74FF080430022C3F80C21C3F81021D7
:102FE000C3F838251C4B1B78062B7FF470AF244B9D
:102FF0001B681F077FF4CBAE20E72849164ACB6831
:10300000127823F08073062ACB607FF4C0AE1C4B8D
:103010001B681B077FF4BBAE04E7214B0E4A1B68FD
:1030200012782049C3F34233062A0B60B8D1144BFF
:103030001B681A077FF4ABAEEDE6074B1A4A1B7804
:103040001A491160062B7FF4A2AE0D4B1B681907BD
:103050007FF49DAED3E600BFE00F00F0300100101A
:1030600000ED00E0240000200090D003E80F00F005
:10307000340100103C17004058020010E40E0040DC
:10308000E40F00F000C00040105600408856004099
:103090001856004014560040A0050040F0ED00E036
:1030A000440200103C05004074C007400DF0ADBA6A
:1030B000204B214A1B6812782049C3F30423062AB7
:1030C0000B608FD11E4B1B6819073FF491AE5EE673
:1030D0001C4B0122C3F80425D3F80024002AFBD09E
:1030E0004FF0102315221749C3F80022D1F80034FD
:1030F000002BFBD04FF010221521124BC2F8041206
:10310000D3F80024002AFBD000220E49C3F804257E
:10311000D1F80034002BFBD0BFF34F8F0A490B4B83
:10312000CA6802F4E0621343CB60BFF34F8F00BF65
:10313000FDE700BF24030010E00F00F04035014020
:10314000E40F00F000E0014000ED00E00400FA05AB
:1031500000B583B001230DF107027521682001F04D
:1031600095FC9DF8070003B05DF804FB00B583B043
:1031700001230DF1070200210C2001F087FC9DF8CE
:10318000070003B05DF804FB2DE9F04F2DED0A8B2D
:10319000002591B02A4619216820ADF834500C95CD
:1031A0000E95ADF83C5001F045FC02221A21682032
:1031B00001F040FC2A461B21682001F03BFC022262
:1031C0001D21682001F036FC2A461C21682001F0F0
:1031D00031FC2F46A9462E46A846AA46C8240623F7
:1031E0000CAA3B21682001F051FC9DF830C09DF8ED
:1031F00032209DF831109DF833009DF834309DF851
:1032000035E041EA0C2140EA02204EEA032E0CAAE6
:1032100006230AFA81FA08FA80F84321682006FAA0
:103220008EF601F033FC9DF830C09DF831109DF80A
:1032300032E09DF833209DF834009DF8353041EAA6
:103240000C2142EA0E2243EA0023013C09FA81F9EB
:1032500007FA82F705FA83F5C1D1EB4B4FEAEA7121
:1032600083FB092083FB0A2A4FEAE979C1EBAA1103
:10327000C9EBA01083FB084207914FEAE87883FB73
:1032800007410490FF1783FB0640F617C8EBA21214
:1032900083FB0543C7EBA111ED17C6EBA010C5EBEF
:1032A000A31308920991E0221C2102906820039345
:1032B00001F0C0FBE0221B21682001F0BBFBD34BD7
:1032C000192543F001084FF47A40C047013DFAD177
:1032D0002F46AA462E46AB46A946C82406230CAA6A
:1032E0003B21682001F0D2FB9DF830C09DF83220D0
:1032F0009DF831109DF833009DF834309DF835E08D
:1033000041EA0C2140EA02204EEA032E0CAA0623D1
:1033100009FA81F90BFA80FB4321682006FA8EF640
:1033200001F0B4FB9DF830C09DF831109DF832E0FB
:103330009DF833209DF834009DF8353041EA0C218A
:1033400042EA0E2243EA0023013C0AFA81FA07FA14
:1033500082F705FA83F5C1D1DFF8ACE28EFB0A30C3
:103360004FEAEA7A8EFB0B324FEAE971CAEBA01AF8
:103370008EFB09398EFB06C04FEAEB73F617C3EBE1
:10338000A21BC1EBA919C6EBA0138EFB07C18EFBD4
:1033900005CEFF17ED17224605936820C5EBAE1347
:1033A000C7EBA1171C21069301F044FB22461B2109
:1033B000682001F03FFB19244FF47A40C047013CDC
:1033C000FAD10EAA03230D21682001F05FFB2146EC
:1033D00003230DF13B02682001F058FB9DF83800F3
:1033E0008B4E07EE900AF8EE677A17EE900A03F01C
:1033F000D7FF0022874B03F073FE9FED7F0B41EC5C
:10340000110B02F021F89DF83900B0EE40CAF0EE41
:1034100060CA07EE900AF8EE677A17EE900A03F09A
:10342000BFFF00227B4B03F05BFE9FED730B41EC73
:10343000110B02F009F89DF83A00B0EE40AAF0EE48
:1034400060AA07EE900AF8EE677A17EE900A03F08A
:10345000A7FF00226F4B03F043FE9FED670B41EC8B
:10346000110B01F0F1FF9DF83B00B0EE408AF0EE49
:10347000608A07EE900AF8EE677A17EE900A03F07A
:103480008FFF0022634B03F02BFE9FED5B0B41ECA3
:10349000110B01F0D9FF9DF83C00B0EE40BAF0EE00
:1034A00060BA07EE900AF8EE677A17EE900A03F01A
:1034B00077FF0022574B03F013FE9FED4F0B41ECBB
:1034C000110B01F0C1FF9DF83D00B0EE409AF0EE07
:1034D000609A07EE900AF8EE677A17EE900A03F00A
:1034E0005FFF00224B4B03F0FBFD9FED430B41ECD4
:1034F000110B01F0A9FF079BA9EB030007EE900A4F
:10350000F8EEE77A8DED0A0B17EE900A03F048FF0C
:103510000022414B03F098FF39A3D3E9002304466E
:103520000D4651EC1C0B03F08FFF04F03DFA03F045
:1035300037FF02460B462046294604F0AFF800222A
:10354000354B03F0CDFD04F02FFA049B0CEE100A6E
:10355000AAEB030007EE900AF8EEE77A86ED00CAC0
:1035600017EE900A03F01CFF00222B4B03F06CFFB8
:1035700023A3D3E9002304460D4651EC1B0B03F0B3
:1035800063FF04F011FA03F00BFF02460B462046DE
:10359000294604F083F800221F4B03F0A1FD04F03C
:1035A00003FA089BF060ABEB030B07EE90BAF8EE62
:1035B000E77A17EE900A03F0F3FE0022164B03F0B1
:1035C00043FF0FA3D3E9002304460D4651EC1A0B29
:1035D00003F03AFF04F0E8F903F0E2FE02460B467E
:1035E0002046294604F05AF800220B4B03F078FDE0
:1035F00014E000BFAFF30080295C8FC2F528F03FD4
:10360000000000000078A4401F85EB51C07C000042
:103610008C0B00200000F03F0000594004F0C4F97A
:10362000099B7060FF1A07EE907AF8EEE77A17EEC2
:10363000900A03F0B5FE0022C74B03F005FFC4A3B8
:10364000D3E9002304460D4651EC190B03F0FCFEB0
:1036500004F0AAF903F0A4FE02460B4620462946D0
:1036600004F01CF80022BC4B03F03AFD04F09CF976
:10367000029A059B30619B1A07EE903AF8EEE77AC2
:1036800017EE900A03F08CFE0022B34B03F0DCFE31
:10369000AFA3D3E9002304460D4651EC180B03F009
:1036A000D3FE04F081F903F07BFE02460B46204670
:1036B000294603F0F3FF0022A74B03F011FD04F0AD
:1036C00073F9069B039AB0609D1A07EE905AF8EEC4
:1036D000E77A17EE900A03F063FE00229E4B03F098
:1036E000B3FE9DED0A0B9AA3D3E9002304460D46D1
:1036F00051EC100B03F0A8FE04F056F903F050FE55
:1037000002460B462046294603F0C8FF924B934CD5
:10371000002203F0E5FC04F047F9914B70611C1B9B
:10372000E408B5EEC0CA2404F1EE10FA44F0050432
:1037300000F1D3808B4ADFED8C6A8C49BDEECC7AE8
:10374000B5EEC0CAF8EEC77AF1EE10FACCBF7CEE47
:10375000677A77EECC7A17EE103A67EEA67A2046B3
:10376000FDEEE77ACDED007AFDF78CFAD6ED017A21
:10377000F5EEC07AF1EE10FA00F1DF80794A9FEDA4
:103780007A6A7B49FDEEE76AF5EEC07AB8EEE67A32
:10379000F1EE10FACCBF77EEC77A77EE677A16EEC5
:1037A000903A67EE867A2046FDEEE77ACDED007A14
:1037B000FDF768FAD6ED027AF5EEC07AF1EE10FA6E
:1037C00000F1B180674A9FED686A6849FDEEE76ADB
:1037D000F5EEC07AB8EEE67AF1EE10FACCBF77EEED
:1037E000C77A77EE677A16EE903A67EE867A2046C9
:1037F000FDEEE77ACDED007AFDF744FAD6ED037AD7
:10380000F5EEC07AF1EE10FA00F18380554A9FED93
:10381000566A5849FDEEE76AF5EEC07AB8EEE67AE8
:10382000F1EE10FACCBF77EEC77A77EE677A16EE34
:10383000903A67EE867A2046FDEEE77ACDED007A83
:10384000FDF720FAD6ED047AF5EEC07AF1EE10FA23
:1038500056D4444A9FED446A4749FDEEE76AF5EEC7
:10386000C07AB8EEE67AF1EE10FACCBF77EEC77AFE
:1038700077EE677A16EE903A67EE867A2046FDEE8E
:10388000E77ACDED007AFDF7FDF9D6ED057AF5EE94
:10389000C07AF1EE10FA2AD4324A9FED336A3749E2
:1038A000FDEEE76AF5EEC07AB8EEE67AF1EE10FAD0
:1038B000CCBF77EEC77A77EE677A204667EE867AD6
:1038C00016EE903AFDEEE77ACDED007AFDF7DAF9E3
:1038D00011B0BDEC0A8BBDE8F08FFFEE007AB4EEBC
:1038E000E7CAF1EE10FA7FF725AF254A23E7BFEECE
:1038F000007AF4EEC77AF1EE10FACDDD204ACCE77B
:10390000BFEE007AF4EEC77AF1EE10FAA1DD1C4AA0
:10391000A0E7BFEE007AF4EEC77AF1EE10FA7FF777
:1039200075AF174A73E7BFEE007AF4EEC77AF1EE8F
:1039300010FA7FF747AF124A45E7BFEE007AF4EE80
:10394000C77AF1EE10FA7FF719AF0D4A17E700BFFB
:10395000000000000078A44000005940E48000000E
:1039600014810000647D00000000C842107E000049
:103970004C7E0000887E0000C07E0000F87E0000C3
:103980000C7E00002DE9F04F80228BB06B21682067
:10399000E94D01F04FF8642445F001054FF47A40F9
:1039A000A847013CFAD101226B21682001F042F8BE
:1039B00022466C21682001F03DF8C8244FF47A407B
:1039C000A847013CFAD122463821682001F032F89C
:1039D00022462321682001F02DF822466B21682021
:1039E00001F028F822462421682001F023F822461D
:1039F0006A21682001F01EF80C226A21682001F07B
:103A000019F80F244FF47A40A847013CFAD101225B
:103A10001A21682001F00EF822461921682001F0D1
:103A200009F822461B21682001F004F822461C21D7
:103A3000682000F0FFFF40226A21682000F0FAFFB2
:103A400078222321682000F0F5FF28244FF47A40E3
:103A5000A847013CFAD122462321682000F0EAFF62
:103A600007AA02237221682001F010F89DF81C209B
:103A70009DF81D70B14B47EA0227A3FB0737FB08EF
:103A8000039300F0798225462646A2462746A046A3
:103A9000A1460C2307AA7421682000F0F7FF9DF8C7
:103AA0001C109DF81E209DF820309DF81DC09DF82B
:103AB0001FE09DF821009DF822B04EEA022E4CEA4C
:103AC000012C40EA03209DF823109DF824309DF836
:103AD000252041EA0B2142EA03229DF826B09DF8F9
:103AE000273043EA0B23013407FA83F7039B06FAD6
:103AF0008EF61FFA84FE73450AFA8CFA05FA80F5F1
:103B000009FA81F908FA82F8C3D895FBF3F5002D7C
:103B10001A4619469AFBF3FA96FBF3F698FBF2F273
:103B200099FBF3F30492039397FBF1F3059340F3AE
:103B30002982A5F58045039A814CDFF814B213461B
:103B4000002AB8BF03339B105B421A128DF81C2069
:103B5000049A8DF81D30002A1346B8BF03339B101A
:103B60005B421A128DF81E20059A8DF81F30002A2C
:103B70001346744AB8BF0333A41A9B105B42E4088F
:103B80001A1224040DF11C088DF821308DF8202024
:103B900044F00504C14600273A4619F8013B59464E
:103BA00001372046FCF7EEFF062FF5D19DF81C20CB
:103BB000654F1321682000F03DFF9DF81D20142162
:103BC000682000F037FF9DF81E201521682000F0C6
:103BD00031FF9DF81F201621682000F02BFF9DF873
:103BE00020201721682000F025FF9DF821201821B2
:103BF000682000F01FFFDDED037A9DED056A9DED65
:103C0000047AF8EEC65AF8EEE76AB8EEC77ADFED46
:103C10004F7A86EEA76A022307AA77216820C7EEAB
:103C2000276A85EEA77A87ED006AC7ED016A87EDFE
:103C3000027A00F02BFFBDF81C90022307AA7A211C
:103C4000682000F023FF99FA99F9BDF81CB01FFA1B
:103C500089F907AA02237D21682000F017FF9BFA4B
:103C60009BFB002219F0010FBDF81C308DF81820C5
:103C70008DF819208DF81A201FFA8BFB1CBF01222A
:103C80008DF818205BBA1BF0010F18BF01229BB200
:103C900018BF8DF81920DA0744BF01228DF81A20C9
:103CA000BAF1000F5246B8BF0AF10702002EA9EB85
:103CB000E2093246B8BFF21D002DABEBE20B9DF8D6
:103CC0001A109DF818002A46B8BFEA1DA3EBE203BC
:103CD0001A120B439DF819108DF8202040EA0900B4
:103CE00041EA0B014FEA29294FEA2B22DFF864B0A1
:103CF0008DF81C908DF821308DF81D008DF81F1067
:103D00008DF81E204FF000094A4618F8013B59462D
:103D100009F101092046FCF735FFB9F1060FF3D18F
:103D20009DF81C20DFF830807721682000F082FEAB
:103D30009DF81D2014E000BFC07C0000ABAAAAAA19
:103D400014810000E4800000300B002000000343D9
:103D5000187D00002C7D0000F40A0020000080384F
:103D60007821682000F066FE9DF81E207A216820E8
:103D700000F060FE9DF81F207B21682000F05AFEB5
:103D80009DF820207D21682000F054FE9DF8212020
:103D90007E21682000F04EFE07EE90AAB8EEE77A8A
:103DA00007EE906A1FED136AF8EEE76A07EE905A85
:103DB00027EE067AF8EEE77A66EE866A67EE867A8E
:103DC000B5EEC07AF1EE10FA88ED007AC8ED016A1E
:103DD000C8ED027A00F10981894A9FED8A6A8A4911
:103DE000FDEEC77AB5EEC07AF8EEE76AF1EE10FAAA
:103DF000CCBF37EE667A36EEC77A17EE903A27EEEA
:103E0000067A2046BDEEC77A8DED007AFCF73AFFC0
:103E1000D8ED017AF5EEC07AF1EE10FA00F1DB8010
:103E2000774A9FED786A7949BDEEE77AF5EEC07A78
:103E3000F8EEC76AF1EE10FACCBF77EEE67A76EECE
:103E4000E77A17EE103A67EE867A2046FDEEE77ABB
:103E5000CDED007AFCF716FFD8ED027AF5EEC07AC8
:103E6000F1EE10FA00F1AD80654A9FED666A664991
:103E7000BDEEE77AF5EEC07AF8EEC76AF1EE10FA19
:103E8000CCBF77EEE67A76EEE77A17EE103A67EE79
:103E9000867A2046FDEEE77ACDED007AFCF7F2FE59
:103EA000D7ED007AF5EEC07AF1EE10FA7FD4544ADD
:103EB0009FED546A5649BDEEE77AF5EEC07AF8EE0A
:103EC000C76AF1EE10FACCBF77EEE67A76EEE77AC3
:103ED00017EE103A67EE867A2046FDEEE77ACDEDD2
:103EE000007AFCF7CFFED7ED017AF5EEC07AF1EE5D
:103EF00010FA53D4424A9FED436A4649BDEEE77A31
:103F0000F5EEC07AF8EEC76AF1EE10FACCBF77EEA4
:103F1000E67A76EEE77A17EE103A67EE867A204672
:103F2000FDEEE77ACDED007AFCF7ACFED7ED027A34
:103F3000F5EEC07AF1EE10FA27D4314A9FED316ADE
:103F40003549BDEEE77AF5EEC07AF8EEC76AF1EED4
:103F500010FACCBF77EEE67A76EEE77A204667EE87
:103F6000867A17EE103AFDEEE77ACDED007AFCF78F
:103F700089FE0BB0BDE8F08FA24626462546039485
:103F80000494059405F58045D5E5BFEE007AF4EE7E
:103F9000C77AF1EE10FAD0DD204ACFE7BFEE007A03
:103FA000F4EEC77AF1EE10FAA4DD1C4AA3E7BFEEE7
:103FB000007AF4EEC77AF1EE10FA7FF778AF174A7D
:103FC00076E7BFEE007AF4EEC77AF1EE10FA7FF7EB
:103FD0004BAF124A49E7BFEE007AF4EEC77AF1EE32
:103FE00010FA7FF71DAF0D4A1BE7FFEE007AB4EE23
:103FF000E77AF1EE10FA7FF7EFAE084AEDE600BF80
:10400000647D00000000C842447D0000687D00001F
:104010008C7D0000AC7D0000CC7D00000C7E00009B
:1040200070B5002282B06B2168203E4C00F002FD8A
:10403000642544F001044FF47A40A047013DFAD1D1
:1040400001226B21682000F0F5FCC8254FF47A406E
:10405000A047013DFAD103221A21682000F0EAFCB2
:1040600004221921682000F0E5FC0DF1070201236C
:104070001B21682000F00AFD9DF8073003F0E403DF
:104080001A461B2168208DF8073000F0D3FC0DF193
:10409000070201231C21682000F0F8FC9DF807307E
:1040A00003F0E7031A461C2168208DF8073000F062
:1040B000C1FC0DF1070201231D21682000F0E6FC80
:1040C0009DF8073023F00F0343F003031A461D2128
:1040D00068208DF8073000F0ADFC222237216820DF
:1040E00000F0A8FC2A463821682000F0A3FC6425D3
:1040F0004FF47A40A047013DFAD10B4B0B490C4AD3
:104100000C4D0D4E0D4C0C604FF0625018604FF48A
:104110004873184613802E6000F0EAFC00F018FD8A
:1041200002B070BDC07C0000100B00206C0B0020A2
:10413000180B00204C0B00200000FA3BFFEBBF3FA8
:104140002DE9F0412DED028B002284B00A210C20D4
:104150006D4C00F06FFC0A2544F001044FF47A40E6
:10416000A047013DFAD10F220A210C2000F062FC89
:104170000A254FF47A40A047013DFAD1032303AA50
:1041800010210C2000F082FC9DF80C005F4E80385E
:1041900007EE900AF8EEE77A17EE900A03F000F9BE
:1041A00000225B4B03F050F900225A4B02F09AFFB9
:1041B00003F0FAFB9DF80D303060A3F1800007EEAC
:1041C000900AF8EEE77A17EE900A03F0E9F8002279
:1041D0004F4B03F039F900224E4B02F083FF03F0FE
:1041E000E3FB9DF80E307060A3F1800007EE900AAB
:1041F000F8EEE77A17EE900A03F0D2F80022444B6B
:1042000003F022F90022434B02F06CFF03F0CCFBD9
:104210002A46B0600A210C2000F00CFC0A254FF45D
:104220007A40A047013DFAD112220A210C2000F069
:1042300001FC394A394B3A493A4D3B4F3B4E3C48D9
:1042400011603C491D6057609660586099604FF45A
:10425000FA754FF47A40A047013DFAD1364C374BFE
:104260002A4D374E374F9FED388AE41AE40824046C
:1042700044F0050405F10C08F5EC017AF5EEC07A7E
:10428000F1EE10FA1FD4B646BDEEE77AF5EEC07A2D
:10429000F1EE10FA2D4917EE103A724620461BDD5A
:1042A000B8EEC77A77EEC77A67EE887AFDEEE77ADE
:1042B000CDED007AFCF7E6FC4545DDD104B0BDEC60
:1042C000028BBDE8F081BFEE007AF4EEC77AF1EE22
:1042D00010FAD8DDBE46D7E7F8EEC76A17EE103AF7
:1042E00076EEE77A724667EE887A1849FDEEE77A4D
:1042F0002046CDED007AFCF7C5FC4545BCD104B0A5
:10430000BDEC028BBDE8F081C07C0000200B0020DA
:104310000000703F0000F03F500B0020700B0020A9
:1043200000804E43F6287C3F00008BC39A991342CD
:104330006666863F85EB713F14810000E4800000D3
:10434000647D00000C7E00000000C842F07D00008B
:1043500000B583B001230DF107023A21682000F077
:1043600095FB9DF8070000F0010003B05DF804FB29
:10437000F0B53E4C85B001230DF1070202210C205F
:1043800000F084FB9DF80730DA0705D42378002B72
:10439000F1D0374805B0F0BD072302AA03210C2055
:1043A00000F074FB9DF80E301B07EFD49DF809E078
:1043B0009DF808109DF80B709DF80A209DF80D607F
:1043C0009DF80C302B4D2C4895ED006AD0ED001A6D
:1043D0002A4D90ED012AD0ED022A95ED003A2848A9
:1043E000D5ED013A95ED024AD0ED004A90ED015A23
:1043F000D0ED025A1E4841EA0E2142EA072243EA62
:10440000062309B212B21BB206EE901A07EE102A6A
:1044100007EE903AF8EEE66AB8EEC77AF8EEE77A79
:1044200066EE866A27EE067A67EE867A66EEA16AFF
:1044300027EE027A67EEA27A76EEC36A37EE637AE7
:1044400077EEC47A66EEA46A27EE057A67EEA57A5F
:104450000222C0ED016A027080ED027AC0ED037A9B
:1044600003480123237005B0F0BD00BF2C0B0020D2
:104470005C0B00206C0B0020200B0020500B002058
:10448000700B0020F0B583B06A4606233B216820FC
:1044900000F0FCFA9DF800609DF802509DF8044081
:1044A0009DF801109DF803209DF805303E483F4FD0
:1044B00090ED006A41EA062142EA052243EA04231C
:1044C00009B212B21BB206EE901A07EE102A07EEDE
:1044D000903AF8EEE66A364B364CD3ED004A93ED4F
:1044E000015AD3ED025AB8EEC77AF8EEE77A66EED3
:1044F000866A27EE067A67EE867A76EEE46A37EE0B
:10450000457A77EEE57A6A4600250623432168203E
:10451000C4ED016A257084ED027AC4ED037A00F0DF
:10452000B5FA9DF800609DF801109DF802509DF8C5
:1045300003209DF804409DF8053097ED006A1E4861
:1045400041EA062142EA052243EA042309B212B2F3
:104550001BB206EE901A07EE102A07EE903AF8EE1C
:10456000E66AB8EEC77AF8EEE77AD0ED004A90ED49
:10457000015AD0ED025A114866EE866A27EE067A95
:1045800067EE867A76EEE46A37EE457A77EEE57A7C
:104590000123C0ED016A037080ED027AC0ED037A59
:1045A000FFF7E6FE03B0F0BD100B00204C0B00201F
:1045B000F40A0020000B0020300B00203C0B0020F0
:1045C000F0B52DED048B87B000F0CCFAE249E34A58
:1045D0000B68984280F0A981C3F1FF1303F57F4374
:1045E0001288034407EE102A07EE903AB8EEC77A15
:1045F000F8EE677A87EE878AD94DDA4EDFF898E3CE
:104600003268D94CD94B08600132E0683260D84F2B
:10461000D5ED007A8EED008A77EE887AD3ED019A97
:10462000C5ED007A93ED029AD3ED038A02F0B8FE4D
:10463000C5A3D3E9002302F007FF03F0B5F9059005
:10464000A06802F0ADFEC0A3D3E9002302F0FCFE97
:1046500003F0AAF90290606802F0A2FEBAA3D3E9BF
:10466000002302F0F1FE03F09FF9C24BDDED052AB5
:104670009DED022A93ED031AD3ED020A93ED010A90
:10468000F1EE688AB0EE684AF0EE693AB0EE493A67
:10469000F0EE484A01EE900A00F06AFA00F074FC6D
:1046A00090ED018AD0ED008AD0ED029A90ED039A48
:1046B00028EE087A68EEA87A69EEA96A77EE877A1A
:1046C00029EE097A77EEE67A68EE898A77EEC77A7C
:1046D00028EE298A044638EE288A17EE900A02F05E
:1046E0005FFE78EE087ACDE9020117EE900A02F03B
:1046F00057FE9DED021B41EC100B00F0A3FE94A3AE
:10470000D3E9002351EC100B02F09EFE03F04CF9AC
:10471000386094ED026AD4ED036A94ED007AD4ED2A
:10472000017A27EE067A67EEA67A77EEC77A77EEF9
:10473000A77A17EE900A02F033FE41EC100B00F05E
:1047400023FE53EC102B10EE100A03F1004180A35E
:10475000D3E9002302F078FE03F026F9786094EDA7
:10476000008AD4ED019AD4ED028A94ED039A68EEA2
:10477000087A29EEA97A68EEA86A77EEC77A29EE58
:10478000097A77EEE67A28EE298A77EE877A68EE5C
:10479000898A17EE900A38EE288A02F001FE78EE38
:1047A000087ACDE9020117EE900A02F0F9FD9DEDBD
:1047B000021B41EC100B00F045FE65A3D3E900237A
:1047C00051EC100B02F040FE03F0EEF895ED007A8C
:1047D000B860F6EE007AB4EEE77AF1EE10FA40F344
:1047E000A080654C654BD7ED007AE41AE408F5EE3D
:1047F000C07A2404F1EE10FA44F0050400F1CE80F2
:104800005F4A9FED606A6049BDEEE77AF5EEC07AD7
:10481000F8EEC76AF1EE10FACCBF77EEE67A76EEE4
:10482000E77A17EE103A67EE867A2046FDEEE77AD1
:10483000CDED007AFCF726FAD7ED017AF5EEC07AD5
:10484000F1EE10FA00F1C7804D4A9FED4E6A4F49D4
:10485000BDEEE77AF5EEC07AF8EEC76AF1EE10FA2F
:10486000CCBF77EEE67A76EEE77A17EE103A67EE8F
:10487000867A2046FDEEE77ACDED007AFCF702FA63
:10488000D7ED027AF5EEC07AF1EE10FA00F19980D8
:104890003B4A9FED3C6A3E49BDEEE77AF5EEC07AB1
:1048A000F8EEC76AF1EE10FACCBF77EEE67A76EE54
:1048B000E77A17EE103A67EE867A2046FDEEE77A41
:1048C000CDED007AFCF7DEF9D6ED007AD5ED006A81
:1048D000B8EE677AC7EE267AF5EEC07AF1EE10FAF6
:1048E00066D4274A9FED276A2A49BDEEE77AF5EE9E
:1048F000C07AF8EEC76AF1EE10FACCBF77EEE67A2E
:1049000076EEE77A17EE103A67EE867A2046FDEEED
:10491000E77ACDED007AFCF7B5F9002200232A6092
:10492000336007B0BDEC048BF0BD1288C31A07EEEC
:10493000102A07EE903AB8EEC77AF8EE677A87EE5B
:10494000878A59E6AFF30080399D52A246DF913F36
:10495000F8C1631ADCA54C40140B0020180B002092
:10496000A40B0020880B00203C0B00205C0B0020D7
:104970007C0B0020000B002014810000E48000006C
:10498000647D00000000C842C87C0000DC7C0000A0
:10499000F07C0000047D00001C0B0020BFEE007ABC
:1049A000F4EEC77AF1EE10FA7FF72AAF0F4A28E744
:1049B000BFEE007AF4EEC77AF1EE10FA91DD0B4A01
:1049C00090E7BFEE007AF4EEC77AF1EE10FA7FF7C7
:1049D0005FAF064A5DE7BFEE007AF4EEC77AF1EE0C
:1049E00010FA7FF731AF014A2FE700BF0C7E0000BD
:1049F00003780BB9014A1370704700BFAB0B00205E
:104A0000094B10B50FCB84B08DE80F006946002329
:104A1000064A0748FDF7C8F908B1FCF755FB0448FA
:104A2000FDF746FA04B010BD307F0000F1490000E8
:104A3000407F000030B5124B124C197087B0002136
:104A40000225019103918DF8050005915A70049398
:104A500002952046FDF73CFA02460028F9D10A4C9F
:104A60000848012301A92370FDF73CFA20B92378F7
:104A7000002BFCD107B030BDFCF726FBF7E700BFE9
:104A8000A80B0020407F0000AB0B002070B586B063
:104A9000114D8DF8050002260120104C039305925C
:104AA000297004958DF8046002902046FDF710FAF5
:104AB00002460028F9D10A4C0848012301A92370B5
:104AC000FDF710FA20B92378002BFCD106B070BD99
:104AD000FCF7FAFAF7E700BFAA0B0020407F0000BE
:104AE000AB0B0020704700BF4FF0FF30FCF7ECBA73
:104AF00030B5054683B0124800F042FB08B1FCF720
:104B0000E3FA00F04BFB00F055FB0E4B0E4A93E826
:104B1000030002AC4FF4004393FBF5F3013B00901C
:104B200024F8083DADF804100848214600F030FA9A
:104B300008B1FCF7C9FA054800F07EFA03B030BDB1
:104B4000E54A0000487F0000E94A0000507F00006D
:104B5000024B034801221A6000F062BA084002408A
:104B6000507F0000014BD3F804057047004002401D
:104B700010B52DED108BB0EE408A90B0B0EE609A7B
:104B80009FED270BF0EE418AB0EE61FAF0EE42EABB
:104B9000B0EE62EAB0EE43AAF0EE639AF0EE44AAF9
:104BA000F0EE64DA00F0E0FD22A3D3E9002351EC3B
:104BB000100B02F049FC02F0F7FE1B4B1B4C186077
:104BC0009FED170B00F0D0FD69EE096A68EE087AD8
:104BD00028EEA87A77EEA67AD4ED00CA94ED01CA41
:104BE000D4ED02BA94ED03BA9FED11DA77EE877A2D
:104BF00017EE900A02F0D4FB41EC100B00F0B4FD6C
:104C000051EC100B02F0D0FE0FEE900AF4EE4DFACC
:104C1000F1EE10FA12D110B0BDEC108B10BD00BF38
:104C2000000000000000E83FAC0B0020280000203E
:104C300000000000000000401857E63F2AEE0A7A04
:104C400069EEA97A6AEEAA6A77EE277A77EEA67AF3
:104C500017EE900A02F0A4FB41EC100B00F084FD6B
:104C600051EC100B02F0A0FE07EE900AF4EE4D7A24
:104C7000F1EE10FACFD0F7EE003A83EEA76A2CEEF1
:104C80000C3A6CEE2B7A6BEEAB6A6CEE8B0AB6EEDE
:104C9000007A83EEAF2A6BEE0B2A2AEE064A69EE03
:104CA000865A6AEE86FA37EE665A37EEE06ACDED3E
:104CB0000E6A77EE436A75EEA54A74EE04AA8DED8E
:104CC0000C7ACDED0A5A35EE627AF0EE465A70EE65
:104CD000A70A36EEE26A2BEE8B5A6CEEAB1A64EE44
:104CE000A57A2AEE871A26EE246A6CEE0B9A2CEE31
:104CF0008CAA60EEAA0A8DED0B4AB0EE454A70EE22
:104D0000860A3FEEAF5A34EE4A6A31EE271A71EE48
:104D1000A97A26EE056A25EE270A30EE866A31EE7C
:104D2000001A26EE066A21EE011A8DED055A31EEC3
:104D3000065ACDED0F3A15EE100A8DED027ACDED43
:104D4000035A8DED014A28EE028A29EE029A68EE96
:104D5000828A8DED0D3ACDED046ACDED092ACDEDB7
:104D6000084ACDED071ACDED067A02F019FB41ECA9
:104D7000100B00F0F9FC2CEEAC6A9DED0D3ADDED68
:104D80000E6ADDED047ADDED092ADDED071ADDEDB1
:104D9000014A36EE433A37EEE62A33EE663A51ECF4
:104DA000100B73EE222A79EEE19A3AEE24AA8DEDE9
:104DB000042ACDED012A02F0F7FDDDED084A9DED54
:104DC000042A9DED055A9DED027ADDED035A9DED15
:104DD0000B4ADDED012A6AEEA9AA64EE8A4A65EE65
:104DE000026A3AEEA45A07EE900A35EE265A37EEDA
:104DF000A76A35EE055ADDED067A29EE853A67EEAB
:104E0000867A67EE064A62EE056A25EE866A2AEE23
:104E1000055A74EE834ADDED0A5A9DED0C7A77EE61
:104E2000A66A36EE055A79EEA99A3AEE0AAA25EE56
:104E3000A62A2FEE853A68EE8A7A64EE266A29EE73
:104E4000226A6FEEA4FA68EE222A68EEA98A24EE9E
:104E5000055A7FEEE6FA32EE434A78EEE26A65EEF4
:104E6000A45A28EE0A8A36EE676A29EE299A36EEA7
:104E7000046A75EE655A76EEAF6A78EE497AF2EE1C
:104E8000044A26EE246A66EEA46A77EEA57A36EE28
:104E90000FFA67EEA47A76EEAEEA3FEE0DFA7EEEFA
:104EA0008DEA37EE8EEA2BEEAE6A3EEE0DDA6CEE50
:104EB0004F7A6BEE0D6A77EEC67A2DEE877A77EE33
:104EC000E67A2BEE8D5A67EE877A6BEE2E5A77EEE6
:104ED000ACCA2CEE0D6A6FEE2C6A6EEEAC7A76EEF2
:104EE000856A6CEE2EEA76EEE56A77EEC67A2DEEEE
:104EF0002CDA2BEE0F6A66EE876A6BEE8FDA3DEEE8
:104F00002EDA77EE867A36EE8CCA67EE877A7DEEF9
:104F10006DDA2CEE0C6A6CEEAC6A77EEABBA6DEE25
:104F200087DA76EE867A3DEE8BBA6BEEAB6A2BEEC5
:104F30000B7A77EEA67A77EE877A17EE900A02F070
:104F40002FFA41EC100B00F00FFC51EC100B02F0AB
:104F50002BFDDDED0F3A07EE100AC3EE877A2CEE3B
:104F600027CA6BEEA7BA2BEE27BA6CEEA7CA84ED60
:104F700001CAC4ED02BA84ED03BAC4ED00CA10B090
:104F8000BDEC108B10BD00BF00487047280000200A
:104F900070B443791F4C204E03EB430546F82320A1
:104FA000655D15B1082070BC704790F904308A78AF
:104FB000002B27DB03F1604303F561435201D2B2BA
:104FC00083F8002390F9042053099B0003F1604308
:104FD00003F56143012502F01F0205FA02F2C3F84E
:104FE00080211A6003680A88C3F808254379087984
:104FF000C97803EB4303E218E55450709170002028
:1050000070BC7047054D03F00F0352011D44D2B22E
:105010002A76D7E7B00B0020B40B0020FCEC00E0B0
:105020000368044A01211960437903EB4303022119
:10503000D1547047B00B002002680123C2F84833F6
:105040000268C2F80833704710B5474BD3F8042301
:10505000D10384B003D5454A1168002945D1424B9C
:10506000D3F80423920303D5414A116800294BD198
:105070003D4BD3F80423540303D53E4A116800295D
:1050800052D1394BD3F80423100303D53A4A11689F
:10509000002959D1344BD3F80423D10702D5D3F8D2
:1050A0000021B2B9304BD3F80423920702D5D3F8CC
:1050B00004210AB904B010BD0022C3F804212F4A0C
:1050C000D3F80431019305201368019A984704B07E
:1050D00010BD0022C3F80021284AD3F80031029302
:1050E00004201368029A9847DCE74FF480310020CF
:1050F000C3F84813214CC3F80813106013680393D6
:105100002368039A9847AAE74FF400310024C3F8B4
:1051100048131A48C3F8081314601368039303680C
:10512000039A01209847A3E74FF480210024C3F895
:1051300048131248C3F808131460136803930368F4
:10514000039A022098479CE74FF400210024C3F8FB
:1051500048130A48C3F808131460136803930368DC
:10516000039A0320984795E70040024040410240DF
:1051700044410240484102404C410240B40B0020EF
:10518000054A13790BB185207047012110605371D6
:1051900018461171704700BFB80B002004494FF04A
:1051A000804301201B22C1F88000C3F80823704708
:1051B00000E100E010B41349134B144A00200860CA
:1051C00083B0096801914FF080410220019CC1F831
:1051D0000403D86840F08071D960146844F001037A
:1051E0001360516853685B1AB3F50A5FFAD3064936
:1051F000074B14600122C8601A6003B05DF8044BCD
:10520000704700BF04010040F0ED00E0001000E036
:105210000800004010B5144B1A6882B062B100213A
:10522000124A19601B68507900934FF080410123A6
:10523000009CC1F8083390B10D4B1A686AB1002286
:105240001A601B6801934FF080420221074B0198BE
:10525000C2F808131B680120984702B010BD1168FE
:1052600053718847E8E700BF00010040B80B0020F9
:105270000401004008B5074B044613B10021AFF309
:105280000080054B1868836A03B19847204600F0F8
:1052900079F800BF000000006C7F000070B50D4E73
:1052A0000D4CA41BA4100025A54209D10B4E0C4C9B
:1052B00002F0D0FBA41BA4100025A54205D170BDAF
:1052C00056F8253098470135EEE756F825309847CF
:1052D0000135F2E70C0200200C0200200C02002035
:1052E00010020020044B054A1B681B6A002B08BFF4
:1052F0001346D3F8EC007047380000209C000020D3
:1053000082B001B901A942B14BB113780B60127898
:10531000101C18BF012002B070471046FBE76FF069
:105320000100F8E710B5431E0A44914200D110BDB8
:1053300011F8014B03F8014FF7E70244034693428B
:1053400000D1704703F8011BF9E7034611F8012B60
:1053500003F8012B002AF9D17047034613F8012BFB
:10536000002AFBD1181A0138704749B1FF2A85BFBE
:105370008A2303600A704FF0FF3098BF0120704706
:1053800008467047FEE700BF30B52DED048BB0EE48
:10539000408AF0EE608A274C8BB000F041FA94F915
:1053A0000030B0EE409AF0EE609A01332ED053EC0C
:1053B000182B51EC180B02F0E1FA054630BBB0EEA9
:1053C000480AF0EE680A01F043FD00221A4B51EC46
:1053D000100B02F0C9FAC8B1184B19480895012200
:1053E0008DE80C008DED048B8DED028B01F044FDFA
:1053F00094F90030022B8DED060B0FD0684601F0BA
:1054000037FD58B1089B83B99DED069BB0EE490A64
:10541000F0EE690A0BB0BDEC048B30BD02F014FB5A
:1054200021230360089B002BEED002F00DFB089BAC
:105430000360E9E7080200200000F03F7C800000E4
:10544000647D000000F030BC2DE9F04F2DED028BA3
:10545000DFF80CA38BB057EC106B55EC114B00F040
:1054600007FD9AF90080B0EE408AF0EE608AB8F14C
:10547000FF3F34D022462B462046294602F07EFAD2
:10548000834660BB32463B463046394602F076FAE8
:105490008146002840F09F80304639460022002394
:1054A00002F03AFA20B3002200232046294602F0F7
:1054B00033FA8346002867D09FED9F7B0122A44BDF
:1054C000CDF820900092CDE90267CDE904458DED3D
:1054D000067B0193B8F1000F49D09FED998BB0EE98
:1054E000480AF0EE680A0BB0BDEC028BBDE8F08F05
:1054F000B0EE480AF0EE680A01F0B2FC80460028DF
:1055000000F084804FF000084FF0000951EC180BB8
:1055100042464B4602F000FA0028E0D047EC106B00
:1055200001F09EFC0028DAD045EC104B01F098FC0D
:105530000028D4D09AF90030854A01920421002233
:10554000022BCDE90267CDE90445CDE9068900913A
:10555000089203D0684601F08BFC60B902F074FA3F
:105560002223036007E09FED747B8DED067B684688
:1055700001F07EFC50B3089B1BB102F065FA089B5A
:1055800003609DED068BAAE745EC104B01F068FC2B
:105590000028A4D0002200232046294602F0C6F9A4
:1055A00000289CD06A4A9AF90030CDF820B0012139
:1055B000CDE90267CDE904458DE80600002BD2D085
:1055C00064490020022BCDE90601D0D102F03CFA5B
:1055D00021230360CFE7002200232046294602F062
:1055E0009BF900283FF47BAF9FED558B584BCDF8CE
:1055F00020B00122B8F1020FCDE90267CDE90445E0
:105600008DED068B8DE80C00B1D168E747EC106B8F
:1056100001F026FC00283FF475AF45EC104B01F07B
:105620001FFC00283FF46EAF53EC182B18EE100A45
:10563000194602F0A3F9002861D103239AF90080EA
:105640000093434B0890CDE90267CDE904450193EF
:10565000B8F1000F2DD1DFF80C914FF06048002217
:10566000002330463946CDE9068902F05FF900286B
:105670003FF470AF0022384B2046294601F0E4FE8B
:1056800004460D4645EC104B01F0FEFB204653EC62
:10569000102B294602F040F970BB304B9AF900807C
:1056A0004FF06042CDE90623B8F1020F7FF452AF0C
:1056B00054E79FED257B00220023304639468DEDCF
:1056C000067B02F033F90028EED00022224B204660
:1056D000294601F0B9FE04460D4645EC104B01F099
:1056E000D3FB204653EC102B294602F015F918B9CC
:1056F000184B0022CDE906239AF90080D4E7144B19
:105700009AF90090CDF820800122CDE90267CDE919
:1057100004458DE80C00B9F1000F3FF424AF0022DE
:1057200000231046194601F0B9FFB9F1020FCDE987
:1057300006013FF44BAF1AE7000000000000000034
:10574000000000000000F03F000000000000F07FBB
:10575000848000000000F0FF0000E03FFFFFEFC783
:1057600008020020FFFFEF472DE9F0432DED028BEB
:105770008BB055EC104B01F0EBF8274BB0EE408AA4
:10578000F0EE608A93F90060731C12D022462B461B
:105790002046294602F0F2F8074650B94FF00008BB
:1057A0004FF000092046294642464B4602F0BEF81B
:1057B00040B9B0EE480AF0EE680A0BB0BDEC028BBF
:1057C000BDE8F083154B08970122CDE90445CDE9EA
:1057D00002458DE80C0096B142464B46404649468C
:1057E00001F05CFF022ECDE906010AD102F02CF98E
:1057F00021230360089B53B99DED068BD9E7CDE9C2
:105800000689684601F034FB0028F3D1EEE702F088
:105810001BF9089B0360EFE7080200208880000066
:105820002DE9F04F57EC106BC74B27F000459D4218
:1058300083B017DD05F1404510EE103A05F58015EF
:105840002B432BD010EE102A3B463046394601F050
:1058500047FC02460B4601F021FF41EC100B03B060
:10586000BDE8F08FB94B9D423C4633DCB5F1795F22
:1058700080F2748198A3D3E9002310EE100A394610
:1058800001F030FC0022B24B02F06EF810B330464B
:10589000394641EC100B03B0BDE8F08F10EE100A52
:1058A0008FA3D3E90023394601F0CEFD8EA3D3E9BF
:1058B000002304460D463046394601F0C5FD024638
:1058C0000B462046294601F00DFC41EC100B03B0BD
:1058D000BDE8F08F47EC106B01F0BAFA002053ECF2
:1058E000102B9B4901F0FCFB00229A4B01F0ACFD10
:1058F0007FA3D3E9002306460F4601F0A5FD7EA352
:10590000D3E9002301F0EEFB32463B4601F09CFD5B
:105910007BA3D3E9002301F0E3FB32463B4601F0D1
:1059200093FD79A3D3E9002301F0DCFB32463B462B
:1059300001F08AFD76A3D3E9002301F0D1FB3246C2
:105940003B4601F081FD74A3D3E9002301F0CAFBBB
:1059500032463B4601F078FD71A3D3E9002380462F
:1059600089463046394601F06FFD6FA3D3E9002325
:1059700001F0B6FB32463B4601F066FD6CA3D3E96D
:10598000002301F0AFFB32463B4601F05DFD6AA308
:10599000D3E9002301F0A4FB32463B4601F054FD5D
:1059A0006B4B002201F09EFB47EC106BCDE9000130
:1059B00000F0CEFF684B9D425BEC10ABDDE90001CF
:1059C00069DC02460B46404649460025CDE900AB5E
:1059D000009501F063FEDDE900895246CDE9000142
:1059E0005B465046594601F07DFB02460B46DDE919
:1059F000000101F029FD4246CDE900014B46404639
:105A0000494601F021FD02460B463046394601F079
:105A100067FB424606460F464B465046594601F044
:105A200061FB02460B463046394601F037FE02461E
:105A30000B4601F057FB02460B462BA1D1E90001B2
:105A400001F04EFB02460B46DDE9000101F048FB88
:105A5000424606460F464B464046494601F042FB49
:105A600002460B4636A1D1E9000101F039FB02469E
:105A70000B463046394601F033FB02460B4630A157
:105A8000D1E9000101F02CFB002C3FF7E6AE01F15B
:105A900000431946E1E602460B464046494601F0FE
:105AA000FDFD52465B4601F0CFFC52465B4601F0DD
:105AB00019FB02460B4601F015FB0BA3D3E90023AB
:105AC00001F00EFB02460B4605A1D1E9000101F0F1
:105AD00007FBD9E7AFF300809C7500883CE4377E74
